:1000000002002E750A00E4F50CF50DE4F50EF50F6F
:10001000E4F510F5112200000000000000000000CF
:1000200000000000000000000000000201E57581F2
:100030004E120188E582600302009A780079007A06
:10004000007B007C007D00EC4D601C88828983E48D
:1000500093A3A882A9838A828B83F0A3AA82AB830D
:100060001CBCFFE31D80E07582007583007C007D71
:1000700000EC4D600AE4F0A31CBCFFF51D80F27596
:1000800082007583007C007D00EC4D600AE4F0A3E3
:100090001CBCFFF51D80F21200031202F480FE1B4F
:1000A0005B324A001B5B25643B256448000D4368B6
:1000B0006F6F7365206265747765656E2074776F06
:1000C000206F7074696F6E733A2074656D7065721D
:1000D000617475726520636F6E74726F6C6C6564A9
:1000E000206D6F746F72202831292C206F7220755B
:1000F0007365722D636F6E74726F6C6C6564206DC6
:100100006F746F7220286F74686572293A20002519
:1001100064000D766F6C746167653A20252E336636
:10012000000A5479706520276F2720616E64207063
:100130007265737320656E74657220746F20656ECE
:10014000642050574D3A20002573000D506C6561B6
:10015000736520496E7075742050574D2052616E42
:1001600067652031303020746F202D3130303A20D7
:100170000056616C7565204E6F742057697468690C
:100180006E2052616E67650053D9BF75FF8075EFB1
:100190000643A90343B203759810758D30538EF44E
:1001A000438E08858D8B53890F438920D28ED29937
:1001B00043A60343A41075E10175E24075C80043EE
:1001C0008E1075CA7875CBEC75CCFF75CDFFD2ADAE
:1001D000D2CAD2AF7582002243A41075E10175E244
:1001E0005075E30022C0E0C002C003C0D075D0004B
:1001F000C2CF050AE50A249B5003750A00AA0A7BB0
:1002000000C3E50C9AE50D9B9200B392A0AA0A7B6D
:1002100000C3E50E9AE50F9B9200B392A1D0D0D017
:1002200003D002D0E03275BCF875E88075D10822A1
:10023000AA82853BF005F07401800225E0D5F0FB31
:10024000FBEA24FC4033EA2A2A90024D7302025949
:10025000020261020269020271EBF452F1EB42D434
:1002600022EBF452F2EB42D522EBF452F3EB42D6FE
:1002700022EBF4FA52F4EB42DF228582BB75BA1FFF
:10028000D2EC20ECFDD2EC20ECFDAABD7B00ADBE93
:100290007C00EC2AF582ED3BF5832212027A1205EE
:1002A00037AA82AB83ACF0FDC002C003C004C00516
:1002B00090333375F0537440120543AA82AB83AC7C
:1002C000F0FDE58124FCF581E4C0E0C0E07480C06D
:1002D000E07444C0E08A828B838CF0ED12061CAA85
:1002E00082AB83ACF0FDE58124FCF5818A828B83AF
:1002F0008CF0ED2275140075150075160075170049
:100300001201D8749FC0E07400C0E07480C0E01295
:1003100005FB158115811581753B07758201120258
:100320003012022675820712029B8582148583157E
:1003300085F016F517E4F50CF50DF50EF50F7401C3
:10034000C0E0E4C0E07401C0E0E4C0E074A4C0E038
:100350007400C0E07480C0E01205FBE58124F9F56B
:100360008174ADC0E07400C0E07480C0E01205FB91
:10037000158115811581C012C013740FC0E074017E
:10038000C0E07480C0E0120516E58124FBF581749D
:1003900001B51206E4B5130280028056C014C015E0
:1003A000C016C0177412C0E07401C0E07480C0E0D1
:1003B0001205FBE58124F9F5817421C0E07401C0C8
:1003C000E07480C0E01205FB158115811581740B66
:1003D000C0E07400C0E07440C0E07448C0E0740144
:1003E000C0E07480C0E0120516E58124FAF58102B0
:1003F00004D1744BC0E07401C0E07480C0E0120509
:10040000FB1581158115817410C0E07400C0E07483
:1004100040C0E0740FC0E07401C0E07480C0E0121E
:100420000516E58124FAF581C3E510949CE5116475
:1004300080947F401174649510E464808511F063AA
:10044000F08095F050177471C0E07401C0E07480C2
:10045000C0E01205FB158115811581803EC3E4952E
:1004600010E464808511F063F08095F0500D8510E4
:100470000C85110DE4F50EF50F8020E51130E71223
:10048000E4F50CF50DC3E49510F50EE49511F50FA8
:100490008009E4F50CF50DF50EF50F7421C0E0743C
:1004A00001C0E07480C0E01205FB15811581158143
:1004B000740BC0E07400C0E07440C0E07448C0E059
:1004C0007401C0E07480C0E0120516E58124FAF5DD
:1004D00081749FC0E07400C0E07480C0E01205FB2E
:1004E000158115811581020324120D5DAA82BA08B7
:1004F00010758220C002120D70758208120D70D026
:10050000028A822285823485833585F036850937D3
:100510009004E902094BC008858108E50824FBF531
:1005200037E50824FBF886340886350886369004BB
:10053000E912094BD00822E4AC83AB82FAF9748E3D
:10054000020D8E120E1ABC0003020DB9EF60FA30D4
:10055000D502B2D1E583B4FF03020DCFE582B4FF2B
:1005600003020DCF258340072482400B020DB924DE
:1005700083145003020DCFF582EA8DF0A4A8F0EAAF
:100580008EF0A428F8E435F0F9EB8DF0A428E935D5
:10059000F0F9E433CA8FF0A429F9EA35F0FAEBF860
:1005A0008EF0A429F9EA35F0FAE433FBEC8DF0A4DF
:1005B00029F9EA35F0FAE43BFBE88FF0A42AFAEBDC
:1005C00035F0FBE433CCFD8EF0A42AFAEB35F0FBDA
:1005D000E43CFCED8FF0A42BFBEC35F0FC20E703B2
:1005E000120DE7020D98020D7085823285833385E6
:1005F000F0348518359005E6021227C00885810879
:10060000E50824FBF535E50824FBF8863208863337
:100610000886349005E6121227D00822120E1A30EE
:10062000D502B2D1BF0009BC0003020DDC020DCF20
:10063000BC0003020DB9E583B4FF0BE582B4FF03F0
:10064000020DDC020DB9E582B4FF03020DCFC395A4
:10065000835007247F400B020DB9248014500302FD
:100660000DCFC0E0E4CCCBCAF98D3B8E3C8F3DEF83
:1006700054F0C4F53E758306853EF0EB84F582E9BF
:10068000C4F9EAC4FAEBC4FBEC540FC47803D6FCFB
:1006900018EBD6FB18EAD6FA8582F0EDA4A8F0FD97
:1006A0008582F0EEA428FEE435F0F88582F0EFA410
:1006B00028FFE435F0F8E99DF9EA9EFAEB9FFBECA0
:1006C00098FCAD3BAE3CAF3D30E7101582E92DF90B
:1006D000EA3EFAEB3FFBE43CFC80EDC082D5839818
:1006E000C3E933F9EA33FAEB33FBEC33FCC3E99D9E
:1006F000EA9EEB9FEC9400B3E413F9D002D0E0C47F
:100700004AFAD003D0E0C44BFBD004D0E0F5F0545B
:100710000FC44CFCD082158230F40FD3EC13FCEBE9
:1007200013FBEA13FAE913F90582E930E70A7401C9
:100730002AFAE43BFBE43CFC020DB08524828525CB
:1007400083121A82858233E533600A052DE4B52DC4
:1007500006052E8002D204853382227A007B003087
:100760000405783F760022C002C00312073BAC822A
:10077000D003D002BC0002802DBC08028014BC094A
:10078000028023BC0A02801EBC0D028019BC2021FD
:100790008014EA4B60D11ABAFF011B152D74FFB506
:1007A0002D02152E80C1EA4B60BDEA243FF8760089
:1007B00022EC7009EA243FF87600D20422ECB5322C
:1007C00007EA243FF8760022C3EA940FEB94005026
:1007D000968A058B060ABA00010BED243FF8A604A1
:1007E000020767AA827B7FC3EA648094B0401174D9
:1007F000B98AF063F08095F04006EA24D0FB80309F
:10080000C3EA648094C1401174C68AF063F0809595
:10081000F0400674C92AFB8017C3EA648094E14063
:100820000F74E68AF063F08095F0400474A92AFB07
:10083000C3EB952F50038B822275827F22AA82758B
:100840002900752A00752B00752C008A00E6FA60D5
:10085000148A82C0001207E3AB82D000C3EB952F4D
:1008600040030880E886038B82C0001207E3AA8257
:10087000D000C3E52F9A4050852F3B753C00753D55
:1008800000753E00852982852A83852BF0E52CC0E2
:1008900002C0001217F0AB82AC83ADF0FED000D0E6
:1008A000028B298C2A8D2B8E2CE4FBFCFDEA25295A
:1008B000FAEB352AFBEC352BFCED352CFD8A298B28
:1008C0002A8C2B8D2C08809D852982852A83852B57
:1008D000F0E52C22AA82752900752A00752B007577
:1008E0002C008A00E6FB60228B82C003C000120746
:1008F000E3AC82D000D003C3EC952F400DBB2D029A
:100900008008BB2B0280030880DA88028603BB2D97
:1009100003D38001C39207BB2D028003BB2B010AC6
:100920008A8212083D300713C3E49529FAE4952A18
:10093000FBE4952BFCE4952CFD8008AA29AB2AAC9E
:100940002BAD2C8A828B838CF0ED228582248583CB
:1009500025E4F52DF52EF531C204AA34AB35AC36BD
:100960008A828B838CF01217D4FD74012AF534E44B
:100970003BF5358C36EDFA7003020D54BA25028032
:1009800003020CEDD203C201752F00753000C205C1
:10099000C206AB34AC35AD368B828C838DF012172A
:1009A000D4FAA3AB82AC838B348C358D368B828C9E
:1009B000838DF01217D4F5328A06BE300040168AB5
:1009C00006EE24C6400FE53075F00AA4FEEA24D0F6
:1009D0002EF53080C38A06BE6100400A8A06EE24E6
:1009E0008540035302DFBA250280ADBA2A02805740
:1009F000BA42028048BA43028052BA4403020B1042
:100A0000BA4503020B26BA4603020B26BA47030275
:100A10000B26BA4903020B10BA4C028025BA4E03CA
:100A2000020B7BBA4F03020B16BA53028020BA5551
:100A300003020B0EBA5803020B1E020BA3D20102D3
:100A40000998D202020998D205020998D206200517
:100A500017E53724FDF888378603088604088605DD
:100A600018188B268C278D28E530700B3006047BF8
:100A70000180027BFF8B30752F00C3E52F9530502E
:100A80000512073BAA82300407E52F7003020BA36F
:100A9000EA601ABA2002800DBA09028008BA0D0273
:100AA0008003BA0A03300605E530B52F1FE52F6035
:100AB000C92005120531AB26AC27AD288B828C836B
:100AC0008DF0E4121A84752F00020BA3BA081CE5FE
:100AD0002F60A7200511AB26AC27AD281BBBFF015B
:100AE0001C8B268C278D28152F808F20051BAB266D
:100AF000AC27AD288B828C838DF0EA121A840BBB55
:100B000000010C8B268C278D28052F020A7AC20340
:100B1000752F0A020BA3C203752F08020BA3C20391
:100B2000752F10020BA312075B783FE66075200556
:100B300072E53724FDF88837863808863908863A02
:100B40001818853826853927853A2890003F75F092
:100B50004012185EAE82AF83ABF0FC8538828539D7
:100B600083853AF0EE121A84A3EF121A84A3EB12D3
:100B70001A84A3EC121A8405318028E53724FDF885
:100B80008837860308860408860518188B268C2764
:100B90008D288B828C838DF0E52D121A84A3E52E8F
:100BA000121A84E52F7003020CED12075B783FE602
:100BB0007003020CED300503020CEDE53724FDF85F
:100BC0008837860308860408860518188B268C2724
:100BD0008D280531200303020C6630023585263846
:100BE00085273985283A75823F1208D4AE82AF83B3
:100BF000ABF0FC853882853983853AF0EE121A8491
:100C0000A3EF121A84A3EB121A84A3EC121A840223
:100C10000CED30012685263885273985283A7582DE
:100C20003F1208D4AE82AF83ABF0FC8538828539A1
:100C300083853AF0EE121A84020CED85263885275A
:100C40003985283A75823F1208D4AE82AF83ABF063
:100C5000FC853882853983853AF0EE121A84A3EF39
:100C6000121A84020CED3002348526388527398526
:100C7000283A75823F12083DAE82AF83ABF0FC8507
:100C80003882853983853AF0EE121A84A3EF121A5E
:100C900084A3EB121A84A3EC121A8480503001252D
:100CA00085263885273985283A75823F12083DAE5A
:100CB00082AF83ABF0FC853882853983853AF0EECC
:100CC000121A84802885263885273985283A758226
:100CD0003F12083DAE82AF83ABF0FC853882853988
:100CE00083853AF0EE121A84A3EF121A84200403CB
:100CF00002095AAB34AC35AD368B828C838DF01241
:100D000017D4FEA3AB82AC838B348C358D36EEFAD0
:100D1000700302095ABA25E18B828C838DF0121779
:100D2000D4FABA6E028003BA4ECFE53724FDF888B4
:100D300037860208860608860718188A268E278FA7
:100D4000288A828E838FF0E52D121A84A3E52E1255
:100D50001A8480A5AA317B008A828B832210980294
:100D600080FBAA998A82C002120D70D0028A822268
:100D7000AA82BA0A0810990280FB75990D1099028F
:100D800080FB8A9922FCABF0AA83A982749EC2D10F
:100D9000F582120DE7020D98B98003EA13B34010F3
:100DA000EA2401FAE43BFBE43CFC50047C8005822D
:100DB000BC000EBB000BBA0008E4F5F0F583F58229
:100DC00022A2D1E582138CF092F78B838A8222E4EF
:100DD000F583F58275F080F4A2D11322E4F583F552
:100DE0008275F0C0747F227804EC7011E58224F8DB
:100DF000500AF582E4C9CACBFCD8EF22EC78200572
:100E00008220E713D5820122C3E933F9EA33FAEBF2
:100E100033FBEC33FCD8EA158222AA82AB83A2F71B
:100E20003392D16002D2F7F582ACF0E58124F9F873
:100E3000E6FD08E6FE0886F008E6A2F73392D560E4
:100E400002D2F7F583AFF022AA827459C0E0740E83
:100E5000C0E0C024C0258A8222052BE4B52B020500
:100E60002C22AA8274302AFA24C6500A74072AFA5D
:100E70003008034302208A82020E48E582FAC454F5
:100E80000FF582C002120E62D002740F5AF5820270
:100E90000E62AA26AB27AC28AD29AE2A753120EE0A
:100EA0002EFEED235401FF4206EA2AFAEB33FBEC57
:100EB00033FCED33FDC3EE952D4008EEC3952DFEBA
:100EC000430201D531D98A268B278C288D298E2A79
:100ED00022784BE624D075F00AA4FA784CE624D0A8
:100EE0002AFA784A8603BB2D04C3E49AFA752D01C9
:100EF000C3E464808AF063F08095F0502975310373
:100F00008A0374F62531401C052DE53114243FF881
:100F1000E531243FF98704A604772E1BEBFA600421
:100F2000053180DE8B02EA30E70D78408603784198
:100F3000A6037840762E0AE52F600AE52F04FB25EC
:100F40002DF52D8005301302052D783F8603E4BB77
:100F50002D0104FB7006200E03300F02052D300C0E
:100F600003021018300D57EB600C75822DC0021271
:100F70000E48D002801C300E0C75822BC002120E5F
:100F800048D002800D300F0A758220C002120E4830
:100F9000D00278408604BC2E0C758230C002120E3E
:100FA00048D002152EAC2E152EC3E52D9C40030211
:100FB000105C758230C002120E48D00280E7AC2E61
:100FC000152EC3E52D9C500C758220C002120E48D0
:100FD000D00280EA783F8604BC2D0C75822DC002B9
:100FE000120E48D002801C300E0C75822BC00212EB
:100FF0000E48D002800D300F0A758220C002120EFA
:1010000048D00278408604BC2E52758230C002124D
:101010000E48D002152E8044EB600E75822DC00262
:10102000120E48D002152E8020300E0E75822BC075
:1010300002120E48D002152E800F300F0C75822040
:10104000C002120E48D002152E78408603BB2E0C2B
:10105000758230C002120E48D002152E753101C2C1
:1010600015E531243FF88603BB4503021119BB2E59
:10107000348A03C3E464808BF063F08095F0500FF2
:10108000758230C003120E48D0031B8B0280E48BA4
:1010900002D215E52F703820130302111975822E24
:1010A000120E4880743015278A03EB30E71FC3E423
:1010B0006480852FF063F08095F0500C758230C00D
:1010C00003120E48D003152F0B8B0280DD8B0230EC
:1010D000150EC3E46480852FF063F08095F05021F5
:1010E000E531243FF886038B82C002120E48D002FD
:1010F00030150EE531243FF88603BB2E0280021521
:101100002F152EC3E46480852FF063F08095F040A6
:10111000032015050531021061C3E46480852FF0BA
:1011200063F08095F0500A758230120E48152F80BA
:10113000E8300C0FAA2E152EEA6008758220120ED8
:101140004880F122E52F700330130D7407252FFA24
:10115000E52EC39AF52E8006E52E24FAF52E75317C
:1011600000783F8602BA2B0F200E0C783F762020A5
:101170000F05753101052E200C19AA2EC3E46480D9
:101180008AF063F08095F0500A758220120E48159F
:101190002E80E7C215E531243FF88602BA000280AE
:1011A00069BA451F3008027665C3E46480852FF074
:1011B00063F08095F0500A758230120E48152F802A
:1011C000E8D215C3E5319402E433FA7014EA700EE4
:1011D000C3E46480852FF063F08095F04003301500
:1011E00016E531243FF886028A82120E48E5312442
:1011F000FD5012152F800E7402B53109301306759B
:10120000822E120E480531021195300C19AA2EC3F8
:10121000E464808AF063F08095F0500A75822012B1
:101220000E48152E80E722858224858325E4F52B40
:10123000F52CAA32AB33AC348A828B838CF0121734
:10124000D4FD74012AF532E43BF5338C34EDFA70A9
:10125000030217CDBA250280030217C5C20CC20DC6
:10126000C20EC20FC210C211C212C213C209C20AF8
:10127000C20B752D00752E00752FFFAB32AC33AD50
:10128000348B828C838DF01217D4FAA3AB82AC839B
:101290008B328C338D34BA25078A82120E488092A5
:1012A0008A06BE3000402E8A06EE24C6402774FF10
:1012B000B52F13E52E75F00AA4FEEA24D02EF52EE4
:1012C00070BFD20D80BBE52F75F00AA4FEEA24D0D2
:1012D0002EF52F80ACBA2E0A74FFB52FA4752F00FF
:1012E000809F8A06BE6100400E8A06EE2485400774
:1012F0005302DFD2088002C208BA20028075BA23E6
:1013000003021382BA2A03021387BA2B02805FBA40
:101310002D028055BA4202805FBA43030213CCBA51
:101320004403021507BA4503021521BA4603021504
:101330001DBA4703021525BA4903021507BA4C0224
:10134000803BBA4E03021529BA4F0302150EBA505C
:10135000030214A0BA53030213F0BA550302151383
:10136000BA5803021518021553D20C021281D20E7C
:10137000021281D20F021281D211021281D2120204
:101380001281D21302128174FFB52F2030110BE5A8
:101390003514F88835862E021281E53524FEF8884A
:1013A000358606088607188E2E02128130110BE54D
:1013B0003514F88835862F021281E53524FEF88829
:1013C000358606088607188E2F02128130110AE52D
:1013D0003514F888358602800FE53524FEF8883507
:1013E0008603088604188B028A82120E480215585A
:1013F000E53524FDF8883586030886040886051837
:10140000188B268C278D288B828C838DF0121BBC29
:10141000AB82AC838B3074FFB52F0385302F200C4B
:101420001DC3E530952E5016E52EC39530F52EAB35
:101430002E152EEB6008758220120E4880F185264D
:10144000828527838528F01217D4FBFA6029AB2FF9
:10145000152FC3E464808BF063F08095F050188AF8
:1014600082120E48AB26AC27AD280BBB00010C8BBB
:10147000268C278D2880C7200C03021558C3E53021
:10148000952E4003021558E52EC39530F52EAB2E50
:10149000152EEB7003021558758220120E4880EE4F
:1014A000E53524FDF8883586030886040886051886
:1014B000188B268C278D28E528FB30E7047A43809B
:1014C00013EB546060047A50800AEB30E6047A49EA
:1014D00080027A588A82C002120E4875823A120E31
:1014E00048758230120E48758278120E48D002BAC2
:1014F0004902800BBA50028006852782120E7B8536
:101500002682120E7B8051D210752D0A804A752DCD
:10151000088045752D0A8040752D10803BD20980CA
:1015200037D20A8033D20B802FE53524FDF8883579
:10153000860308860408860518188B268C278D28B4
:101540008B828C838DF0E52B121A84A3E52C121A62
:101550008480058A82120E48200906200A03300B77
:1015600070E53524FCF8883586030886040886056E
:101570000886061818188B268C278D288E29E526B4
:10158000E527E528E5298B828C838DF0EE121A9DE4
:1015900074FFB52F03752F06300B27747F5529FB79
:1015A0008B2AE52AEB2BFB8B2AE52830E706740112
:1015B000452AF52AE52A246840067499252A40021E
:1015C000D20A300A06121144021232120ED102124D
:1015D00032E52D70030212327B4430112BE53514B5
:1015E000F88835E6FC3395E0FDFEFF8C268D278ECE
:1015F000288F2920105EAC267D007E007F008C267F
:101600008D278E288F29804C30121FE53524FCF859
:10161000883586040886050886060886071818187F
:101620008C268D278E288F29802AE53524FEF88880
:1016300035860408860518ED3395E0FEFF8C268D6F
:10164000278E288F2920100CAC26AD277E007F0026
:101650008E288F29301343E52645274528452960E4
:10166000397408B52D0C758230C003120E48D003B2
:1016700080287410B52D23758230C003120E48D017
:101680000330080C758278C003120E48D003800A1C
:10169000758258C003120E48D003301025AC26AD19
:1016A00027AE28E529FF30E717C3E49CFCE49DFD45
:1016B000E49EFEE49FFF8C268D278E288F298002D2
:1016C000C210753000D2148B00752A00C000120EB3
:1016D00092D00020140DE52AC4FCE6FD4CF61888D3
:1016E000038002A62A0530B214E526452745284581
:1016F0002970D68803E52E7003752E01200D1A205F
:101700000C17E53004FCC3952E500E758220C003E3
:10171000120E48D003152E80E930100E75822DC0B0
:1017200003120E48D003152E8024E5306020300EC1
:101730000E75822BC003120E48D003152E800F3079
:101740000F0C758220C003120E48D003152E200CFA
:101750001EAC2E152EC3E5309C5027300D047C3076
:1017600080027C208C82C003120E48D00380E2C32A
:10177000E530952E5009E52EC39530F52E80037582
:101780002E008B00AB301530EB6022B21420140A0F
:1017900008E6C4540FFB8B2A80078603740F5BF5A1
:1017A0002A852A82C000120E62D00080D7200C0346
:1017B000021232AB2E152EEB70030212327582200C
:1017C000120E4880EE8A82120E48021232852B8257
:1017D000852C832220F71430F6148883A88220F504
:1017E00007E6A88375830022E280F7E49322E022D3
:1017F000AAF0FBE582853BF0A4FCADF0E583853BD8
:10180000F0A42DFDE435F0FEE582853CF0A42DFD2D
:10181000E5F03EFEE433FFEA853BF0A42EFEE5F062
:101820003FFFE583853CF0A42EFEE5F03FFFE58217
:10183000853DF0A42EFEE5F03FFFEB853BF0A42FA5
:10184000FFEA853CF0A42FFFE583853DF0A42FFF40
:10185000E582853EF0A42F8EF08D838C8222AA82B1
:10186000AB83ACF0751D00751E00C2188A058B068F
:101870008C078D828E838FF01217D4F8B8200280E7
:1018800003B809070DBD00EA0E80E78D028E038FB5
:1018900004B82D0DD21674012DFAE43EFB8F04809E
:1018A0000EC216B82B0974012DFAE43EFB8F0475A5
:1018B0001900751A00751B00751C008A058B068CB3
:1018C000078D828E838FF01217D4F8F9B93000405B
:1018D00005E824C650128D828E838FF01217D4F83B
:1018E000B82E0280030219938D828E838FF0121717
:1018F000D4F9B92E05D21802198BC005C006C0074D
:10190000C005C006C007C001C019C01AC01BC01C5A
:1019100090000075F020744112054385821985837B
:101920001A85F01BF51CE58124FCF581D001D00758
:10193000D006D005E93395E0FDE924D0F582ED34F9
:10194000FFF583121C3DAD82AE83AFF0F9C005C038
:1019500006C007C005C006C007C001851982851AE8
:1019600083851BF0E51C121BE485821985831A858B
:10197000F01BF51CE58124FCF581D007D006D005CD
:10198000D007D006D005301802151D0DBD00010E80
:101990000218C15300DF8D828E838FF0E8121A8403
:1019A000B8456274012DFAE43EFB8F048A828B8372
:1019B0008CF01217D4FDBD2D09D2170ABA000D0BF9
:1019C000800AC217BD2B050ABA00010B751E008ADA
:1019D000828B838CF01217D4FDFEBE3000401D8D2B
:1019E00006EE24C64016E51E75F00AA4F51EED2489
:1019F000D0251EF51E0ABA00D60B80D3301706C3B9
:101A0000E4951EF51EE51D251EF51EE51E6055E537
:101A10001E30E728C019C01AC01BC01C90CCCD7561
:101A2000F0CC743D12054385821985831A85F01B1D
:101A3000F51CE58124FCF581051E80CFC019C01A74
:101A4000C01BC01C90000075F02074411205438536
:101A5000821985831A85F01BF51CE58124FCF5812C
:101A6000151E80A730160F851919851A1A851B1B9C
:101A7000E51CB2E7F51C851982851A83851BF0E504
:101A80001C22E47320F71030F6118883A88220F519
:101A900007F6A88375830022F280F7F022C0E0F8F1
:101AA0004582458345F07009F5F0FBFCFDFE021B05
:101AB0006BE823A2F792E0F8A982AA83D2F7ABF0F1
:101AC0007C007E07C3749798404074FF2EFE740A12
:101AD00089F0A4F985F082740A8AF0A4FA85F0836B
:101AE000740A8BF0A4FB740529F9EA3582FAEB3508
:101AF00083FB740035F0FCC3EC13FCEB13FBEA131F
:101B0000FAE913F908EC70EF80BAE8C3947FF88B18
:101B1000838EF0E4FBFCFDFEFF08C3E933F9EA33F2
:101B2000FAE58333F583EB3BD4FBEC3CD4FCED3D91
:101B3000D4FDEE3ED4FEEF3FD4FF602D05F07405DA
:101B40002BD4FBE43CD4FCE43DD4FDE43ED4FEE4E1
:101B50003FD4FF758204C3EF13FFEE13FEED13FDB8
:101B6000EC13FCEB13FBD582EDD8AF783FD0E0202F
:101B7000E704762B8002762D087906E7C4540F44DB
:101B800030F608B90603762E08E7540F4430F608FD
:101B900019B902E7764508E5F020E704762B8004C2
:101BA000762DF4040875F00A844430F608E5F04414
:101BB00030F608E4F690003F75F04022AA82AB832D
:101BC000ACF07D007E008A828B838CF01217D4FFEC
:101BD000A3AA82AB83EF60070DBD00EA0E80E78DFC
:101BE000828E8322120E1A7900E583B58202800D5F
:101BF0005003121C4AE583C39582121C64E5D0C4CD
:101C000065D020E117EA2DFAEB3EFBEC3FFC5009D2
:101C10007401121C64EC4480FC020D98C3EA9DFA26
:101C2000EB9EFBEC9FFC500FC3E499F9E49AFAE4B5
:101C30009BFBE49CFCB2D1120DE7020D98AC83AB88
:101C4000827A007900748E021CB0E582C583F58229
:101C5000A2D133A2D592D11392D5ECCFFCEBCEFB1F
:101C6000EACDFA226040F82582500274FFF582E83E
:101C700024F8501ECCCBCAF9E4CC24F85014CBCABB
:101C8000F9E4CB24F8500BCAF9E4CA24F8500379DC
:101C9000002224086010F8C3EC13FCEB13FBEA13DA
:101CA000FAE913F9D8F122FCABF0AA83A982749E59
:101CB000F582C2D1EC30E716D2D1E9F42401F9EA79
:101CC000F43400FAEBF43400FBECF43400FC120DB5
:101CD000E7020D9800000000000000000000000076
:00000001FF
