:1000000002002E636861723A2025630D003C4E4F5A
:1000100020464C4F41543E0000000000000000000C
:100020000000000000000000000000020394758141
:100030005112020EE582600302009A780079007A7C
:10004000007B007C007D00EC4D601C88828983E48D
:1000500093A3A882A9838A828B83F0A3AA82AB830D
:100060001CBCFFE31D80E07582007583007C007D71
:1000700000EC4D600AE4F0A31CBCFFF51D80F27596
:1000800082007583007C007D00EC4D600AE4F0A3E3
:100090001CBCFFF51D80F212009F1204DD80FE756E
:1000A0002200E4F524F525E4F526F527E4F528F506
:1000B00029E4F52AF52BE4F52CF52DE4F52EF52FA2
:1000C00022AA82AB83ACF0FD75E50C75D2108A488C
:1000D0008B498C4A8D4B906C0075F0DC74021209D0
:1000E0002CAA82AB83ACF0C313F533EC13F532EBDF
:1000F00013F531EA13F5307548FF7549FF754A006D
:10010000754B008530828531838532F0E5331209E5
:100110002CAE82AF83A8F0F9C3EE9401EF9400E80F
:100120009400E99400501CE4C39530FAE49531FB47
:1001300074019532FCE49533FD8AB48BB543AC036E
:10014000020207C3EE9404EF9400E89400E99400DF
:100150005039E533C313FDE53213FCE53113FBE5FC
:100160003013FAEDC313FDEC13FCEB13FBEA13FAA7
:10017000E4C39AFAE49BFB74019CFCE49DFD8AB401
:100180008BB553ACFC43AC01020207C3EE940CEFF9
:100190009400E89400E99400503675480CE4F54961
:1001A000F54AF54B8530828531838532F0E533128F
:1001B000092CAA82AB83ACF0FDE4C39AFAE49BFB62
:1001C00074019CFCE49DFD8AB48BB553ACFC803774
:1001D000754830E4F549F54AF54B85308285318321
:1001E0008532F0E53312092CAA82AB83ACF0FDE432
:1001F000C39AFAE49BFB74019CFCE49DFD8AB48BDA
:10020000B553ACFC43AC0243D20243AC402253D9B9
:10021000BF75FF8075EF0643A90343B2037598527B
:10022000900064E4F5F01200C1758D30538EF443F4
:100230008E08858D8B53890F438920D28ED29943A6
:10024000A40143A60675E10575E24075E30175C892
:1002500000438E1075CA7875CBEC75CCFF75CDFF59
:10026000D2ADD2CAD2AF75820022AA82438E407527
:1002700092D07593FF8592948593957591047B0038
:10028000C3EB9A500BE59130E7FB53917F0B80F065
:1002900075910022AA82AB83BA0004BB00012275CB
:1002A00082F9C002C00312026A7582F912026A75ED
:1002B00082F912026A7582FA12026AD003D0021A17
:1002C000BAFF011B80D275BCF875E88075D1082291
:1002D000AA828548F005F07401800225E0D5F0FB84
:1002E000FBEA24FC4033EA2A2A9002ED730202F969
:1002F000020301020309020311EBF452F1EB42D4B1
:1003000022EBF452F2EB42D522EBF452F3EB42D65D
:1003100022EBF4FA52F4EB42DF228582BB75BA1F5E
:10032000D2EC20ECFDD2EC20ECFDAABD7B00ADBEF2
:100330007C00EC2AF582ED3BF5832212031A1209A8
:1003400091AA82AB83ACF0FDC002C003C004C0051B
:1003500090333375F05374401209FDAA82AB83AC1D
:10036000F0FDE58124FCF581E4C0E0C0E07480C0CC
:10037000E07444C0E08A828B838CF0ED120AD6AA26
:1003800082AB83ACF0FDE58124FCF5818A828B830E
:100390008CF0ED22C0E0C082C083C002C003C0D098
:1003A00075D000C2CF0522E522249B5003752200A0
:1003B000E52C452D6003020484AA2EAB2FC37406DE
:1003C0009AE49B5003020484EA2A2A9003CF730222
:1003D00003E40203F802041002042802043F0204AA
:1003E0005702046FE4F524F525F526F527F528F5E1
:1003F00029F52AF52B020484E4F524F525752664F5
:10040000E4F527E4F528F529752A64E4F52B8074D2
:10041000752464E4F525E4F526F527752864E4F5EC
:1004200029E4F52AF52B805C752464E4F525E4F5D0
:1004300026F527F528F529752A32E4F52B8045E4C1
:10044000F524F525752632E4F527752864E4F529A9
:10045000E4F52AF52B802DE4F524F525752664E4D2
:10046000F527752832E4F529E4F52AF52B80157572
:100470002432E4F525E4F526F527F528F529752A33
:1004800064E4F52BAA227B00C3E5249AE5259B9220
:1004900000B39296AA227B00C3E5269AE5279B9299
:1004A00000B39297AA227B00C3E5289AE5299B9284
:1004B00000B392A4AA227B00C3E52A9AE52B9B9263
:1004C00000B392A5D0D0D003D002D083D082D0E0A8
:1004D00032E5D230E0FB53D2FE85D3822275400054
:1004E00075410075420075430075440075450075FF
:1004F00046007547007548017582021202D07548A2
:10050000027582021202D07548077582021202D06B
:100510001202C675820F12033BAA82AB83ACF0FDB8
:10052000E4C0E0C0E07420C0E07440C0E08A828B88
:10053000838CF0ED12099DAA82E58124FCF581EA05
:100540007003020865E4F52CF52DE4F524F525F596
:1005500026F527F528F529F52AF52B75440075456C
:1005600000754600754700754000754100754200F2
:100570007543007A007B00C3EA941EEB648094808C
:10058000505D75820BC002C00312033BAC82AD8389
:10059000AEF0FF8C348D358E368F37C044C045C0E9
:1005A00046C0478534828535838536F0E5371209A4
:1005B0009DAC82E58124FCF581D003D002EC600C77
:1005C00085344485354585364685374785443485A9
:1005D00045358546368547370ABA009B0B80987AA1
:1005E000007B00C3EA941EEB64809480505D7582AA
:1005F00008C002C00312033BAC82AD83AEF0FF8C97
:10060000388D398E3A8F3BC040C041C042C04385CF
:100610003882853983853AF0E53B12099DAC82E545
:100620008124FCF581D003D002EC600C8538408534
:100630003941853A42853B43854038854139854279
:100640003A85433B0ABA009B0B80987466C0E0C0B1
:10065000E0C0E0743FC0E08534828535838536F0A4
:10066000E53712099DAA82E58124FCF581EA602E16
:100670007466C0E0C0E0C0E0743FC0E085388285A9
:100680003983853AF0E53B12099DAA82E58124FC75
:10069000F581EA6009752E02E4F52F02085C749A70
:1006A000C0E07499C0E07419C0E0743FC0E08534C4
:1006B000828535838536F0E5371209CDAA82E5813A
:1006C00024FCF581EA700302074A749AC0E0749929
:1006D000C0E07419C0E0743FC0E08538828539837A
:1006E000853AF0E53B1209CDAA82E58124FCF5812B
:1006F000EA605774CDC0E074CCC0E0C0E0743DC087
:10070000E08534828535838536F0E53712099DAA68
:1007100082E58124FCF581EA603074CDC0E074CCC0
:10072000C0E0C0E0743DC0E0853882853983853AF9
:10073000F0E53B12099DAA82E58124FCF581EA607F
:1007400009752E01E4F52F02085C74CDC0E074CC6D
:10075000C0E0C0E0743DC0E0853882853983853AC9
:10076000F0E53B12099DAA82E58124FCF581EA703F
:100770002E74CDC0E074CCC0E0C0E0743DC0E08514
:1007800034828535838536F0E53712099DAA82E5E6
:100790008124FCF581EA7007F52EF52F02085C74C0
:1007A0009AC0E07499C0E07419C0E0743FC0E0855D
:1007B00034828535838536F0E5371209CDAA82E586
:1007C0008124FCF581EA6009752E03E4F52F020807
:1007D0005C749AC0E07499C0E07419C0E0743FC0C2
:1007E000E0853882853983853AF0E53B1209CDAA48
:1007F00082E58124FCF581EA6008752E04E4F52F7A
:10080000805AE4C0E0C0E07480C0E0743FC0E0857E
:1008100034828535838536F0E53712099DAA82E555
:100820008124FCF581EA6008752E05E4F52F802C03
:10083000E4C0E0C0E07480C0E0743FC0E08538826E
:10084000853983853AF0E53B12099DAA82E581242A
:10085000FCF581EA6006752E06E4F52F900004127F
:10086000029402054A752C01E4F52DE4F524F525E2
:10087000F526F527F528F529F52AF52B43D201129F
:1008800004D1E582FAFB3395E0FCC002C003C0044A
:100890007403C0E07400C0E07480C0E0120AB5E5E3
:1008A0008124FBF581D002BA4618E4F524F52575BC
:1008B0002664E4F527E4F528F529752A64E4F52B88
:1008C0008061BA4218752464E4F525E4F526F5271D
:1008D000752864E4F529E4F52AF52B8046BA521808
:1008E000E4F524F525752664E4F527752832E4F54A
:1008F00029E4F52AF52B802BBA4C17752432E4F540
:1009000025E4F526F527F528F529752A64E4F52B65
:100910008011E4F524F525F526F527F528F529F5C8
:100920002AF52B90000512029402086BFB7A20E452
:10093000FCFDFEFFE5822582F582E58333F583E544
:10094000F033F5F0EB33FB4017DAE98042E582251E
:1009500082F582E58333F583E5F033F5F0EB33FB85
:10096000EC33FCED33FDEE33FEEF33FFEC9548ED59
:100970009549EE954AEF954B4013EC9548FCED9563
:1009800049FDEE954AFEEF954BFF438201DABEEB3F
:1009900022E4AC83AB82FAF9748E020BFEFFA881CD
:1009A0001818120C26D2D133E6400730E70B7582B7
:1009B000012220E70675820022C2D1120C08E970DC
:1009C00003F5822230D101B3E433F58222FFA881FE
:1009D0001818120C26D2D133E6400730E70B758287
:1009E000002220E70675820122C2D1120C08E970AC
:1009F00003F5822220D101B3E433F58222120CD315
:100A0000BC0003020C72EF60FA30D502B2D1E5836C
:100A1000B4FF03020C88E582B4FF03020C8825832F
:100A200040072482400B020C722483145003020CF2
:100A300088F582EA8DF0A4A8F0EA8EF0A428F8E404
:100A400035F0F9EB8DF0A428E935F0F9E433CA8FDD
:100A5000F0A429F9EA35F0FAEBF88EF0A429F9EAC6
:100A600035F0FAE433FBEC8DF0A429F9EA35F0FA1D
:100A7000E43BFBE88FF0A42AFAEB35F0FBE433CC3F
:100A8000FD8EF0A42AFAEB35F0FBE43CFCED8FF090
:100A9000A42BFBEC35F0FC20E703120CA0020C5158
:100AA00002132185821885831985F01A85091B9008
:100AB0000AA0020D8AC008858108E50824FBF51B01
:100AC000E50824FBF8861808861908861A900AA0FB
:100AD000120D8AD00822120CD330D502B2D1BF0039
:100AE00009BC0003020C95020C88BC0003020C72C6
:100AF000E583B4FF0BE582B4FF03020C95020C7290
:100B0000E582B4FF03020C88C395835007247F401D
:100B10000B020C722480145003020C88C0E0E4CC59
:100B2000CBCAF98D488E498F4AEF54F0C4F54B7506
:100B30008306854BF0EB84F582E9C4F9EAC4FAEB4D
:100B4000C4FBEC540FC47803D6FC18EBD6FB18EAB0
:100B5000D6FA8582F0EDA4A8F0FD8582F0EEA428F7
:100B6000FEE435F0F88582F0EFA428FFE435F0F8D4
:100B7000E99DF9EA9EFAEB9FFBEC98FCAD48AE4983
:100B8000AF4A30E7101582E92DF9EA3EFAEB3FFB58
:100B9000E43CFC80EDC082D58398C3E933F9EA33A5
:100BA000FAEB33FBEC33FCC3E99DEA9EEB9FEC943C
:100BB00000B3E413F9D002D0E0C44AFAD003D0E085
:100BC000C44BFBD004D0E0F5F0540FC44CFCD082F1
:100BD000158230F40FD3EC13FCEB13FBEA13FAE9A4
:100BE00013F90582E930E70A74012AFAE43BFBE4D1
:100BF0003CFC020C69FCABF0AA83A982749EC2D1B2
:100C0000F582120CA0020C517901AA82E68F82B5FE
:100C1000821318E6B5F00E18E6B5830918E68A8245
:100C2000B58202790022B4800FE5F0700AE5837086
:100C300006E58270027F00EFB6801518B600101826
:100C4000B6000B18B6000608080876002208080847
:100C500022B98003EA13B34010EA2401FAE43BFB13
:100C6000E43CFC50047C800582BC000EBB000BBA47
:100C70000008E4F5F0F583F58222A2D1E582138C19
:100C8000F092F78B838A8222E4F583F58275F080F7
:100C9000F4A2D11322E4F583F58275F0C0747F22AB
:100CA0007804EC7011E58224F8500AF582E4C9CA90
:100CB000CBFCD8EF22EC7820058220E713D5820107
:100CC00022C3E933F9EA33FAEB33FBEC33FCD8EA1D
:100CD000158222AA82AB83A2F73392D16002D2F7A7
:100CE000F582ACF0E58124F9F8E6FD08E6FE088619
:100CF000F008E6A2F73392D56002D2F7F583AFF0A1
:100D000022AA827412C0E0740DC0E0C00AC00B8A2F
:100D100082220511E4B51102051222AA8274302A3A
:100D2000FA24C6500A74072AFA3001034302208AC3
:100D300082020D01E582FAC4540FF582C002120D41
:100D40001BD002740F5AF582020D1BAA0CAB0DAC1E
:100D50000EAD0FAE10751720EE2EFEED235401FFE1
:100D60004206EA2AFAEB33FBEC33FCED33FDC3EE2B
:100D700095134008EEC39513FE430201D517D98A97
:100D80000C8B0D8C0E8D0F8E102285820A85830BA5
:100D9000E4F511F512AA18AB19AC1A8A828B838C70
:100DA000F0121336FD74012AF518E43BF5198C1A7C
:100DB000EDFA700302131ABA25028003021312C25D
:100DC00005C206C207C208C209C20AC20BC20CC2CF
:100DD00002C203C2047513007514007515FFAB1829
:100DE000AC19AD1A8B828C838DF0121336FAA3AB3B
:100DF00082AC838B188C198D1ABA25078A82120D42
:100E00000180928A06BE3000402E8A06EE24C6403B
:100E10002774FFB51513E51475F00AA4FEEA24D073
:100E20002EF51470BFD20680BBE51575F00AA4FE3E
:100E3000EA24D02EF51580ACBA2E0A74FFB515A49D
:100E4000751500809F8A06BE6100400E8A06EE245A
:100E50008540075302DFD2018002C201BA2002801E
:100E600075BA2303020EE5BA2A03020EEABA2B0270
:100E7000805FBA2D028055BA4202805FBA430302F6
:100E80000F2FBA440302106ABA4503021084BA460F
:100E900003021080BA4703021088BA490302106A9D
:100EA000BA4C02803BBA4E0302108CBA4F030210B8
:100EB00071BA5003021003BA5303020F53BA550319
:100EC000021076BA580302107B0210B6D205020D4A
:100ED000E4D207020DE4D208020DE4D20A020DE4C6
:100EE000D20B020DE4D20C020DE474FFB5152030D4
:100EF0000A0BE51B14F8881B8614020DE4E51B247D
:100F0000FEF8881B8606088607188E14020DE4304A
:100F10000A0BE51B14F8881B8615020DE4E51B245B
:100F2000FEF8881B8606088607188E15020DE43029
:100F30000A0AE51B14F8881B8602800FE51B24FEB5
:100F4000F8881B8603088604188B028A82120D011A
:100F50000210BBE51B24FDF8881B860308860408E5
:100F6000860518188B0C8C0D8D0E8B828C838DF062
:100F700012136BAB82AC838B1674FFB51503851609
:100F80001520051DC3E51695145016E514C39516D6
:100F9000F514AB141514EB6008758220120D018056
:100FA000F1850C82850D83850EF0121336FBFA60F5
:100FB00029AB151515C3E464808BF063F08095F0C0
:100FC00050188A82120D01AB0CAC0DAD0E0BBB009C
:100FD000010C8B0C8C0D8D0E80C72005030210BBFD
:100FE000C3E516951440030210BBE514C39516F52E
:100FF00014AB141514EB70030210BB758220120D94
:101000000180EEE51B24FDF8881B86030886040892
:10101000860518188B0C8C0D8D0EE50EFB30E70441
:101020007A438013EB546060047A50800AEB30E618
:10103000047A4980027A588A82C002120D017582B0
:101040003A120D01758230120D01758278120D0170
:10105000D002BA4902800BBA50028006850D821276
:101060000D34850C82120D348051D20975130A801B
:101070004A751308804575130A8040751310803B2C
:10108000D2028037D2038033D204802FE51B24FDA7
:10109000F8881B860308860408860518188B0C8CB4
:1010A0000D8D0E8B828C838DF0E511121352A3E50A
:1010B0001212135280058A82120D012002062003AB
:1010C0000330045AE51B24FCF8881B8603088604B9
:1010D0000886050886061818188B0C8C0D8D0E8E48
:1010E0000F750C0D750D00750E80850C1C850D1D82
:1010F000850E1E7401251CFEE4351DFFAB1E8E0CF3
:101100008F0D8B0E851C82851D83851EF012133674
:10111000FBFA7003020D958A82120D0180CCE51353
:101120007003020D957B51300A2BE51B14F8881BC8
:10113000E6FC3395E0FDFEFF8C0C8D0D8E0E8F0FBF
:1011400020095EAC0C7D007E007F008C0C8D0D8E26
:101150000E8F0F804C300B1FE51B24FCF8881B867C
:10116000040886050886060886071818188C0C8D52
:101170000D8E0E8F0F802AE51B24FEF8881B860437
:1011800008860518ED3395E0FEFF8C0C8D0D8E0E54
:101190008F0F20090CAC0CAD0D7E007F008E0E8FE2
:1011A0000F300C43E50C450D450E450F60397408B2
:1011B000B5130C758230C003120D01D00380287462
:1011C00010B51323758230C003120D01D003300116
:1011D0000C758278C003120D01D003800A75825805
:1011E000C003120D01D003300925AC0CAD0DAE0EBD
:1011F000E50FFF30E717C3E49CFCE49DFDE49EFE91
:10120000E49FFF8C0C8D0D8E0E8F0F8002C209752E
:101210001600D20D8B00751000C000120D4BD000CF
:10122000200D0DE510C4FCE6FD4CF6188803800285
:10123000A6100516B20DE50C450D450E450F70D6EE
:101240008803E514700375140120061A200517E5BC
:101250001604FCC39514500E758220C003120D01B4
:10126000D003151480E930090E75822DC003120DCC
:1012700001D00315148024E516602030070E758216
:101280002BC003120D01D0031514800F30080C750C
:101290008220C003120D01D003151420051EAC14CA
:1012A0001514C3E5169C50273006047C3080027C60
:1012B000208C82C003120D01D00380E2C3E5169595
:1012C000145009E514C39516F51480037514008BAA
:1012D00000AB161516EB6022B20D200D0A08E6C40D
:1012E000540FFB8B1080078603740F5BF51085107D
:1012F00082C000120D1BD00080D7200503020D957F
:10130000AB141514EB7003020D95758220120D01BC
:1013100080EE8A82120D01020D958511828512835D
:1013200022AA82BA0A0810990280FB75990D1099B9
:101330000280FB8A992220F71430F6148883A88251
:1013400020F507E6A88375830022E280F7E4932264
:10135000E02220F71030F6118883A88220F507F6E6
:10136000A88375830022F280F7F022AA82AB83ACB7
:10137000F07D007E008A828B838CF0121336FFA3EF
:10138000AA82AB83EF60070DBD00EA0E80E78D8275
:101390008E8322000000000000000000000000001A
:00000001FF
