:1000000002000375816A120144E582600302006FF9
:10001000780079007A007B007C007D00EC4D601C4C
:1000200088828983E493A3A882A9838A828B83F040
:10003000A3AA82AB831CBCFFE31D80E07582007520
:1000400083007C007D00EC4D600AE4F0A31CBCFF43
:10005000F51D80F27582007583007C007D00EC4DFB
:10006000600AE4F0A31CBCFFF51D80F21200E3124D
:1000700002DD80FE1B5B324A000D0A5573696E6714
:100080002041444320776974682061726269747208
:100090006172792070696E732E0D0A005220524DE4
:1000A0005320563D25332E3366206D562C20542088
:1000B000524D5320563D25332E3366206D562C204D
:1000C000503D25332E336620646567726565732C59
:1000D00020463D25332E3366206B487A2020202091
:1000E000200D00752200752300752400752500750C
:1000F0002600752700752800752900752A00752BC4
:1001000000752C00752D00752E00752F00753000C0
:100110007531007532007533007534007535007522
:100120003600753700753800753900753A00753B33
:1001300000753C00753D00753E00753F0075400040
:100140007541002253D9BF75FF8075EF0643A9039F
:1001500043B203759810758D30538EF4438E088525
:100160008D8B53890F438920D28ED29943A4017578
:10017000E10175E2407582002243A41075E101752A
:10018000E25075E3002243A90343B20375EF042252
:10019000759810758D30538EF4438E08858D8B5372
:1001A000890F438920D28ED299225389F043890145
:1001B000C28C22AA82438E407592D07593FF85929D
:1001C000948593957591047B00C3EB9A500BE59150
:1001D00030E7FB53917F0B80F075910022AA82AB30
:1001E00083BA0004BB0001227582F9C002C0031269
:1001F00001B37582F91201B37582F91201B37582E8
:10020000FA1201B3D003D0021ABAFF011B80D275D3
:10021000BCF875E88075D10822AA82851CF005F02B
:100220007401800225E0D5F0FBFBEA24FC4033EAB0
:100230002A2A9002367302024202024A0202520243
:10024000025AEBF452F1EB42D422EBF452F2EB42BD
:10025000D522EBF452F3EB42D622EBF4FA52F4EB54
:1002600042DF228582BB75BA1FD2EC20ECFDD2ECB6
:1002700020ECFDAABD7B00ADBE7C00EC2AF582ED32
:100280003BF583221202631206ADAA82AB83ACF067
:10029000FDC002C003C004C00590333375F0537431
:1002A000401206B9AA82AB83ACF0FDE58124FCF5CF
:1002B00081E4C0E0C0E07480C0E07444C0E08A82A1
:1002C0008B838CF0ED12080EAA82AB83ACF0FDE5B7
:1002D0008124FCF5818A828B838CF0ED22120179D6
:1002E0001201861201901201AA7474C0E07400C059
:1002F000E07480C0E01207D51581158115817479ED
:10030000C0E07400C0E07480C0E01207D51581150C
:10031000811581751C01758202120219751C027506
:10032000820212021912020F53D9BF758A00758C0E
:1003300000C28D75420020A3FD30A3FDD28C30A3F6
:1003400009108D0280F8054280F420A309108D0267
:1003500080F8054280F4C28C85428212075CAA8232
:10036000AB83ACF0FDC002C003C004C00590000028
:1003700075F08074471206B985825385835485F0E1
:1003800055F556E58124FCF581858C8212075CAE1B
:1003900082AF83AAF0FBC006C007C002C003900072
:1003A0000075F08074431206B9AA82AB83ACF0FDED
:1003B000E58124FCF581C002C003C004C00585535B
:1003C000828554838555F0E55612076785825385EB
:1003D000835485F055F556E58124FCF581AE8A7F7E
:1003E000008E828F83120801AE82AF83AAF0FBC019
:1003F00006C007C002C0038553828554838555F02B
:10040000E556120767AA82AB83ACF0FDE58124FCB8
:10041000F581C002C003C004C00590126F75F0835F
:1004200074391206B985822685832785F028F52937
:10043000E58124FCF58120A3FD30A3FD758A0075BC
:100440008C00C28DD28CE4C0E0C0E07480C0E07447
:1004500040C0E08526828527838528F0E52912089B
:100460000EAA82AB83ACF0FDE58124FCF581C002CD
:10047000C003C004C00590000075F07A74441206F1
:10048000B9AA82AB83ACF0FDE58124FCF5818A82B8
:100490008B838CF0ED1207F61201DDC28C75820A97
:1004A000120284AA82AB83ACF0FD8A438B448C4554
:1004B0008D467481C0E07404C0E074B5C0E0743F40
:1004C000C0E08543828544838545F0E54612080EE9
:1004D000AA82AB83ACF0FDE58124FCF581C002C0AB
:1004E00003C004C00590000075F07A74441206B988
:1004F00085823685833785F038F539E58124FCF52A
:100500008120A0FD30A0FD758A00758C00C28DD2BF
:100510008CE4C0E0C0E07480C0E07440C0E0852698
:10052000828527838528F0E52912080EAA82AB83ED
:10053000ACF0FDE58124FCF581C002C003C004C01D
:100540000590000075F07A74441206B9AA82AB8354
:10055000ACF0FDE58124FCF5818A828B838CF0ED83
:100560001207F61201DDC28C758209120284AA827A
:10057000AB83ACF0FD8A478B488C498D4A7481C0AF
:10058000E07404C0E074B5C0E0743FC0E085478209
:100590008548838549F0E54A12080EAA82AB83ACF0
:1005A000F0FDE58124FCF581C002C003C004C00554
:1005B00090000075F07A74441206B985823A8583FA
:1005C0003B85F03CF53DE58124FCF58120A3FD3021
:1005D000A3FD758A00758C00C28DD28C30A0FDC23F
:1005E0008CC026C027C028C02990000075F08074F8
:1005F0003F12080E85823285833385F034F535E568
:100600008124FCF581C032C033C034C03590BE6255
:1006100075F0BC74381206B985825785835885F009
:1006200059F55AE58124FCF581AE8C8E5475530042
:10063000AE8A7F00EE2553F582EF3554F58312081C
:1006400001AE82AF83AAF0FBC006C007C002C003A0
:100650008557828558838559F0E55A1206B98582F7
:100660003E85833F85F040F541E58124FCF581C05E
:1006700032C033C034C035C03EC03FC040C041C0AE
:100680003AC03BC03CC03DC036C037C038C03974EA
:100690009CC0E07400C0E07480C0E01207D5E58122
:1006A00024EDF5819000641201DD020328E4AC839F
:1006B000AB82FAF9748E0209361209C2BC00030239
:1006C0000961EF60FA30D502B2D1E583B4FF0302CD
:1006D0000977E582B4FF0302097725834007248266
:1006E000400B0209612483145003020977F582EA62
:1006F0008DF0A4A8F0EA8EF0A428F8E435F0F9EB28
:100700008DF0A428E935F0F9E433CA8FF0A429F973
:10071000EA35F0FAEBF88EF0A429F9EA35F0FAE4BC
:1007200033FBEC8DF0A429F9EA35F0FAE43BFBE861
:100730008FF0A42AFAEB35F0FBE433CCFD8EF0A465
:100740002AFAEB35F0FBE43CFCED8FF0A42BFBEC3C
:1007500035F0FC20E70312098F020940E4AC82FB6C
:10076000FAF974860209361209C27900E583B58266
:1007700002800D50031209F0E583C39582120A0A24
:10078000E5D0C465D020E117EA2DFAEB3EFBEC3F43
:10079000FC50097401120A0AEC4480FC020940C3AF
:1007A000EA9DFAEB9EFBEC9FFC500FC3E499F9E441
:1007B0009AFAE49BFBE49CFCB2D112098F02094037
:1007C0000213D985821885831985F01A85091B9033
:1007D00007C0020E2CC008858108E50824FBF51B24
:1007E000E50824FBF8861808861908861A9007C0C1
:1007F000120E2CD008227F8E1213F0F58385F08222
:1008000022AC83AB827A007900748E02141E120926
:10081000C230D502B2D1BF0009BC00030209840274
:100820000977BC0003020961E583B4FF0BE582B4DC
:10083000FF03020984020961E582B4FF030209771C
:10084000C395835007247F400B0209612480145014
:1008500003020977C0E0E4CCCBCAF98D1C8E1D8F52
:100860001EEF54F0C4F51F758306851FF0EB84F569
:1008700082E9C4F9EAC4FAEBC4FBEC540FC4780370
:10088000D6FC18EBD6FB18EAD6FA8582F0EDA4A8C0
:10089000F0FD8582F0EEA428FEE435F0F88582F0C4
:1008A000EFA428FFE435F0F8E99DF9EA9EFAEB9F02
:1008B000FBEC98FCAD1CAE1DAF1E30E7101582E9B5
:1008C0002DF9EA3EFAEB3FFBE43CFC80EDC082D51B
:1008D0008398C3E933F9EA33FAEB33FBEC33FCC317
:1008E000E99DEA9EEB9FEC9400B3E413F9D002D0AB
:1008F000E0C44AFAD003D0E0C44BFBD004D0E0F50A
:10090000F0540FC44CFCD082158230F40FD3EC139A
:10091000FCEB13FBEA13FAE913F90582E930E70A65
:1009200074012AFAE43BFBE43CFC020958FCABF0FE
:10093000AA83A982749EC2D1F58212098F0209404E
:10094000B98003EA13B34010EA2401FAE43BFBE464
:100950003CFC50047C800582BC000EBB000BBA003E
:1009600008E4F5F0F583F58222A2D1E582138CF03C
:1009700092F78B838A8222E4F583F58275F080F406
:10098000A2D11322E4F583F58275F0C0747F22783A
:1009900004EC7011E58224F8500AF582E4C9CACB50
:1009A000FCD8EF22EC7820058220E713D5820122C3
:1009B000C3E933F9EA33FAEB33FBEC33FCD8EA153D
:1009C0008222AA82AB83A2F73392D16002D2F7F5DA
:1009D00082ACF0E58124F9F8E6FD08E6FE0886F031
:1009E00008E6A2F73392D56002D2F7F583AFF02282
:1009F000E582C583F582A2D133A2D592D11392D5D7
:100A0000ECCFFCEBCEFBEACDFA226040F825825019
:100A10000274FFF582E824F8501ECCCBCAF9E4CC6E
:100A200024F85014CBCAF9E4CB24F8500BCAF9E4EB
:100A3000CA24F8500379002224086010F8C3EC138C
:100A4000FCEB13FBEA13FAE913F9D8F122AA82743A
:100A50005EC0E0740AC0E0C00AC00B8A82220511A1
:100A6000E4B51102051222AA8274302AFA24C65073
:100A70000A74072AFA3000034302208A82020A4DD0
:100A8000E582FAC4540FF582C002120A67D00274DC
:100A90000F5AF582020A67AA0CAB0DAC0EAD0FAE71
:100AA00010751720EE2EFEED235401FF4206EA2AB0
:100AB000FAEB33FBEC33FCED33FDC3EE951340084A
:100AC000EEC39513FE430201D517D98A0C8B0D8C0A
:100AD0000E8D0F8E10227867E624D075F00AA4FAE6
:100AE0007868E624D02AFA78668603BB2D04C3E42E
:100AF0009AFA751301C3E464808AF063F08095F07C
:100B000050297517038A0374F62517401C0513E551
:100B10001714245BF8E517245BF98704A604772EE5
:100B20001BEBFA6004051780DE8B02EA30E70D78D4
:100B30005C8603785DA603785C762E0AE515600A6C
:100B4000E51504FB2513F5138005300B020513781A
:100B50005B8603E4BB2D0104FB700620060330070F
:100B6000020513300403020C1D300557EB600C75B1
:100B7000822DC002120A4DD002801C30060C7582F4
:100B80002BC002120A4DD002800D30070A75822058
:100B9000C002120A4DD002785C8604BC2E0C75820D
:100BA00030C002120A4DD0021514AC141514C3E55E
:100BB000139C4003020C61758230C002120A4DD0B2
:100BC0000280E7AC141514C3E5139C500C75822009
:100BD000C002120A4DD00280EA785B8604BC2D0C5C
:100BE00075822DC002120A4DD002801C30060C7591
:100BF000822BC002120A4DD002800D30070A758286
:100C000020C002120A4DD002785C8604BC2E5275B8
:100C10008230C002120A4DD00215148044EB600EDF
:100C200075822DC002120A4DD002151480203006A4
:100C30000E75822BC002120A4DD0021514800F309F
:100C4000070C758220C002120A4DD0021514785C80
:100C50008603BB2E0C758230C002120A4DD00215DD
:100C600014751701C20DE517245BF88603BB450315
:100C7000020D1EBB2E348A03C3E464808BF063F044
:100C80008095F0500F758230C003120A4DD0031BBF
:100C90008B0280E48B02D20DE5157038200B030225
:100CA0000D1E75822E120A4D8074300D278A03EBBB
:100CB00030E71FC3E464808515F063F08095F05041
:100CC0000C758230C003120A4DD00315150B8B0230
:100CD00080DD8B02300D0EC3E464808515F063F077
:100CE0008095F05021E517245BF886038B82C002C3
:100CF000120A4DD002300D0EE517245BF88603BBB7
:100D00002E02800215151514C3E464808515F06366
:100D1000F08095F04003200D050517020C66C3E432
:100D200064808515F063F08095F0500A758230126A
:100D30000A4D151580E830040FAA141514EA60084E
:100D4000758220120A4D80F122E5157003300B0DDB
:100D500074072515FAE514C39AF5148006E51424E2
:100D6000FAF514751700785B8602BA2B0F20060C73
:100D7000785B76202007057517010514200419AA51
:100D800014C3E464808AF063F08095F0500A7582A1
:100D900020120A4D151480E7C20DE517245BF88672
:100DA00002BA00028069BA451F3000027665C3E4CA
:100DB00064808515F063F08095F0500A75823012DA
:100DC0000A4D151580E8D20DC3E5179402E433FAF5
:100DD0007014EA700EC3E464808515F063F08095AA
:100DE000F04003300D16E517245BF886028A821264
:100DF0000A4DE51724FD50121515800E7402B51723
:100E000009300B0675822E120A4D0517020D9A3015
:100E10000419AA14C3E464808AF063F08095F0504A
:100E20000A758220120A4D151480E72285820A85F0
:100E3000830BE4F511F512AA18AB19AC1A8A828B50
:100E4000838CF0121442FD74012AF518E43BF51965
:100E50008C1AEDFA70030213D2BA25028003021332
:100E6000CAC204C205C206C207C208C209C20AC277
:100E70000BC201C202C2037513007514007515FF81
:100E8000AB18AC19AD1A8B828C838DF0121442FA18
:100E9000A3AB82AC838B188C198D1ABA25078A8272
:100EA000120A4D80928A06BE3000402E8A06EE2439
:100EB000C6402774FFB51513E51475F00AA4FEEAC1
:100EC00024D02EF51470BFD20580BBE51575F00A4D
:100ED000A4FEEA24D02EF51580ACBA2E0A74FFB514
:100EE00015A4751500809F8A06BE6100400E8A0613
:100EF000EE248540075302DFD2008002C200BA20F0
:100F0000028075BA2303020F87BA2A03020F8CBA34
:100F10002B02805FBA2D028055BA4202805FBA432D
:100F200003020FD1BA440302110CBA450302112681
:100F3000BA4603021122BA470302112ABA49030230
:100F4000110CBA4C02803BBA4E0302112EBA4F0369
:100F5000021113BA50030210A5BA5303020FF5BAD7
:100F60005503021118BA580302111D021158D20478
:100F7000020E86D206020E86D207020E86D2090221
:100F80000E86D20A020E86D20B020E8674FFB515AB
:100F90002030090BE51B14F8881B8614020E86E529
:100FA0001B24FEF8881B8606088607188E14020E7E
:100FB0008630090BE51B14F8881B8615020E86E5A2
:100FC0001B24FEF8881B8606088607188E15020E5D
:100FD0008630090AE51B14F8881B8602800FE51B82
:100FE00024FEF8881B8603088604188B028A821266
:100FF0000A4D02115DE51B24FDF8881B8603088657
:101000000408860518188B0C8C0D8D0E8B828C8332
:101010008DF0121596AB82AC838B1674FFB5150359
:1010200085161520041DC3E51695145016E514C346
:101030009516F514AB141514EB6008758220120A8E
:101040004D80F1850C82850D83850EF0121442FBD4
:10105000FA6029AB151515C3E464808BF063F0804A
:1010600095F050188A82120A4DAB0CAC0DAD0E0BE8
:10107000BB00010C8B0C8C0D8D0E80C7200403026D
:10108000115DC3E5169514400302115DE514C39587
:1010900016F514AB141514EB700302115D75822064
:1010A000120A4D80EEE51B24FDF8881B8603088696
:1010B0000408860518188B0C8C0D8D0EE50EFB3080
:1010C000E7047A438013EB546060047A50800AEBA3
:1010D00030E6047A4980027A588A82C002120A4DA8
:1010E00075823A120A4D758230120A4D7582781255
:1010F0000A4DD002BA4902800BBA50028006850D13
:1011000082120A80850C82120A808051D2087513DF
:101110000A804A751308804575130A8040751310BC
:10112000803BD2018037D2028033D203802FE51B6F
:1011300024FDF8881B860308860408860518188B8A
:101140000C8C0D8D0E8B828C838DF0E51112157D2C
:10115000A3E51212157D80058A82120A4D20010630
:10116000200203300370E51B24FCF8881B8603086B
:1011700086040886050886061818188B0C8C0D8DB9
:101180000E8E0FE50CE50DE50EE50F8B828C838D41
:10119000F0EE12145E74FFB51503751506300327C3
:1011A000747F550FFB8B10E510EB2BFB8B10E50EBE
:1011B00030E70674014510F510E510246840067408
:1011C0009925104002D202300206120D49020E3754
:1011D000120AD6020E37E5137003020E377B603019
:1011E000092BE51B14F8881BE6FC3395E0FDFEFF98
:1011F0008C0C8D0D8E0E8F0F20085EAC0C7D007E4A
:10120000007F008C0C8D0D8E0E8F0F804C300A1FCE
:10121000E51B24FCF8881B8604088605088606085A
:1012200086071818188C0C8D0D8E0E8F0F802AE5EE
:101230001B24FEF8881B860408860518ED3395E00C
:10124000FEFF8C0C8D0D8E0E8F0F20080CAC0CAD9C
:101250000D7E007F008E0E8F0F300B43E50C450D89
:10126000450E450F60397408B5130C758230C00304
:10127000120A4DD00380287410B51323758230C034
:1012800003120A4DD00330000C758278C003120A95
:101290004DD003800A758258C003120A4DD0033026
:1012A0000825AC0CAD0DAE0EE50FFF30E717C3E41B
:1012B0009CFCE49DFDE49EFEE49FFF8C0C8D0D8E56
:1012C0000E8F0F8002C208751600D20C8B007510AD
:1012D00000C000120A97D000200C0DE510C4FCE6F7
:1012E000FD4CF61888038002A6100516B20CE50C1A
:1012F000450D450E450F70D68803E514700375142F
:101300000120051A200417E51604FCC39514500E9D
:10131000758220C003120A4DD003151480E93008ED
:101320000E75822DC003120A4DD00315148024E5DA
:1013300016602030060E75822BC003120A4DD003B2
:101340001514800F30070C758220C003120A4DD08F
:1013500003151420041EAC141514C3E5169C502765
:101360003005047C3080027C208C82C003120A4D40
:10137000D00380E2C3E51695145009E514C3951611
:10138000F51480037514008B00AB161516EB602264
:10139000B20C200C0A08E6C4540FFB8B10800786A1
:1013A00003740F5BF510851082C000120A67D0002D
:1013B00080D7200403020E37AB141514EB70030220
:1013C0000E37758220120A4D80EE8A82120A4D0273
:1013D0000E3785118285128322AA82BA0A081099D3
:1013E0000280FB75990D10990280FB8A99227F9EDD
:1013F0001215BE30D103020961C3EF958250097402
:10140000FFF5F0F583F582227900120A0A89828AB3
:10141000838BF0EC22FCABF0AA83A982749EF58248
:10142000C2D1EC30E716D2D1E9F42401F9EAF43460
:1014300000FAEBF43400FBECF43400FC12098F02E8
:10144000094020F71430F6148883A88220F507E6B7
:10145000A88375830022E280F7E49322E022C0E0B3
:10146000F84582458345F07009F5F0FBFCFDFE026E
:10147000152CE823A2F792E0F8A982AA83D2F7AB51
:10148000F07C007E07C3749798404074FF2EFE7472
:101490000A89F0A4F985F082740A8AF0A4FA85F02A
:1014A00083740A8BF0A4FB740529F9EA3582FAEB00
:1014B0003583FB740035F0FCC3EC13FCEB13FBEA43
:1014C00013FAE913F908EC70EF80BAE8C3947FF8D7
:1014D0008B838EF0E4FBFCFDFEFF08C3E933F9EAE1
:1014E00033FAE58333F583EB3BD4FBEC3CD4FCEDE2
:1014F0003DD4FDEE3ED4FEEF3FD4FF602D05F074E9
:10150000052BD4FBE43CD4FCE43DD4FDE43ED4FE06
:10151000E43FD4FF758204C3EF13FFEE13FEED1317
:10152000FDEC13FCEB13FBD582EDD8AF785BD0E07C
:1015300020E704762B8002762D087906E7C4540F45
:101540004430F608B90603762E08E7540F4430F607
:101550000819B902E7764508E5F020E704762B8004
:1015600004762DF4040875F00A844430F608E5F09A
:101570004430F608E4F690005B75F0402220F71046
:1015800030F6118883A88220F507F6A883758300BA
:1015900022F280F7F022AA82AB83ACF07D007E00BD
:1015A0008A828B838CF0121442FFA3AA82AB83EF52
:1015B00060070DBD00EA0E80E78D828E8322AA822D
:1015C000AB83A2F73392D16002D2F7F582ACF0225E
:00000001FF
