:1000000002002E220000000000000000000000009E
:1000200000000000000000000000000205AE758125
:10003000511202B6E582600302009A780079007AD4
:10004000007B007C007D00EC4D601C88828983E48D
:1000500093A3A882A9838A828B83F0A3AA82AB830D
:100060001CBCFFE31D80E07582007583007C007D71
:1000700000EC4D600AE4F0A31CBCFFF51D80F27596
:1000800082007583007C007D00EC4D600AE4F0A3E3
:100090001CBCFFF51D80F21200031205D380FE4543
:1000A0007874656E73696F6E20747970653A202577
:1000B00030327820202530327820202530327820C8
:1000C000202530327820202530327820202530320B
:1000D000780A001B5B324A1B5B313B3148000A0A3D
:1000E000574949204E756E636875636B20493243EA
:1000F000205265616465720A004F66667365745FBD
:10010000583A253464204F66667365745F593A2502
:1001100034640A0A00427574746F6E73285A3A2563
:10012000632C20433A256329204A6F7973746963ED
:100130006B282534642C20253464292041636365B1
:100140006C65726F6D65746572282533642C20258B
:1001500033642C20253364291B5B304A0D003C4E50
:100160004F20464C4F41543E00AA82AB83ACF0FD79
:1001700075E50C75D2108A488B498C4A8D4B906C72
:100180000075F0DC740212080BAA82AB83ACF0C3DA
:1001900013F526EC13F525EB13F524EA13F5237577
:1001A00048FF7549FF754A00754B008523828524F9
:1001B000838525F0E52612080BAE82AF83A8F0F9FF
:1001C000C3EE9401EF9400E89400E99400501CE41D
:1001D000C39523FAE49524FB74019525FCE4952648
:1001E000FD8AB48BB543AC030202AFC3EE9404EFB7
:1001F0009400E89400E994005039E526C313FDE526
:100200002513FCE52413FBE52313FAEDC313FDECE2
:1002100013FCEB13FBEA13FAE4C39AFAE49BFB74B6
:10022000019CFCE49DFD8AB48BB553ACFC43AC014E
:100230000202AFC3EE940CEF9400E89400E994003E
:10024000503675480CE4F549F54AF54B852382850F
:1002500024838525F0E52612080BAA82AB83ACF037
:10026000FDE4C39AFAE49BFB74019CFCE49DFD8AC7
:10027000B48BB553ACFC8037754830E4F549F54A8A
:10028000F54B8523828524838525F0E52612080B0E
:10029000AA82AB83ACF0FDE4C39AFAE49BFB740141
:1002A0009CFCE49DFD8AB48BB553ACFC43AC02438B
:1002B000D20243AC402253D9BF75FF8075EF06438D
:1002C000A90343B20375985290006EE4F5F0120151
:1002D00069758D30538EF4438E08858D8B53890F4D
:1002E000438920D28ED29975A41043A60375E105E7
:1002F00075E24075E30143A613438E045389F0432E
:100300008902758C60758A60D28C75C15C43C1802E
:1003100075C800438E1075CAA075CBF675CCFF75F5
:10032000CDFFD2ADD2CAD2AF75820022AA82ABBFB6
:1003300075BF0F43E401759280759344859294854F
:1003400093957591047C00C3EC9A500BE59130E7CE
:10035000FB53917F0C80F07591008BBF228582C288
:10036000C2C030C0FD22C2C030C0FD85C28222D2D0
:10037000C1D2C5C2C4C2C030C0FDC2C522D2C4C22F
:10038000C02212036F7582A412035D7582F01203FE
:100390005D75825512035D12037D75820112032C77
:1003A00012036F7582A412035D7582FB12035D75E3
:1003B000820012035D12037D75820112032C120369
:1003C0006F7582A412035D7582FA12035D12037DBC
:1003D00075820312032C12036F7582A512035D7AD6
:1003E00000BA06005015EA2427F8C002C000120324
:1003F00066E582D000D002F60A80E6C2C112037D13
:1004000075820312032C30004BAA2C7B00AC2B7D91
:1004100000852A2D752E0085292F753000852831FD
:10042000753200AE277F00C002C003C004C005C003
:100430002DC02EC02FC030C031C032C006C00774DE
:100440009FC0E07400C0E07480C0E0120885E581C0
:1004500024F1F58112036F7582A412035D7582F099
:1004600012035D7582AA12035D12037D758201126B
:10047000032C12036F7582A412035D758240120370
:100480005D75820012035D75820012035D75820046
:1004900012035D75820012035D75820012035D75A3
:1004A000820012035D12037D75820112032C120378
:1004B0006F7582A412035D75824012035D75820020
:1004C00012035D75820012035D75820012035D7573
:1004D000820012035D75820012035D7582001203B3
:1004E0005D12037D75820112032C12036F7582A4C5
:1004F00012035D75824012035D75820012035D7503
:10050000820012035D75820012035D758200120382
:100510005D12037D75820102032CAA82AB83ACF0CD
:10052000C002C003C00412036F7582A412035D757C
:10053000820012035D12037D75820312032C1203E5
:100540006F7582A512035DD004D003D0027D00BD7B
:100550000600503AED2AFEE43BFF8C00C002C003C7
:10056000C004C005C006C007C000120366E582D003
:1005700000D007D006D005D004D003D002641724E1
:1005800017F98E828F8388F01208A60D80C1C2C130
:1005900002037DAA82BA0A0BE5D230E1FB53D2FDF9
:1005A00075D30DE5D230E1FB53D2FD8AD322C002D0
:1005B000C0D075D000AABF75BF00C2CF308209B2CB
:1005C000A0A2A0B392A18004C2A0C2A18ABFD0D031
:1005D000D00232E4F533F53474D3C0E07400C0E0E7
:1005E0007480C0E012088515811581158174DEC004
:1005F000E07400C0E07480C0E012088515811581A8
:1006000015817582C812032CD20012038275826490
:1006100012032C90003575F04012051AAC357D00A0
:10062000EC2480F53DED34FFF53EAE367F00EE2440
:1006300080F53FEF34FFF540C03FC040C03DC03EB5
:1006400074F9C0E07400C0E07480C0E0120885E571
:100650008124F9F58190003575F04012051AAE3508
:100660007F00EE2480FEEF34FFFFEEC3953DFEEFEA
:10067000953EFFAC367D00EC2480FCED34FFFDECB4
:10068000C3953FF53BED9540F53CE53775F004A487
:10069000F54185F042E53875F004A4F54385F04452
:1006A000E53975F004A4F54585F046E53A13920165
:1006B000E53AA2E19202E53A30E20B74022541F5F7
:1006C00041E43542F542E53A30E3080541E4B541FD
:1006D000020542E53A30E40B74022543F543E43564
:1006E00044F544E53A30E5080543E4B543020544E2
:1006F000E53A30E60B74022545F545E43546F54606
:10070000E53A30E7080545E4B54502054630020400
:100710007A3180027A30EA3395E0FB300105754783
:10072000318003754730E547FC3395E0FDC006C0D6
:1007300007C045C046C043C044C041C042C03BC0E2
:100740003CC006C007C002C003C004C0057415C089
:10075000E07401C0E07480C0E0120885E58124EFF8
:10076000F58175826412032CD007D006200217E5AC
:100770003345347009753301E4F534020655E4F568
:1007800033F5340206557401B53306E4B5340280FE
:10079000028005D282020655C3EE94B5EF648094C0
:1007A0007F500975826C120593020655C3744B9EE7
:1007B000E464808FF063F08095F0500975827212C6
:1007C0000593020655C3744B953BE46480853CF069
:1007D00063F08095F0500975826612059302065504
:1007E000C3E53B94B5E53C6480947F500975826213
:1007F00012059302065520010975826812059302BD
:100800000655758264120593020655FB7A20E4FCB6
:10081000FDFEFFE5822582F582E58333F583E5F071
:1008200033F5F0EB33FB4017DAE98042E5822582AD
:10083000F582E58333F583E5F033F5F0EB33FBEC3C
:1008400033FCED33FDEE33FEEF33FFEC9548ED95D1
:1008500049EE954AEF954B4013EC9548FCED9549D0
:10086000FDEE954AFEEF954BFF438201DABEEB2287
:10087000020EDF85821885831985F01A85091B9081
:100880000870020948C008858108E50824FBF51BAB
:10089000E50824FBF8861808861908861A9008705F
:1008A000120948D0082220F71030F6118883A88258
:1008B00020F507F6A88375830022F280F7F022AABC
:1008C0008274D0C0E07408C0E0C00AC00B8A8222E3
:1008D0000511E4B51102051222AA8274302AFA2405
:1008E000C6500A74072AFA3003034302208A8202A0
:1008F00008BFE582FAC4540FF582C0021208D9D0AD
:1009000002740F5AF5820208D9AA0CAB0DAC0EADD9
:100910000FAE10751720EE2EFEED235401FF420698
:10092000EA2AFAEB33FBEC33FCED33FDC3EE95130F
:100930004008EEC39513FE430201D517D98A0C8BEC
:100940000D8C0E8D0F8E102285820A85830BE4F5A7
:1009500011F512AA18AB19AC1A8A828B838CF0128B
:100960000EF4FD74012AF518E43BF5198C1AEDFA22
:100970007003020ED8BA25028003020ED0C207C24D
:1009800008C209C20AC20BC20CC20DC20EC204C206
:1009900005C2067513007514007515FFAB18AC1968
:1009A000AD1A8B828C838DF0120EF4FAA3AB82AC5D
:1009B000838B188C198D1ABA25078A821208BF807A
:1009C000928A06BE3000402E8A06EE24C640277466
:1009D000FFB51513E51475F00AA4FEEA24D02EF530
:1009E0001470BFD20880BBE51575F00AA4FEEA2496
:1009F000D02EF51580ACBA2E0A74FFB515A4751566
:100A000000809F8A06BE6100400E8A06EE24854063
:100A1000075302DFD2038002C203BA20028075BAF4
:100A20002303020AA3BA2A03020AA8BA2B02805F90
:100A3000BA2D028055BA4202805FBA4303020AED22
:100A4000BA4403020C28BA4503020C42BA46030218
:100A50000C3EBA4703020C46BA4903020C28BA4CB2
:100A600002803BBA4E03020C4ABA4F03020C2FBA63
:100A70005003020BC1BA5303020B11BA5503020C07
:100A800034BA5803020C39020C74D2070209A2D2FC
:100A9000090209A2D20A0209A2D20C0209A2D20DAD
:100AA0000209A2D20E0209A274FFB51520300C0B68
:100AB000E51B14F8881B86140209A2E51B24FEF826
:100AC000881B8606088607188E140209A2300C0BB4
:100AD000E51B14F8881B86150209A2E51B24FEF805
:100AE000881B8606088607188E150209A2300C0A94
:100AF000E51B14F8881B8602800FE51B24FEF8888E
:100B00001B8603088604188B028A821208BF020C17
:100B100079E51B24FDF8881B8603088604088605F2
:100B200018188B0C8C0D8D0E8B828C838DF0120F10
:100B300010AB82AC838B1674FFB515038516152098
:100B4000071DC3E51695145016E514C39516F51444
:100B5000AB141514EB60087582201208BF80F18574
:100B60000C82850D83850EF0120EF4FBFA6029AB22
:100B7000151515C3E464808BF063F08095F0501870
:100B80008A821208BFAB0CAC0DAD0E0BBB00010C82
:100B90008B0C8C0D8D0E80C7200703020C79C3E5EA
:100BA0001695144003020C79E514C39516F514ABA1
:100BB000141514EB7003020C797582201208BF80A3
:100BC000EEE51B24FDF8881B8603088604088605CD
:100BD00018188B0C8C0D8D0EE50EFB30E7047A4354
:100BE0008013EB546060047A50800AEB30E6047A9C
:100BF0004980027A588A82C0021208BF75823A126E
:100C000008BF7582301208BF7582781208BFD00203
:100C1000BA4902800BBA50028006850D821208F292
:100C2000850C821208F28051D20B75130A804A7526
:100C30001308804575130A8040751310803BD20459
:100C40008037D2058033D206802FE51B24FDF8883B
:100C50001B860308860408860518188B0C8C0D8DDE
:100C60000E8B828C838DF0E5111208A6A3E512127B
:100C700008A680058A821208BF20040620050330DA
:100C8000065AE51B24FCF8881B86030886040886A0
:100C9000050886061818188B0C8C0D8D0E8E0F7596
:100CA0000C5E750D01750E80850C1C850D1D850E65
:100CB0001E7401251CFEE4351DFFAB1E8E0C8F0D2E
:100CC0008B0E851C82851D83851EF0120EF4FBFAA7
:100CD00070030209538A821208BF80CCE5137003A7
:100CE0000209537B51300C2BE51B14F8881BE6FCE2
:100CF0003395E0FDFEFF8C0C8D0D8E0E8F0F200BBB
:100D00005EAC0C7D007E007F008C0C8D0D8E0E8FF6
:100D10000F804C300D1FE51B24FCF8881B8604084F
:100D200086050886060886071818188C0C8D0D8E07
:100D30000E8F0F802AE51B24FEF8881B8604088688
:100D40000518ED3395E0FEFF8C0C8D0D8E0E8F0F88
:100D5000200B0CAC0CAD0D7E007F008E0E8F0F3083
:100D60000E43E50C450D450E450F60397408B5136B
:100D70000C758230C0031208BFD00380287410B5F0
:100D80001323758230C0031208BFD00330030C75E3
:100D90008278C0031208BFD003800A758258C0034E
:100DA0001208BFD003300B25AC0CAD0DAE0EE50F15
:100DB000FF30E717C3E49CFCE49DFDE49EFEE49F46
:100DC000FF8C0C8D0D8E0E8F0F8002C20B751600DE
:100DD000D20F8B00751000C000120909D000200F3F
:100DE0000DE510C4FCE6FD4CF61888038002A61041
:100DF0000516B20FE50C450D450E450F70D688035C
:100E0000E514700375140120081A200717E516046D
:100E1000FCC39514500E758220C0031208BFD00386
:100E2000151480E9300B0E75822DC0031208BFD057
:100E30000315148024E516602030090E75822BC03E
:100E4000031208BFD0031514800F300A0C758220DE
:100E5000C0031208BFD003151420071EAC141514CC
:100E6000C3E5169C50273008047C3080027C208C1F
:100E700082C0031208BFD00380E2C3E51695145068
:100E800009E514C39516F51480037514008B00ABA7
:100E9000161516EB6022B20F200F0A08E6C4540F95
:100EA000FB8B1080078603740F5BF510851082C0E2
:100EB000001208D9D00080D7200703020953AB14D1
:100EC0001514EB70030209537582201208BF80EEDF
:100ED0008A821208BF02095385118285128322AAD1
:100EE00082BA0A0810990280FB75990D1099028048
:100EF000FB8A992220F71430F6148883A88220F503
:100F000007E6A88375830022E280F7E49322E022BB
:100F1000AA82AB83ACF07D007E008A828B838CF04A
:100F2000120EF4FFA3AA82AB83EF60070DBD00EAA7
:100F30000E80E78D828E83220000000000000000FA
:00000001FF
