:0300000002011AE0
:10001B0002181BC00078B10000D8FCD00022C00031
:10002B00C001792D78A6D8FED9FADAF6D001D00026
:10003B0022D29612001EC29622D2947A50796478FC
:10004B0096D8FED9FADAF6B2B702005CC294020077
:10005B005CA2E792B5A2E692B4A2E592B3A2E492B7
:10006B00B212003CA2E392B5A2E292B4A2E192B327
:10007B00A2E092B212003C22C296C29574331200D7
:10008B0057743312005774321200577428120057EA
:10009B00740C12005774011200577A0212002922B5
:1000AB0074801200577420120044742012004474A0
:1000BB002012004474201200447420120044742057
:1000CB001200447420120044742012004474201255
:1000DB000044742012004474201200447420120057
:1000EB004474C01200577420120044742012004450
:1000FB0074201200447420120044742012004474C3
:10010B002012004474201200447420120044227503
:10011B00817F75C1001200837480120057744A12DC
:10012B000044746512004474661200447466120035
:10013B0044747212004474651200447479120044C2
:10014B007420120044744C120044746912004474FD
:10015B006F120044747512004474C012005774324D
:10016B00120044743412004474321200447430127E
:10017B00004474331200447431120044743412007E
:10018B004474341200447AFA79FA78FAD8FED9FA20
:07019B00DAF61200AB8081CF
:00000001FF
