:1000000002000375816D12017DE582600302006FBD
:10001000780079007A007B007C007D00EC4D601C4C
:1000200088828983E493A3A882A9838A828B83F040
:10003000A3AA82AB831CBCFFE31D80E07582007520
:1000400083007C007D00EC4D600AE4F0A31CBCFF43
:10005000F51D80F27582007583007C007D00EC4DFB
:10006000600AE4F0A31CBCFFF51D80F212017C12B3
:1000700003D380FE4C434420342D626974207465A0
:1000800073743A0048656C6C6F2C20576F726C6407
:1000900021001B5B324A004672657175656E63799B
:1000A000206D6561737572656D656E742075736919
:1000B0006E672054696D65722F436F756E7465723B
:1000C00020302E0A46696C653A2025730A436F6D0D
:1000D00070696C65643A2025732C2025730A0A0028
:1000E000433A5C55736572735C6A656666726579DE
:1000F0006C696F755C4465736B746F705C656C657F
:10010000633239315C6C6162345C636F6D62696E5D
:10011000652E630046656220323820323031360069
:1001200031343A35393A3037002020202020202041
:1001300020202020202020487A202000202020205D
:10014000202020202020202020206E46202000205B
:100150002020202020252E326600467265713A004C
:100160000D663D256620487A2C20433D2566206E8D
:1001700043004361703A001B5B304B002253D9BFF0
:1001800075FF8075EF0643A90343B20343A41043F0
:10019000A50F43A60775E10175E240758D30538EBA
:1001A000F4438E08858D8B53890F438920D28E7539
:1001B000985275820022AA82438E407592D0759320
:1001C000FF8592948593957591047B00C3EB9A50BB
:1001D0000BE59130E7FB53917F0B80F07591002286
:1001E000AA82AB837C007D00C3EC9AED9B502B7EF2
:1001F00000BE0400501D7582FAC002C003C004C0D6
:1002000005C0061201B6D006D005D004D003D00236
:100210000E80DE0CBC00D10D80CE22D297758228D4
:100220001201B6C29722AA828AE0A2E79287A2E6CA
:100230009290A2E59291A2E49292C00212021B75E2
:1002400082281201B6D0028AE0A2E39287A2E2924B
:1002500090A2E19291A2E0929202021BAA82D2A104
:100260008A821202269000020201E0AA82C2A18ABA
:10027000821202269000050201E0C297C2A09000FF
:10028000141201E075823312026B75823312026B15
:1002900075823212026B75822812026B75820C1203
:1002A000026B75820112026B9000140201E0AA82B7
:1002B000AB83ACF07402B523047DC080027D808DD9
:1002C00082C002C003C00412026B9000051201E05C
:1002D000D004D003D0027D007E00ED2AFFEE3BF873
:1002E0008C018F82888389F012062FFF60208F8215
:1002F000C002C003C004C005C00612025CD006D014
:1003000005D004D003D0020DBD00CF0E80CC30004C
:10031000248D028E03C3EA9410EB64809480501500
:10032000758220C002C00312025CD003D0020ABA58
:1003300000E30B80E02243A41075E10175E25075E3
:10034000E3002243A90343B20375EF04227598101A
:10035000758D30538EF4438E08858D8B53890F43F2
:100360008920D28ED29922AA82438E407592D0756E
:1003700093FF8592948593957591047B00C3EB9AC6
:100380005012E59130E7FB53917F108D02800205FA
:10039000220B80E975910022AA82AB83BA0004BBCC
:1003A0000001227582F9C002C0031203677582F949
:1003B0001203677582F91203677582FA120367D018
:1003C00003D0021ABAFF011B80D25389F04389057A
:1003D000C28C2253D9BF12033612034312034D12AB
:1003E00003CA12027A752301D20090007475F0805E
:1003F0001202AE752302D20090008475F0801202C2
:10040000AE7492C0E07400C0E07480C0E0120703D4
:100410001581158115817420C0E07401C0E07480DD
:10042000C0E07414C0E07401C0E07480C0E074E007
:10043000C0E07400C0E07480C0E07497C0E0740055
:10044000C0E07480C0E0120703E58124F4F58175F3
:100450002301C20090012975F0801202AE752302BB
:10046000C20090013C75F0801202AE758A00758C56
:1004700000752200C28DD28C9003E8120398C28CC2
:10048000AA227B008B058A047B007A00AE8C7F0059
:10049000780088018F008E07E42AFAEF3BFBE83CE6
:1004A000FCE93DFDAE8AE4FF3395E0F8F9EE2AFA67
:1004B000EF3BFBE83CFCE93D8A828B838CF0120722
:1004C00024AA82AB83ACF0FDC002C003C004C00507
:1004D000C002C003C004C0059046BD75F054744509
:1004E00012064BAE82AF83A8F0F9E58124FCF581BA
:1004F000C006C007C000C00190000075F080743FC6
:100500001207E6AE82AF83A8F0F9E58124FCF581FD
:10051000C006C007C000C001906B2875F06E744E15
:1005200012064BAE82AF83A8F0F9E58124FCF58179
:10053000D005D004D003D002C002C003C004C0055F
:10054000C006C007C000C001C002C003C004C0058F
:10055000744FC0E07401C0E07480C0E07424C0E057
:100560007400C0E07440C0E01207A0E58124F6F5F5
:1005700081752301C20090002475F0401202AE750F
:100580002301C20090015A75F0801202AED001D052
:1005900000D007D006C006C007C000C001C006C01A
:1005A00007C000C001744FC0E07401C0E07480C097
:1005B000E07438C0E07400C0E07440C0E01207A0EE
:1005C000E58124F6F581D001D000D007D006D00512
:1005D000D004D003D002C006C007C000C001C002D2
:1005E000C003C004C0057460C0E07401C0E0748042
:1005F000C0E0120703E58124F5F581752302C200EE
:1006000090003875F0401202AE752302C2009001CE
:100610007275F0801202AE7477C0E07401C0E074AD
:1006200080C0E012070315811581158102046B203B
:10063000F71430F6148883A88220F507E6A883759E
:10064000830022E280F7E49322E022120987BC00B3
:1006500003020926EF60FA30D502B2D1E583B4FF78
:100660000302093CE582B4FF0302093C25834007ED
:100670002482400B020926248314500302093CF50E
:1006800082EA8DF0A4A8F0EA8EF0A428F8E435F010
:10069000F9EB8DF0A428E935F0F9E433CA8FF0A422
:1006A00029F9EA35F0FAEBF88EF0A429F9EA35F0E9
:1006B000FAE433FBEC8DF0A429F9EA35F0FAE43BD7
:1006C000FBE88FF0A42AFAEB35F0FBE433CCFD8E87
:1006D000F0A42AFAEB35F0FBE43CFCED8FF0A42B00
:1006E000FBEC35F0FC20E703120954020905021364
:1006F0004185825A85835B85F05C85105D9006EEAE
:10070000020D94C008858108E50824FBF55DE50825
:1007100024FBF8865A08865B08865C9006EE120D6C
:1007200094D00822FCABF0AA83A982749EF582C201
:10073000D1EC30E716D2D1E9F42401F9EAF434001F
:10074000FAEBF43400FBECF43400FC120954020917
:1007500005AA82AB09AC0AAD0B8B828C838DF0EAC3
:100760001213560509E4B50902050A228582098596
:10077000830A85F00B850C5A850D5B850E5C850F11
:100780005D900751120D94AA82AB83AC09AD0AAEFD
:100790000B8C828D838EF0E41213568A828B832217
:1007A000C008858108E50824F8F55DE50824FBF814
:1007B000860908860A08860BE50824F8F8865A0890
:1007C000865B08865C900751120D94AA82AB83ACBD
:1007D00009AD0AAE0B8C828D838EF0E41213568A1B
:1007E000828B83D0082212098730D502B2D1BF0094
:1007F00009BC000302094902093CBC0003020926A6
:10080000E583B4FF0BE582B4FF0302094902092620
:10081000E582B4FF0302093CC395835007247F405F
:100820000B020926248014500302093CC0E0E4CCEA
:10083000CBCAF98D118E128F13EF54F0C4F51475D5
:1008400083068514F0EB84F582E9C4F9EAC4FAEB77
:10085000C4FBEC540FC47803D6FC18EBD6FB18EAA3
:10086000D6FA8582F0EDA4A8F0FD8582F0EEA428EA
:10087000FEE435F0F88582F0EFA428FFE435F0F8C7
:10088000E99DF9EA9EFAEB9FFBEC98FCAD11AE12E4
:10089000AF1330E7101582E92DF9EA3EFAEB3FFB82
:1008A000E43CFC80EDC082D58398C3E933F9EA3398
:1008B000FAEB33FBEC33FCC3E99DEA9EEB9FEC942F
:1008C00000B3E413F9D002D0E0C44AFAD003D0E078
:1008D000C44BFBD004D0E0F5F0540FC44CFCD082E4
:1008E000158230F40FD3EC13FCEB13FBEA13FAE997
:1008F00013F90582E930E70A74012AFAE43BFBE4C4
:100900003CFC02091DB98003EA13B34010EA24013C
:10091000FAE43BFBE43CFC50047C800582BC000E06
:10092000BB000BBA0008E4F5F0F583F58222A2D1F2
:10093000E582138CF092F78B838A8222E4F583F5AB
:100940008275F080F4A2D11322E4F583F58275F06C
:10095000C0747F227804EC7011E58224F8500AF507
:1009600082E4C9CACBFCD8EF22EC7820058220E7CC
:1009700013D5820122C3E933F9EA33FAEB33FBECF6
:1009800033FCD8EA158222AA82AB83A2F73392D134
:100990006002D2F7F582ACF0E58124F9F8E6FD08B3
:1009A000E6FE0886F008E6A2F73392D56002D2F799
:1009B000F583AFF022AA8274C6C0E07409C0E0C01B
:1009C0004CC04D8A82220553E4B55302055422AA35
:1009D0008274302AFA24C6500A74072AFA300103B6
:1009E0004302208A820209B5E582FAC4540FF582D7
:1009F000C0021209CFD002740F5AF5820209CFAAA1
:100A00004EAB4FAC50AD51AE52755920EE2EFEEDAF
:100A1000235401FF4206EA2AFAEB33FBEC33FCEDE8
:100A200033FDC3EE95554008EEC39555FE430201D4
:100A3000D559D98A4E8B4F8C508D518E5222786A5F
:100A4000E624D075F00AA4FA786BE624D02AFA7866
:100A5000698603BB2D04C3E49AFA755501C3E464A7
:100A6000808AF063F08095F050297559038A0374E9
:100A7000F62559401C0555E55914245EF8E559241E
:100A80005EF98704A604772E1BEBFA6004055980F3
:100A9000DE8B02EA30E70D785F86037860A6037884
:100AA0005F762E0AE557600AE55704FB2555F55594
:100AB0008005300C020555785E8603E4BB2D0104E9
:100AC000FB70062007033008020555300503020BB2
:100AD00085300657EB600C75822DC0021209B5D027
:100AE00002801C30070C75822BC0021209B5D0029F
:100AF000800D30080A758220C0021209B5D0027834
:100B00005F8604BC2E0C758230C0021209B5D0027B
:100B10001556AC561556C3E5559C4003020BC975D6
:100B20008230C0021209B5D00280E7AC561556C318
:100B3000E5559C500C758220C0021209B5D0028088
:100B4000EA785E8604BC2D0C75822DC0021209B5B0
:100B5000D002801C30070C75822BC0021209B5D060
:100B600002800D30080A758220C0021209B5D00239
:100B7000785F8604BC2E52758230C0021209B5D04F
:100B80000215568044EB600E75822DC0021209B525
:100B9000D0021556802030070E75822BC002120934
:100BA000B5D0021556800F30080C758220C0021295
:100BB00009B5D0021556785F8603BB2E0C758230BE
:100BC000C0021209B5D0021556755901C20EE55979
:100BD000245EF88603BB4503020C86BB2E348A03D1
:100BE000C3E464808BF063F08095F0500F75823021
:100BF000C0031209B5D0031B8B0280E48B02D20E16
:100C0000E5577038200C03020C8675822E1209B548
:100C10008074300E278A03EB30E71FC3E4648085BD
:100C200057F063F08095F0500C758230C0031209C4
:100C3000B5D00315570B8B0280DD8B02300E0EC32F
:100C4000E464808557F063F08095F05021E55924E5
:100C50005EF886038B82C0021209B5D002300E0EF8
:100C6000E559245EF88603BB2E02800215571556FF
:100C7000C3E464808557F063F08095F04003200E54
:100C8000050559020BCEC3E464808557F063F080FC
:100C900095F0500A7582301209B5155780E8300575
:100CA0000FAA561556EA60087582201209B580F120
:100CB00022E5577003300C0D74072557FAE556C32B
:100CC0009AF5568006E55624FAF556755900785E71
:100CD0008602BA2B0F20070C785E76202008057557
:100CE00059010556200519AA56C3E464808AF063A9
:100CF000F08095F0500A7582201209B5155680E7EC
:100D0000C20EE559245EF88602BA00028069BA452F
:100D10001F3001027665C3E464808557F063F0807C
:100D200095F0500A7582301209B5155780E8D20E39
:100D3000C3E5599402E433FA7014EA700EC3E46414
:100D4000808557F063F08095F04003300E16E5592A
:100D5000245EF886028A821209B5E55924FD5012F4
:100D60001557800E7402B55909300C0675822E1283
:100D700009B50559020D02300519AA56C3E464806D
:100D80008AF063F08095F0500A7582201209B5153B
:100D90005680E72285824C85834DE4F553F554AAAD
:100DA0005AAB5BAC5C8A828B838CF012062FFD748D
:100DB000012AF55AE43BF55B8C5CEDFA70030213F3
:100DC0003ABA25028003021332C205C206C207C224
:100DD00008C209C20AC20BC20CC202C203C2047515
:100DE00055007556007557FFAB5AAC5BAD5C8B82F6
:100DF0008C838DF012062FFAA3AB82AC838B5A8CB6
:100E00005B8D5CBA25078A821209B580928A06BE7C
:100E10003000402E8A06EE24C6402774FFB55713D3
:100E2000E55675F00AA4FEEA24D02EF55670BFD21E
:100E30000680BBE55775F00AA4FEEA24D02EF557CC
:100E400080ACBA2E0A74FFB557A4755700809F8AEC
:100E500006BE6100400E8A06EE248540075302DF7D
:100E6000D2018002C201BA20028075BA2303020EA9
:100E7000EFBA2A03020EF4BA2B02805FBA2D028069
:100E800055BA4202805FBA4303020F39BA440302E3
:100E90001074BA450302108EBA460302108ABA478C
:100EA00003021092BA4903021074BA4C02803BBA92
:100EB0004E03021096BA4F0302107BBA5003021081
:100EC0000DBA5303020F5DBA5503021080BA5803DE
:100ED0000210850210C0D205020DEED207020DEEFF
:100EE000D208020DEED20A020DEED20B020DEED2A6
:100EF0000C020DEE74FFB55720300A0BE55D14F8B7
:100F0000885D8656020DEEE55D24FEF8885D860656
:100F1000088607188E56020DEE300A0BE55D14F8B0
:100F2000885D8657020DEEE55D24FEF8885D860635
:100F3000088607188E57020DEE300A0AE55D14F890
:100F4000885D8602800FE55D24FEF8885D860308D3
:100F50008604188B028A821209B50210C5E55D2449
:100F6000FDF8885D860308860408860518188B4EF0
:100F70008C4F8D508B828C838DF012148EAB82AC93
:100F8000838B5874FFB5570385585720051DC3E55B
:100F90005895565016E556C39558F556AB56155606
:100FA000EB60087582201209B580F1854E82854F6D
:100FB000838550F012062FFBFA6029AB571557C3F3
:100FC000E464808BF063F08095F050188A821209F7
:100FD000B5AB4EAC4FAD500BBB00010C8B4E8C4FE4
:100FE0008D5080C72005030210C5C3E558955640B3
:100FF000030210C5E556C39558F556AB561556EB8A
:1010000070030210C57582201209B580EEE55D24DB
:10101000FDF8885D860308860408860518188B4E3F
:101020008C4F8D50E550FB30E7047A438013EB542E
:101030006060047A50800AEB30E6047A4980027AD4
:10104000588A82C0021209B575823A1209B57582B2
:10105000301209B57582781209B5D002BA490280FA
:101060000BBA50028006854F821209E8854E821223
:1010700009E88051D20975550A804A75550880459E
:1010800075550A8040755510803BD2028037D203D7
:101090008033D204802FE55D24FDF8885D86030847
:1010A000860408860518188B4E8C4F8D508B828CC9
:1010B000838DF0E553121356A3E5541213568005A1
:1010C0008A821209B5200206200303300470E55D10
:1010D00024FCF8885D8603088604088605088606D1
:1010E0001818188B4E8C4F8D508E51E54EE54FE5FC
:1010F00050E5518B828C838DF0EE12136F74FFB527
:101100005703755706300427747F5551FB8B52E502
:1011100052EB2BFB8B52E55030E70674014552F53C
:1011200052E55224684006749925524002D2033099
:101130000306120CB1020D9F120A3E020D9FE555E7
:101140007003020D9F7B63300A2BE55D14F8885D08
:10115000E6FC3395E0FDFEFF8C4E8D4F8E508F5197
:1011600020095EAC4E7D007E007F008C4E8D4F8E40
:10117000508F51804C300B1FE55D24FCF8885D8654
:10118000040886050886060886071818188C4E8DF0
:101190004F8E508F51802AE55D24FEF8885D8604CD
:1011A00008860518ED3395E0FEFF8C4E8D4F8E506E
:1011B0008F5120090CAC4EAD4F7E007F008E508FBA
:1011C00051300C43E54E454F455045516039740848
:1011D000B5550C758230C0031209B5D00380287450
:1011E00010B55523758230C0031209B5D003300104
:1011F0000C758278C0031209B5D003800A75825835
:10120000C0031209B5D003300925AC4EAD4FAE5026
:10121000E551FF30E717C3E49CFCE49DFDE49EFE2E
:10122000E49FFF8C4E8D4F8E508F518002C2097506
:101230005800D20D8B00755200C0001209FFD0007B
:10124000200D0DE552C4FCE6FD4CF6188803800223
:10125000A6520558B20DE54E454F4550455170D642
:101260008803E556700375560120061A200517E518
:101270005804FCC39556500E758220C0031209B560
:10128000D003155680E930090E75822DC00312096E
:10129000B5D00315568024E558602030070E7582BE
:1012A0002BC0031209B5D0031556800F30080C75FA
:1012B0008220C0031209B5D003155620051EAC5676
:1012C0001556C3E5589C50273006047C3080027CBC
:1012D000208C82C0031209B5D00380E2C3E5589583
:1012E000565009E556C39558F55680037556008B40
:1012F00000AB581558EB6022B20D200D0A08E6C469
:10130000540FFB8B5280078603740F5BF552855296
:1013100082C0001209CFD00080D7200503020D9FA4
:10132000AB561556EB7003020D9F7582201209B55E
:1013300080EE8A821209B5020D9F855382855483FF
:1013400022AA82BA0A0810990280FB75990D109999
:101350000280FB8A992220F71030F6118883A88238
:1013600020F507F6A88375830022F280F7F022C0EB
:10137000E0F84582458345F07009F5F0FBFCFDFE81
:1013800002143DE823A2F792E0F8A982AA83D2F7DB
:10139000ABF07C007E07C3749798404074FF2EFE2C
:1013A000740A89F0A4F985F082740A8AF0A4FA8597
:1013B000F083740A8BF0A4FB740529F9EA3582FAEC
:1013C000EB3583FB740035F0FCC3EC13FCEB13FB33
:1013D000EA13FAE913F908EC70EF80BAE8C3947FD6
:1013E000F88B838EF0E4FBFCFDFEFF08C3E933F9C4
:1013F000EA33FAE58333F583EB3BD4FBEC3CD4FCD6
:10140000ED3DD4FDEE3ED4FEEF3FD4FF602D05F060
:1014100074052BD4FBE43CD4FCE43DD4FDE43ED481
:10142000FEE43FD4FF758204C3EF13FFEE13FEED1D
:1014300013FDEC13FCEB13FBD582EDD8AF785ED037
:10144000E020E704762B8002762D087906E7C45465
:101450000F4430F608B90603762E08E7540F4430DF
:10146000F60819B902E7764508E5F020E704762B7F
:101470008004762DF4040875F00A844430F608E5FB
:10148000F04430F608E4F690005E75F04022AA823F
:10149000AB83ACF07D007E008A828B838CF01206D9
:1014A0002FFFA3AA82AB83EF60070DBD00EA0E8079
:1014B000E78D828E83220000000000000000000003
:00000001FF
