:10000000020003758135120F9EE582600302006FC6
:10001000780079007A007B007C007D00EC4D601C4C
:1000200088828983E493A3A882A9838A828B83F040
:10003000A3AA82AB831CBCFFE31D80E07582007520
:1000400083007C007D00EC4D600AE4F0A31CBCFF43
:10005000F51D80F27582007583007C007D00EC4DFB
:10006000600AE4F0A31CBCFFF51D80F2120123120C
:1000700001C180FE1B5B324A004672657175656E78
:100080006379206D6561737572656D656E74207539
:1000900073696E672054696D65722F436F756E7456
:1000A000657220302E0A46696C653A2025730A4332
:1000B0006F6D70696C65643A2025732C2025730A76
:1000C0000A00433A5C55736572735C6A65666672D2
:1000D00065796C696F755C4465736B746F705C6592
:1000E0006C65633239315C6C6162345C4672657197
:1000F000463338782E63004665622032362032302F
:1001000031360032303A32353A3335000D663D250E
:100110006620487A2C20433D2566206E43001B5BF9
:10012000304B002243A41075E10175E25075E300E5
:100130002243A90343B20375EF0422759810758D0D
:1001400030538EF4438E08858D8B53890F4389205D
:10015000D28ED29922AA82438E407592D07593FF97
:100160008592948593957591047B00C3EB9A501208
:10017000E59130E7FB53917F108D02800205080B5B
:1001800080E975910022AA82AB83BA0004BB00010A
:10019000227582F9C002C0031201557582F912015D
:1001A000557582F91201557582FA120155D003D0A6
:1001B000021ABAFF011B80D25389F0438905C28C11
:1001C0002253D9BF12012412013112013B1201B88E
:1001D0007474C0E07400C0E07480C0E01203E015E5
:1001E00081158115817403C0E07401C0E07480C082
:1001F000E074F7C0E07400C0E07480C0E074C2C076
:10020000E07400C0E07480C0E07479C0E07400C0A5
:10021000E07480C0E01203E0E58124F4F581758A82
:1002200000758C00750800C28DD28C9003E8120115
:1002300086C28CAA087B008B058A047B007A00AEFC
:100240008C7F00780088018F008E07E42AFAEF3B4C
:10025000FBE83CFCE93DFDAE8AE4FF3395E0F8F9AC
:10026000EE2AFAEF3BFBE83CFCE93D8A828B838C6B
:10027000F0120401AA82AB83ACF0FDC002C003C03F
:1002800004C005C002C003C004C0059046BD75F09F
:10029000547445120328AE82AF83A8F0F9E5812497
:1002A000FCF581C006C007C000C00190000075F0D9
:1002B00080743F12042EAE82AF83A8F0F9E581244A
:1002C000FCF581C006C007C000C001906B2875F026
:1002D0006E744E120328AE82AF83A8F0F9E5812434
:1002E000FCF581D005D004D003D002C006C007C001
:1002F00000C001C002C003C004C005740CC0E0749B
:1003000001C0E07480C0E01203E0E58124F5F581CE
:10031000741EC0E07401C0E07480C0E01203E015F8
:10032000811581158102021E1205CFBC0003020552
:100330006EEF60FA30D502B2D1E583B4FF03020557
:1003400084E582B4FF0302058425834007248240AC
:100350000B02056E2483145003020584F582EA8D96
:10036000F0A4A8F0EA8EF0A428F8E435F0F9EB8DBB
:10037000F0A428E935F0F9E433CA8FF0A429F9EAAA
:1003800035F0FAEBF88EF0A429F9EA35F0FAE43307
:10039000FBEC8DF0A429F9EA35F0FAE43BFBE88F99
:1003A000F0A42AFAEB35F0FBE433CCFD8EF0A42A5E
:1003B000FAEB35F0FBE43CFCED8FF0A42BFBEC35C5
:1003C000F0FC20E70312059C02054D020F8985828F
:1003D0001985831A85F01B850A1C9003CB0209DC62
:1003E000C009858109E50924FBF51CE50924FBF812
:1003F000861908861A08861B9003CB1209DCD009DF
:1004000022FCABF0AA83A982749EF582C2D1EC30A3
:10041000E716D2D1E9F42401F9EAF43400FAEBF456
:100420003400FBECF43400FC12059C02054D12056F
:10043000CF30D502B2D1BF0009BC00030205910242
:100440000584BC000302056EE583B4FF0BE582B4AE
:10045000FF0302059102056EE582B4FF03020584E5
:10046000C395835007247F400B02056E24801450EF
:1004700003020584C0E0E4CCCBCAF98D228E238F21
:1004800024EF54F0C4F5257583068525F0EB84F53B
:1004900082E9C4F9EAC4FAEBC4FBEC540FC4780354
:1004A000D6FC18EBD6FB18EAD6FA8582F0EDA4A8A4
:1004B000F0FD8582F0EEA428FEE435F0F88582F0A8
:1004C000EFA428FFE435F0F8E99DF9EA9EFAEB9FE6
:1004D000FBEC98FCAD22AE23AF2430E7101582E987
:1004E0002DF9EA3EFAEB3FFBE43CFC80EDC082D5FF
:1004F0008398C3E933F9EA33FAEB33FBEC33FCC3FB
:10050000E99DEA9EEB9FEC9400B3E413F9D002D08E
:10051000E0C44AFAD003D0E0C44BFBD004D0E0F5ED
:10052000F0540FC44CFCD082158230F40FD3EC137E
:10053000FCEB13FBEA13FAE913F90582E930E70A49
:1005400074012AFAE43BFBE43CFC020565B9800334
:10055000EA13B34010EA2401FAE43BFBE43CFC500C
:10056000047C800582BC000EBB000BBA0008E4F5D9
:10057000F0F583F58222A2D1E582138CF092F78BFD
:10058000838A8222E4F583F58275F080F4A2D11388
:1005900022E4F583F58275F0C0747F227804EC7054
:1005A00011E58224F8500AF582E4C9CACBFCD8EFE1
:1005B00022EC7820058220E713D5820122C3E9339B
:1005C000F9EA33FAEB33FBEC33FCD8EA158222AAC2
:1005D00082AB83A2F73392D16002D2F7F582ACF0FE
:1005E000E58124F9F8E6FD08E6FE0886F008E6A2B3
:1005F000F73392D56002D2F7F583AFF022AA827466
:100600000EC0E07406C0E0C00BC00C8A8222051246
:10061000E4B51202051322AA8274302AFA24C650C5
:100620000A74072AFA3000034302208A820205FD79
:10063000E582FAC4540FF582C002120617D0027484
:100640000F5AF582020617AA0DAB0EAC0FAD10AE15
:1006500011751820EE2EFEED235401FF4206EA2A02
:10066000FAEB33FBEC33FCED33FDC3EE951440089D
:10067000EEC39514FE430201D518D98A0D8B0E8C5A
:100680000F8D108E11227832E624D075F00AA4FA6C
:100690007833E624D02AFA78318603BB2D04C3E4EC
:1006A0009AFA751401C3E464808AF063F08095F0CF
:1006B00050297518038A0374F62518401C0514E5A3
:1006C00018142426F8E5182426F98704A604772EA2
:1006D0001BEBFA6004051880DE8B02EA30E70D7828
:1006E0002786037828A6037827762E0AE516600A5F
:1006F000E51604FB2514F5148005300B020514786B
:10070000268603E4BB2D0104FB7006200603300798
:100710000205143004030207CD300557EB600C7559
:10072000822DC0021205FDD002801C30060C75829D
:100730002BC0021205FDD002800D30070A75822001
:10074000C0021205FDD00278278604BC2E0C7582EB
:1007500030C0021205FDD0021515AC151515C3E504
:10076000149C4003020811758230C0021205FDD0AE
:100770000280E7AC151515C3E5149C500C7582205A
:10078000C0021205FDD00280EA78268604BC2D0C3A
:1007900075822DC0021205FDD002801C30060C753A
:1007A000822BC0021205FDD002800D30070A75822F
:1007B00020C0021205FDD00278278604BC2E527597
:1007C0008230C0021205FDD00215158044EB600E88
:1007D00075822DC0021205FDD0021515802030064D
:1007E0000E75822BC0021205FDD0021515800F3048
:1007F000070C758220C0021205FDD002151578275E
:100800008603BB2E0C758230C0021205FDD0021586
:1008100015751801C20DE5182426F88603BB45039B
:100820000208CEBB2E348A03C3E464808BF063F0ED
:100830008095F0500F758230C0031205FDD0031B68
:100840008B0280E48B02D20DE5167038200B030278
:1008500008CE75822E1205FD8074300D278A03EBB9
:1008600030E71FC3E464808516F063F08095F05094
:100870000C758230C0031205FDD00315160B8B02D8
:1008800080DD8B02300D0EC3E464808516F063F0CA
:100890008095F05021E5182426F886038B82C0024B
:1008A0001205FDD002300D0EE5182426F88603BB94
:1008B0002E02800215161515C3E464808516F063B8
:1008C000F08095F04003200D050518020816C3E4DA
:1008D00064808516F063F08095F0500A75823012BE
:1008E00005FD151680E830040FAA151515EA6008F5
:1008F0007582201205FD80F122E5167003300B0D84
:1009000074072516FAE515C39AF5158006E5152432
:10091000FAF51575180078268602BA2B0F20060CFA
:10092000782676202007057518010515200419AAD8
:1009300015C3E464808AF063F08095F0500A7582F4
:10094000201205FD151580E7C20DE5182426F8864E
:1009500002BA00028069BA451F3000027665C3E41E
:1009600064808516F063F08095F0500A758230122D
:1009700005FD151680E8D20DC3E5189402E433FA9C
:100980007014EA700EC3E464808516F063F08095FD
:10099000F04003300D16E5182426F886028A8212EC
:1009A00005FDE51824FD50121516800E7402B518C9
:1009B00009300B0675822E1205FD051802094A3012
:1009C0000419AA15C3E464808AF063F08095F0509E
:1009D0000A7582201205FD151580E72285820B8598
:1009E000830CE4F512F513AA19AB1AAC1B8A828B9F
:1009F000838CF0120FA2FD74012AF519E43BF51A5D
:100A00008C1BEDFA7003020F82BA25028003020FDD
:100A10007AC204C205C206C207C208C209C20AC21B
:100A20000BC201C202C2037514007515007516FFD2
:100A3000AB19AC1AAD1B8B828C838DF0120FA2FA0E
:100A4000A3AB82AC838B198C1A8D1BBA25078A82C3
:100A50001205FD80928A06BE3000402E8A06EE24E2
:100A6000C6402774FFB51613E51575F00AA4FEEA13
:100A700024D02EF51570BFD20580BBE51675F00A9F
:100A8000A4FEEA24D02EF51680ACBA2E0A74FFB567
:100A900016A4751600809F8A06BE6100400E8A0665
:100AA000EE248540075302DFD2008002C200BA2044
:100AB000028075BA2303020B37BA2A03020B3CBA31
:100AC0002B02805FBA2D028055BA4202805FBA4382
:100AD00003020B81BA4403020CBCBA4503020CD6D4
:100AE000BA4603020CD2BA4703020CDABA4903022F
:100AF0000CBCBA4C02803BBA4E03020CDEBA4F0368
:100B0000020CC3BA5003020C55BA5303020BA5BA28
:100B10005503020CC8BA5803020CCD020D08D204CA
:100B2000020A36D206020A36D207020A36D2090271
:100B30000A36D20A020A36D20B020A3674FFB516FA
:100B40002030090BE51C14F8881C8615020A36E5CE
:100B50001C24FEF8881C8606088607188E15020AD3
:100B60003630090BE51C14F8881C8616020A36E597
:100B70001C24FEF8881C8606088607188E16020AB2
:100B80003630090AE51C14F8881C8602800FE51C23
:100B900024FEF8881C8603088604188B028A8212B9
:100BA00005FD020D0DE51C24FDF8881C8603088652
:100BB0000408860518188B0D8C0E8D0F8B828C8384
:100BC0008DF01210F6AB82AC838B1774FFB5160351
:100BD00085171620041DC3E51795155016E515C396
:100BE0009517F515AB151515EB60087582201205E4
:100BF000FD80F1850D82850E83850FF0120FA2FB1B
:100C0000FA6029AB161516C3E464808BF063F0809C
:100C100095F050188A821205FDAB0DAC0EAD0F0B8E
:100C2000BB00010C8B0D8C0E8D0F80C720040302BE
:100C30000D0DC3E51795154003020D0DE515C39580
:100C400017F515AB151515EB7003020D0D75822008
:100C50001205FD80EEE51C24FDF8881C860308863D
:100C60000408860518188B0D8C0E8D0FE50FFB30D0
:100C7000E7047A438013EB546060047A50800AEBF7
:100C800030E6047A4980027A588A82C0021205FD51
:100C900075823A1205FD7582301205FD7582781253
:100CA00005FDD002BA4902800BBA50028006850EBB
:100CB00082120630850D821206308051D2087514DA
:100CC0000A804A751408804575140A80407514100E
:100CD000803BD2018037D2028033D203802FE51CC3
:100CE00024FDF8881C860308860408860518188BDE
:100CF0000D8C0E8D0F8B828C838DF0E5121210DD22
:100D0000A3E5131210DD80058A821205FD2001067D
:100D1000200203300370E51C24FCF8881C860308BD
:100D200086040886050886061818188B0D8C0E8D0B
:100D30000F8E10E50DE50EE50FE5108B828C838D8F
:100D4000F0EE120FBE74FFB51603751606300327BA
:100D5000747F5510FB8B11E511EB2BFB8B11E50F0D
:100D600030E70674014511F511E511246840067459
:100D70009925114002D2023002061208F90209E751
:100D80001206860209E7E51470030209E77B2B309F
:100D9000092BE51C14F8881CE6FC3395E0FDFEFFEA
:100DA0008C0D8D0E8E0F8F1020085EAC0D7D007E99
:100DB000007F008C0D8D0E8E0F8F10804C300A1F1F
:100DC000E51C24FCF8881C860408860508860608AD
:100DD00086071818188C0D8D0E8E0F8F10802AE53F
:100DE0001C24FEF8881C860408860518ED3395E05F
:100DF000FEFF8C0D8D0E8E0F8F1020080CAC0DADEC
:100E00000E7E007F008E0F8F10300B43E50D450ED8
:100E1000450F451060397408B5140C758230C00355
:100E20001205FDD00380287410B51423758230C0DC
:100E3000031205FDD00330000C758278C003120543
:100E4000FDD003800A758258C0031205FDD003301F
:100E50000825AC0DAD0EAE0FE510FF30E717C3E46B
:100E60009CFCE49DFDE49EFEE49FFF8C0D8D0E8EA8
:100E70000F8F108002C208751700D20C8B007511FD
:100E800000C000120647D000200C0DE511C4FCE69E
:100E9000FD4CF61888038002A6110517B20CE50D6B
:100EA000450E450F451070D68803E515700375157E
:100EB0000120051A200417E51704FCC39515500EF0
:100EC000758220C0031205FDD003151580E9300896
:100ED0000E75822DC0031205FDD00315158024E583
:100EE00017602030060E75822BC0031205FDD0035B
:100EF0001515800F30070C758220C0031205FDD038
:100F000003151520041EAC151515C3E5179C5027B5
:100F10003005047C3080027C208C82C0031205FDE9
:100F2000D00380E2C3E51795155009E515C3951761
:100F3000F51580037515008B00AB171517EB6022B4
:100F4000B20C200C0A08E6C4540FFB8B11800786F4
:100F500003740F5BF511851182C000120617D000D3
:100F600080D72004030209E7AB151515EB700302C7
:100F700009E77582201205FD80EE8A821205FD02C6
:100F800009E785128285138322AA82BA0A0810997A
:100F90000280FB75990D10990280FB8A9922758257
:100FA000002220F71430F6148883A88220F507E683
:100FB000A88375830022E280F7E49322E022C0E058
:100FC000F84582458345F07009F5F0FBFCFDFE0213
:100FD000108CE823A2F792E0F8A982AA83D2F7AB9B
:100FE000F07C007E07C3749798404074FF2EFE7417
:100FF0000A89F0A4F985F082740A8AF0A4FA85F0CF
:1010000083740A8BF0A4FB740529F9EA3582FAEBA4
:101010003583FB740035F0FCC3EC13FCEB13FBEAE7
:1010200013FAE913F908EC70EF80BAE8C3947FF87B
:101030008B838EF0E4FBFCFDFEFF08C3E933F9EA85
:1010400033FAE58333F583EB3BD4FBEC3CD4FCED86
:101050003DD4FDEE3ED4FEEF3FD4FF602D05F0748D
:10106000052BD4FBE43CD4FCE43DD4FDE43ED4FEAB
:10107000E43FD4FF758204C3EF13FFEE13FEED13BC
:10108000FDEC13FCEB13FBD582EDD8AF7826D0E056
:1010900020E704762B8002762D087906E7C4540FEA
:1010A0004430F608B90603762E08E7540F4430F6AC
:1010B0000819B902E7764508E5F020E704762B80A9
:1010C00004762DF4040875F00A844430F608E5F03F
:1010D0004430F608E4F690002675F0402220F71020
:1010E00030F6118883A88220F507F6A8837583005F
:1010F00022F280F7F022AA82AB83ACF07D007E0062
:101100008A828B838CF0120FA2FFA3AA82AB83EF9B
:1011100060070DBD00EA0E80E78D828E83220000FD
:00000001FF
