:1000000002000375812712074BE582600302006F2F
:10001000780079007A007B007C007D00EC4D601C4C
:1000200088828983E493A3A882A9838A828B83F040
:10003000A3AA82AB831CBCFFE31D80E07582007520
:1000400083007C007D00EC4D600AE4F0A31CBCFF43
:10005000F51D80F27582007583007C007D00EC4DFB
:10006000600AE4F0A31CBCFFF51D80F212008F12A1
:1000700000BE80FE48656C6C6F2C20776F726C64DC
:10008000210D0A003C4E4F20464C4F41543E002269
:1000900043A41075E10175E2402243A90343B20372
:1000A00075EF0422759810758D30538EF4438E08C9
:1000B000858D8B53890F438920D28ED2992253D9B3
:1000C000BF12009012009A1200A47474C0E0740071
:1000D000C0E07480C0E01200F51581158115812201
:1000E00002073685821885831985F01A85091B90C9
:1000F00000E002019FC008858108E50824FBF51B8C
:10010000E50824FBF8861808861908861A9000E08E
:1001100012019FD00822AA827427C0E07401C0E0B7
:10012000C00AC00B8A82220511E4B5110205122211
:10013000AA8274302AFA24C6500A74072AFA3000B8
:10014000034302208A82020116E582FAC4540FF5A5
:1001500082C002120130D002740F5AF582020130BF
:10016000AA0CAB0DAC0EAD0FAE10751720EE2EFE27
:10017000ED235401FF4206EA2AFAEB33FBEC33FC91
:10018000ED33FDC3EE95134008EEC39513FE430215
:1001900001D517D98A0C8B0D8C0E8D0F8E102285F0
:1001A000820A85830BE4F511F512AA18AB19AC1A73
:1001B0008A828B838CF012074FFD74012AF518E4B4
:1001C0003BF5198C1AEDFA700302072FBA2502804D
:1001D00003020727C204C205C206C207C208C20939
:1001E000C20AC20BC201C202C20375130075140019
:1001F0007515FFAB18AC19AD1A8B828C838DF0127C
:10020000074FFAA3AB82AC838B188C198D1ABA25D1
:10021000078A8212011680928A06BE3000402E8A1A
:1002200006EE24C6402774FFB51513E51475F00AD1
:10023000A4FEEA24D02EF51470BFD20580BBE515CC
:1002400075F00AA4FEEA24D02EF51580ACBA2E0A69
:1002500074FFB515A4751500809F8A06BE61004025
:100260000E8A06EE248540075302DFD2008002C2C8
:1002700000BA20028075BA23030202FABA2A0302E6
:1002800002FFBA2B02805FBA2D028055BA4202806B
:100290005FBA4303020344BA440302047FBA45032E
:1002A000020499BA4603020495BA470302049DBAB0
:1002B000490302047FBA4C02803BBA4E030204A1F8
:1002C000BA4F03020486BA5003020418BA53030259
:1002D0000368BA550302048BBA580302049002045F
:1002E000CBD2040201F9D2060201F9D2070201F9C8
:1002F000D2090201F9D20A0201F9D20B0201F97402
:10030000FFB5152030090BE51B14F8881B86140275
:1003100001F9E51B24FEF8881B8606088607188E5F
:10032000140201F930090BE51B14F8881B8615022D
:1003300001F9E51B24FEF8881B8606088607188E3F
:10034000150201F930090AE51B14F8881B860280A2
:100350000FE51B24FEF8881B8603088604188B0211
:100360008A821201160204D0E51B24FDF8881B8640
:100370000308860408860518188B0C8C0D8D0E8BCF
:10038000828C838DF0120784AB82AC838B1674FF52
:10039000B5150385161520041DC3E51695145016D2
:1003A000E514C39516F514AB141514EB60087582AB
:1003B0002012011680F1850C82850D83850EF012C6
:1003C000074FFBFA6029AB151515C3E464808BF069
:1003D00063F08095F050188A82120116AB0CAC0DB8
:1003E000AD0E0BBB00010C8B0C8C0D8D0E80C7204D
:1003F00004030204D0C3E516951440030204D0E5BB
:1004000014C39516F514AB141514EB70030204D045
:1004100075822012011680EEE51B24FDF8881B86EC
:100420000308860408860518188B0C8C0D8D0EE5C4
:100430000EFB30E7047A438013EB546060047A507B
:10044000800AEB30E6047A4980027A588A82C00238
:1004500012011675823A1201167582301201167554
:100460008278120116D002BA4902800BBA5002807B
:1004700006850D82120149850C821201498051D2F4
:100480000875130A804A751308804575130A804061
:10049000751310803BD2018037D2028033D20380A3
:1004A0002FE51B24FDF8881B8603088604088605B3
:1004B00018188B0C8C0D8D0E8B828C838DF0E511B2
:1004C00012076BA3E51212076B80058A82120116D0
:1004D00020010620020330035AE51B24FCF8881B88
:1004E00086030886040886050886061818188B0CEB
:1004F0008C0D8D0E8E0F750C84750D00750E80851C
:100500000C1C850D1D850E1E7401251CFEE4351D79
:10051000FFAB1E8E0C8F0D8B0E851C82851D838577
:100520001EF012074FFBFA70030201AA8A82120121
:100530001680CCE51370030201AA7B2730092BE556
:100540001B14F8881BE6FC3395E0FDFEFF8C0C8D38
:100550000D8E0E8F0F20085EAC0C7D007E007F009C
:100560008C0C8D0D8E0E8F0F804C300A1FE51B24D6
:10057000FCF8881B86040886050886060886071886
:1005800018188C0C8D0D8E0E8F0F802AE51B24FE03
:10059000F8881B860408860518ED3395E0FEFF8C6D
:1005A0000C8D0D8E0E8F0F20080CAC0CAD0D7E0047
:1005B0007F008E0E8F0F300B43E50C450D450E4529
:1005C0000F60397408B5130C758230C00312011620
:1005D000D00380287410B51323758230C003120134
:1005E00016D00330000C758278C003120116D003B8
:1005F000800A758258C003120116D003300825AC5A
:100600000CAD0DAE0EE50FFF30E717C3E49CFCE424
:100610009DFDE49EFEE49FFF8C0C8D0D8E0E8F0FD2
:100620008002C208751600D20C8B00751000C00045
:10063000120160D000200C0DE510C4FCE6FD4CF664
:100640001888038002A6100516B20CE50C450D456E
:100650000E450F70D68803E514700375140120054C
:100660001A200417E51604FCC39514500E75822059
:10067000C003120116D003151480E930080E7582EC
:100680002DC003120116D00315148024E516602036
:1006900030060E75822BC003120116D0031514808C
:1006A0000F30070C758220C003120116D0031514F9
:1006B00020041EAC141514C3E5169C502730050405
:1006C0007C3080027C208C82C003120116D0038013
:1006D000E2C3E51695145009E514C39516F5148088
:1006E000037514008B00AB161516EB6022B20C20BC
:1006F0000C0A08E6C4540FFB8B1080078603740FA6
:100700005BF510851082C000120130D00080D72028
:1007100004030201AAAB141514EB70030201AA75BD
:10072000822012011680EE8A821201160201AA8529
:10073000118285128322AA82BA0A0810990280FBCC
:1007400075990D10990280FB8A99227582002220EA
:10075000F71430F6148883A88220F507E6A883757D
:10076000830022E280F7E49322E02220F71030F6A3
:10077000118883A88220F507F6A88375830022F2EA
:1007800080F7F022AA82AB83ACF07D007E008A82E3
:100790008B838CF012074FFFA3AA82AB83EF600715
:1007A0000DBD00EA0E80E78D828E832200000000DE
:00000001FF
