:10000000020003758120120093E582600302006FF5
:10001000780079007A007B007C007D00EC4D601C4C
:1000200088828983E493A3A882A9838A828B83F040
:10003000A3AA82AB831CBCFFE31D80E07582007520
:1000400083007C007D00EC4D600AE4F0A31CBCFF43
:10005000F51D80F27582007583007C007D00EC4DFB
:10006000600AE4F0A31CBCFFF51D80F2120092129E
:10007000024C80FE4C434420342D62697420746528
:1000800073743A0048656C6C6F2C20576F726C6407
:1000900021002253D9BF75FF8075EF0643A90243A3
:1000A000B20343A41043A50F43A60775E10175E20F
:1000B00040758D98538EF4438E08858D8B53890F30
:1000C000438920D28E75985275820022AA82438E6F
:1000D000407592E87593FF85929485939575910488
:1000E0007B00C3EB9A500BE59130E7FB53917F0BFC
:1000F00080F075910022AA82AB837C007D00C3EC66
:100100009AED9B502B7E00BE0400501D7582FAC0F4
:1001100002C003C004C005C0061200CCD006D00542
:10012000D004D003D0020E80DE0CBC00D10D80CEF6
:1001300022D2977582281200CCC29722AA828AE026
:10014000A2E79287A2E69290A2E59291A2E492920F
:10015000C0021201317582281200CCD0028AE0A2BE
:10016000E39287A2E29290A2E19291A2E09292029F
:100170000131AA82D2A18A8212013C9000020200BF
:10018000F6AA82C2A18A8212013C9000050200F602
:10019000C297C2A09000141200F67582331201813A
:1001A00075823312018175823212018175822812A3
:1001B000018175820C12018175820112018190000A
:1001C000140200F6AA82AB83ACF07402B508047D79
:1001D000C080027D808D82C002C003C004120181F4
:1001E0009000051200F6D004D003D0027D007E00FE
:1001F000ED2AFFEE3BF88C018F82888389F0120292
:100200006BFF60208F82C002C003C004C005C0061F
:10021000120172D006D005D004D003D0020DBD006B
:10022000CF0E80CC3000248D028E03C3EA9410EBF5
:10023000648094805015758220C002C00312017240
:10024000D003D0020ABA00E30B80E02212019075BD
:100250000801D20090007475F0801201C475080284
:10026000D20090008475F0800201C420F71430F6AB
:10027000148883A88220F507E6A88375830022E20C
:1002800080F7E49322E0220000000000000000005C
:00000001FF
