:1000000002000375817A12019BE582600302006F92
:10001000780079007A007B007C007D00EC4D601C4C
:1000200088828983E493A3A882A9838A828B83F040
:10003000A3AA82AB831CBCFFE31D80E07582007520
:1000400083007C007D00EC4D600AE4F0A31CBCFF43
:10005000F51D80F27582007583007C007D00EC4DFB
:10006000600AE4F0A31CBCFFF51D80F212016012CF
:1000700002FA80FE1B5B324A001B5B303B33256477
:100080003B3425646D001B5B25643B25644800C937
:10009000CDCDCDCDCDCDCDCDCDCDCDCDCBCDCDCD92
:1000A000CDCDCDCDCDCDCDCDCDBB0A00BA205672B4
:1000B0006D7320526566202020BA20202020202049
:1000C000202020202020BA0A00CCCDCDCDCDCDCD12
:1000D000CDCDCDCDCDCDCECDCDCDCDCDCDCDCDCD4F
:1000E000CDCDCDB90A00BA2056726D732054657318
:1000F000742020BA20202020202020202020202012
:10010000BA0A00BA205068617365202020202020A0
:10011000BA202020202020202020202020BA0A00E1
:10012000BA204672657175656E63792020BA202009
:1001300020202020202020202020BA0A00C8CDCD59
:10014000CDCDCDCDCDCDCDCDCDCDCACDCDCDCDCDE2
:10015000CDCDCDCDCDCDCDBC0A0025352E3366001D
:100160002243A41075E10175E25075E3002243A912
:100170000343B20375EF0422759810758D30538ECA
:10018000F4438E08858D8B53890F438920D28ED2FC
:1001900099225389F0438901C28C2253D9BF75FF3C
:1001A0008075EF0643A90343B203759810758D302F
:1001B000538EF4438E08858D8B53890F438920D24B
:1001C0008ED29943A40175E10175E2407582002247
:1001D000AA82438E407592D07593FF859294859341
:1001E000957591047B00C3EB9A500BE59130E7FBCA
:1001F00053917F0B80F075910022AA82AB83BA00E5
:1002000004BB0001227582F9C002C0031201D0753F
:1002100082F91201D07582F91201D07582FA1201A9
:10022000D0D003D0021ABAFF011B80D275BCF8757A
:10023000E88075D10822AA82851CF005F07401803F
:100240000225E0D5F0FBFBEA24FC4033EA2A2A90A1
:1002500002537302025F02026702026F020277EB2F
:10026000F452F1EB42D422EBF452F2EB42D522EB02
:10027000F452F3EB42D622EBF4FA52F4EB42DF22D3
:100280008582BB75BA1FD2EC20ECFDD2EC20ECFDD0
:10029000AABD7B00ADBE7C00EC2AF582ED3BF58368
:1002A00022120280120C98AA82AB83ACF0FDC0022D
:1002B000C003C004C00590333375F0537440120D71
:1002C00015AA82AB83ACF0FDE58124FCF581E4C086
:1002D000E0C0E07480C0E07444C0E08A828B838C0C
:1002E000F0ED120E5FAA82AB83ACF0FDE58124FC39
:1002F000F5818A828B838CF0ED22E4F523F524F5D9
:1003000025F526F533F5347535007536007537005B
:10031000753800753900753A00753B00753C0075FD
:100320003D00753E00756300756400756500756677
:1003300000755F00756000756100756200754700AB
:10034000754800754900754A0053D9BF1201611202
:10035000016E1201781201927474C0E07400C0E062
:100360007480C0E0120E311581158115817474C03E
:10037000E07400C0E07480C0E0120E311581158178
:1003800015817407C0E0E4C0E0E4C0E0C0E0747927
:10039000C0E07400C0E07480C0E0120E31E581243A
:1003A000F9F5817401C0E0E4C0E07401C0E0E4C08C
:1003B000E07486C0E07400C0E07480C0E0120E31CA
:1003C000E58124F9F581751C0175820212023675EA
:1003D0001C0275820212023612022C748FC0E07465
:1003E00000C0E07480C0E0120E31158115811581C6
:1003F00074ACC0E07400C0E07480C0E0120E31152F
:10040000811581158174C9C0E07400C0E07480C09A
:10041000E0120E3115811581158174E6C0E074007B
:10042000C0E07480C0E0120E311581158115817411
:10043000C9C0E07400C0E07480C0E0120E311581C4
:10044000158115817403C0E07401C0E07480C0E0C0
:10045000120E3115811581158174C9C0E07400C078
:10046000E07480C0E0120E31158115811581742071
:10047000C0E07401C0E07480C0E0120E3115811537
:10048000811581743DC0E07401C0E07480C0E01249
:100490000E311581158115817582091202A1AC8278
:1004A000AD83AAF0FB8C278D288A298B2A75820AB6
:1004B0001202A1AA82AB83ACF0FD8A2B8B2C8C2D6F
:1004C0008D2EC02BC02CC02DC02E85378285388341
:1004D0008539F0E53A120CE5AA82E58124FCF58124
:1004E000EA6078852B37852C38852D39852E3AC0E2
:1004F0002BC02CC02DC02E8537828538838539F0DE
:10050000E53A120CD4AA82E58124FCF581EA604B1D
:10051000C037C038C039C03A90999A75F089743F95
:10052000120D15AA82AB83ACF0FDE58124FCF581A8
:1005300074D5C0E07404C0E074B5C0E0743FC0E09E
:100540008A828B838CF0ED120E5F858263858364D3
:1005500085F065F566E58124FCF581C027C028C0DB
:1005600029C02A853B82853C83853DF0E53E120CFF
:10057000E5AA82E58124FCF581EA607885273B8540
:10058000283C85293D852A3EC027C028C029C02A8D
:10059000853B82853C83853DF0E53E120CD4AA82E2
:1005A000E58124FCF581EA604BC03BC03CC03DC006
:1005B0003E90062575F091743F120D15AA82AB830B
:1005C000ACF0FDE58124FCF58174D5C0E07404C075
:1005D000E074B5C0E0743FC0E08A828B838CF0ED9C
:1005E000120E5F85825F85836085F061F562E5812B
:1005F00024FCF581AA23AB24C3EA940AEB6480941B
:1006000080400302076E758A00758C00C28D7522CA
:100610000020A3FD30A3FDD28C30A309108D0280F1
:10062000F8052280F420A309108D0280F8052280AD
:10063000F4C002C003C28C852282C002C003120D26
:10064000B8AC82AD83AEF0FFC004C005C006C007E1
:1006500090000075F0807447120D158582678583C0
:100660006885F069F56AE58124FCF581D003D00244
:10067000858C82120DB8AA82AB83ACF0FDC002C09B
:1006800003C004C00590000075F0807443120D157E
:10069000AA82AB83ACF0FDE58124FCF581C002C0E9
:1006A00003C002C003C004C00585678285688385D6
:1006B00069F0E56A120DC385826785836885F069F4
:1006C000F56AE58124FCF581D003D002AE8A7F0073
:1006D0008E828F83120E52AE82AF83AAF0FBC006C9
:1006E000C007C002C0038567828568838569F0E51D
:1006F0006A120DC3AA82AB83ACF0FDE58124FCF540
:1007000081C002C003C002C003C004C0059037BD51
:1007100075F0867434120D1585822F85833085F02F
:1007200031F532E58124FCF581D003D002C003C04D
:1007300033C034C035C036852F828530838531F093
:10074000E532120CA4AA82E58124FCF581D003EAEB
:10075000D003D002600C852F338530348531358548
:1007600032360ABA00010B8A238B240205F88A2349
:100770008B24C033C034C035C03690000075F0B44F
:100780007443120E5F85823F85834085F041F542B8
:10079000E58124FCF581C3E5259405E52664809474
:1007A000804003020A32758C00C28D75220075826A
:1007B0000A1202A1AE82AF83AAF0FBC037C038C0D4
:1007C00039C03A8E828F838AF0EB120CD4AA82E56C
:1007D0008124FCF581EA60D6D28C7582091202A1CF
:1007E000AA82AB83ACF0FDC03BC03CC03DC03E8A9A
:1007F000828B838CF0ED120CD4AA82E58124FCF567
:1008000081EA7009108D0280D1052280CDC28C85CD
:100810002282120DB8AA82AB83ACF0FDC002C003E5
:10082000C004C00590000075F0807447120D158556
:10083000826785836885F069F56AE58124FCF58126
:10084000858C82120DB8AE82AF83AAF0FBC006C0C1
:1008500007C002C00390000075F0807443120D15AC
:10086000AA82AB83ACF0FDE58124FCF581C002C017
:1008700003C004C0058567828568838569F0E56AE1
:10088000120DC385826785836885F069F56AE58105
:1008900024FCF581AE8A7F008E828F83120E52AEC9
:1008A00082AF83AAF0FBC006C007C002C003856701
:1008B000828568838569F0E56A120DC3AA82AB83DD
:1008C000ACF0FDE58124FCF581C002C003C004C08A
:1008D000059037BD75F0867434120D1585824385F9
:1008E000834485F045F546E58124FCF581C043C08D
:1008F00044C045C046853F828540838541F0E5423E
:10090000120D15AE82AF83AAF0FBE58124FCF581C0
:10091000C002C003C006C007E4C0E0C0E074C8C0A5
:10092000E07442C0E08E828F838AF0EB120CE5AC5B
:1009300082E58124FCF581D007D006D003D002ECFB
:100940007003020A32C002C003C006C007E4C0E060
:10095000C0E074F0C0E07441C0E08E828F838AF002
:10096000EB120CA4AC82E58124FCF581D007D00603
:10097000D003D002EC7003020A32C006C007C002E6
:10098000C003C006C007E4C0E0C0E0C0E07440C0DF
:10099000E08533828534838535F0E536120E5FAC11
:1009A00082AD83AAF0FBE58124FCF581D007D00657
:1009B000C003C006C007C004C005C002C003854311
:1009C000828544838545F0E546120CA4AA82E58120
:1009D00024FCF581D007D006D003EAD003D002D0A2
:1009E00007D0066020AC25E526CC25E0CC33CC250D
:1009F000E0CC33FDEC244BF8A60608A60708A602B7
:100A000008A6038025AC25E526CC25E0CC33CC25F3
:100A1000E0CC33FDEC244BF8EBB2E7FBA60608A6CE
:100A20000708A60208A6031818180525E4B525022C
:100A30000526C3E5259405E52664809480500302CD
:100A40000AE3754700754800754900754A007A0049
:100A50007B00C3EA9405EB6480948050558A04EBD4
:100A6000CC25E0CC33CC25E0CC33EC244BF8860409
:100A7000088605088606088607181818C002C003ED
:100A8000C004C005C006C0078547828548838549E4
:100A9000F0E54A120DC385824785834885F049F504
:100AA0004AE58124FCF581D003D0020ABA00A30BE9
:100AB00080A0E4C0E0C0E074A0C0E07440C0E08565
:100AC00047828548838549F0E54A120E5F85824753
:100AD00085834885F049F54AE58124FCF581E4F5F4
:100AE00025F526C033C034C035C03690000075F0FF
:100AF00080743F120E5FAA82AB83ACF0FDE58124C7
:100B0000FCF581C002C003C004C0057412C0E0E45B
:100B1000C0E07402C0E0E4C0E07486C0E07400C0CD
:100B2000E07480C0E0120E31E58124F9F58174078C
:100B3000C0E0E4C0E07401C0E0E4C0E07479C0E06B
:100B40007400C0E07480C0E0120E31E58124F9F534
:100B500081C063C064C065C066745AC0E07401C0DF
:100B6000E07480C0E0120E31E58124F9F581741241
:100B7000C0E0E4C0E07404C0E0E4C0E07486C0E01B
:100B80007400C0E07480C0E0120E31E58124F9F5F4
:100B9000817407C0E0E4C0E07402C0E0E4C0E07427
:100BA00079C0E07400C0E07480C0E0120E31E581CD
:100BB00024F9F581C05FC060C061C062745AC0E0B2
:100BC0007401C0E07480C0E0120E31E58124F9F5B3
:100BD000817412C0E0E4C0E07406C0E0E4C0E074D8
:100BE00086C0E07400C0E07480C0E0120E31E58180
:100BF00024F9F5817407C0E0E4C0E07404C0E0E4C7
:100C0000C0E07479C0E07400C0E07480C0E0120EEF
:100C100031E58124F9F581C047C048C049C04A7414
:100C20005AC0E07401C0E07480C0E0120E31E5816A
:100C300024F9F5817412C0E0E4C0E07408C0E0E477
:100C4000C0E07486C0E07400C0E07480C0E0120EA2
:100C500031E58124F9F5817407C0E0E4C0E0740552
:100C6000C0E0E4C0E07479C0E07400C0E07480C00B
:100C7000E0120E31E58124F9F581745AC0E0740167
:100C8000C0E07480C0E0120E31E58124F9F5819056
:100C9000000A1201FA020498E4AC83AB82FAF974F8
:100CA0008E020F87FFA8811818120FAFD2D133E63A
:100CB000400730E70B7582012220E706758200228B
:100CC000C2D1120F91E97003F5822230D101B3E451
:100CD00033F58222FFA8811818120FAF120F91E985
:100CE0006401F58222FFA8811818120FAFD2D13308
:100CF000E6400730E70B7582002220E70675820187
:100D000022C2D1120F91E97003F5822220D101B3E2
:100D1000E433F5822212105CBC0003020FFBEF608B
:100D2000FA30D502B2D1E583B4FF03021011E58297
:100D3000B4FF03021011258340072482400B020FE9
:100D4000FB2483145003021011F582EA8DF0A4A84D
:100D5000F0EA8EF0A428F8E435F0F9EB8DF0A42841
:100D6000E935F0F9E433CA8FF0A429F9EA35F0FA4D
:100D7000EBF88EF0A429F9EA35F0FAE433FBEC8DB8
:100D8000F0A429F9EA35F0FAE43BFBE88FF0A42A55
:100D9000FAEB35F0FBE433CCFD8EF0A42AFAEB3508
:100DA000F0FBE43CFCED8FF0A42BFBEC35F0FC20D9
:100DB000E703121029020FDAE4AC82FBFAF9748619
:100DC000020F8712105C7900E583B58202800D5016
:100DD0000312108AE583C395821210A4E5D0C4657E
:100DE000D020E117EA2DFAEB3EFBEC3FFC500974F2
:100DF000011210A4EC4480FC020FDAC3EA9DFAEB66
:100E00009EFBEC9FFC500FC3E499F9E49AFAE49B33
:100E1000FBE49CFCB2D1121029020FDA021A73858E
:100E2000821885831985F01A85091B900E1C0214FF
:100E3000C6C008858108E50824FBF51BE50824FBEE
:100E4000F8861808861908861A900E1C1214C6D047
:100E50000822AC83AB827A007900748E021A911258
:100E6000105C30D502B2D1BF0009BC000302101ED5
:100E7000021011BC0003020FFBE583B4FF0BE582F7
:100E8000B4FF0302101E020FFBE582B4FF03021041
:100E900011C395835007247F400B020FFB2480145D
:100EA0005003021011C0E0E4CCCBCAF98D1C8E1D9A
:100EB0008F1EEF54F0C4F51F758306851FF0EB8479
:100EC000F582E9C4F9EAC4FAEBC4FBEC540FC47828
:100ED00003D6FC18EBD6FB18EAD6FA8582F0EDA40F
:100EE000A8F0FD8582F0EEA428FEE435F0F88582B6
:100EF000F0EFA428FFE435F0F8E99DF9EA9EFAEB5B
:100F00009FFBEC98FCAD1CAE1DAF1E30E7101582A8
:100F1000E92DF9EA3EFAEB3FFBE43CFC80EDC082B0
:100F2000D58398C3E933F9EA33FAEB33FBEC33FCAE
:100F3000C3E99DEA9EEB9FEC9400B3E413F9D00261
:100F4000D0E0C44AFAD003D0E0C44BFBD004D0E0D8
:100F5000F5F0540FC44CFCD082158230F40FD3EC62
:100F600013FCEB13FBEA13FAE913F90582E930E706
:100F70000A74012AFAE43BFBE43CFC020FF2FCABEE
:100F8000F0AA83A982749EC2D1F582121029020FA1
:100F9000DA7901AA82E68F82B5821318E6B5F00EDF
:100FA00018E6B5830918E68A82B58202790022B470
:100FB000800FE5F0700AE5837006E58270027F001D
:100FC000EFB6801518B6001018B6000B18B600065C
:100FD00008080876002208080822B98003EA13B33B
:100FE0004010EA2401FAE43BFBE43CFC50047C8022
:100FF0000582BC000EBB000BBA0008E4F5F0F583D7
:10100000F58222A2D1E582138CF092F78B838A823B
:1010100022E4F583F58275F080F4A2D11322E4F581
:1010200083F58275F0C0747F227804EC7011E5823C
:1010300024F8500AF582E4C9CACBFCD8EF22EC7838
:1010400020058220E713D5820122C3E933F9EA3370
:10105000FAEB33FBEC33FCD8EA158222AA82AB838D
:10106000A2F73392D16002D2F7F582ACF0E5812489
:10107000F9F8E6FD08E6FE0886F008E6A2F73392E6
:10108000D56002D2F7F583AFF022E582C583F58201
:10109000A2D133A2D592D11392D5ECCFFCEBCEFBEB
:1010A000EACDFA226040F82582500274FFF582E80A
:1010B00024F8501ECCCBCAF9E4CC24F85014CBCA87
:1010C000F9E4CB24F8500BCAF9E4CA24F8500379A8
:1010D000002224086010F8C3EC13FCEB13FBEA13A6
:1010E000FAE913F9D8F122AA8274F8C0E07410C0AA
:1010F000E0C00AC00B8A82220511E4B51102051274
:1011000022AA8274302AFA24C6500A74072AFA30B6
:1011100000034302208A820210E7E582FAC4540FDA
:10112000F582C002121101D002740F5AF582021129
:1011300001AA0CAB0DAC0EAD0FAE10751720EE2E44
:10114000FEED235401FF4206EA2AFAEB33FBEC33AF
:10115000FCED33FDC3EE95134008EEC39513FE433B
:101160000201D517D98A0C8B0D8C0E8D0F8E102293
:101170007877E624D075F00AA4FA7878E624D02AA5
:10118000FA78768603BB2D04C3E49AFA751301C37B
:10119000E464808AF063F08095F050297517038A23
:1011A0000374F62517401C0513E51714246BF8E5A6
:1011B00017246BF98704A604772E1BEBFA6004054D
:1011C0001780DE8B02EA30E70D786C8603786DA617
:1011D00003786C762E0AE515600AE51504FB2513E5
:1011E000F5138005300B020513786B8603E4BB2DE5
:1011F0000104FB70062006033007020513300403C8
:101200000212B7300557EB600C75822DC002121028
:10121000E7D002801C30060C75822BC0021210E74A
:10122000D002800D30070A758220C0021210E7D06C
:1012300002786C8604BC2E0C758230C0021210E756
:10124000D0021514AC141514C3E5139C400302120C
:10125000FB758230C0021210E7D00280E7AC141593
:1012600014C3E5139C500C758220C0021210E7D005
:101270000280EA786B8604BC2D0C75822DC00212A8
:1012800010E7D002801C30060C75822BC0021210B1
:10129000E7D002800D30070A758220C0021210E7E5
:1012A000D002786C8604BC2E52758230C0021210B7
:1012B000E7D00215148044EB600E75822DC0021237
:1012C00010E7D0021514802030060E75822BC00264
:1012D0001210E7D0021514800F30070C758220C061
:1012E000021210E7D0021514786C8603BB2E0C7521
:1012F0008230C0021210E7D0021514751701C20D1A
:10130000E517246BF88603BB45030213B8BB2E34E4
:101310008A03C3E464808BF063F08095F0500F750E
:101320008230C0031210E7D0031B8B0280E48B02D3
:10133000D20DE5157038200B030213B875822E12FA
:1013400010E78074300D278A03EB30E71FC3E46495
:10135000808515F063F08095F0500C758230C003E5
:101360001210E7D00315150B8B0280DD8B02300DB8
:101370000EC3E464808515F063F08095F05021E59C
:1013800017246BF886038B82C0021210E7D002305C
:101390000D0EE517246BF88603BB2E02800215158F
:1013A0001514C3E464808515F063F08095F0400364
:1013B000200D050517021300C3E464808515F06352
:1013C000F08095F0500A7582301210E7151580E80C
:1013D00030040FAA141514EA60087582201210E771
:1013E00080F122E5157003300B0D74072515FAE521
:1013F00014C39AF5148006E51424FAF51475170041
:10140000786B8602BA2B0F20060C786B76202007AB
:10141000057517010514200419AA14C3E464808A11
:10142000F063F08095F0500A7582201210E71514D1
:1014300080E7C20DE517246BF88602BA00028069C6
:10144000BA451F3000027665C3E464808515F063F9
:10145000F08095F0500A7582301210E7151580E87B
:10146000D20DC3E5179402E433FA7014EA700EC388
:10147000E464808515F063F08095F04003300D162C
:10148000E517246BF886028A821210E7E51724FD1F
:1014900050121515800E7402B51709300B067582AF
:1014A0002E1210E70517021434300419AA14C3E4ED
:1014B00064808AF063F08095F0500A7582201210E3
:1014C000E7151480E72285820A85830BE4F511F580
:1014D00012AA18AB19AC1A8A828B838CF0121AB537
:1014E000FD74012AF518E43BF5198C1AEDFA700326
:1014F000021A6CBA25028003021A64C204C205C231
:1015000006C207C208C209C20AC20BC201C202C295
:10151000037513007514007515FFAB18AC19AD1ADF
:101520008B828C838DF0121AB5FAA3AB82AC838BBD
:10153000188C198D1ABA25078A821210E780928AB0
:1015400006BE3000402E8A06EE24C6402774FFB542
:101550001513E51475F00AA4FEEA24D02EF51470D4
:10156000BFD20580BBE51575F00AA4FEEA24D02E93
:10157000F51580ACBA2E0A74FFB515A47515008058
:101580009F8A06BE6100400E8A06EE2485400753FE
:1015900002DFD2008002C200BA20028075BA2303A3
:1015A000021621BA2A03021626BA2B02805FBA2D30
:1015B000028055BA4202805FBA430302166BBA44F6
:1015C000030217A6BA45030217C0BA46030217BCA6
:1015D000BA47030217C4BA49030217A6BA4C0280DD
:1015E0003BBA4E030217C8BA4F030217ADBA5003F5
:1015F00002173FBA530302168FBA55030217B2BA45
:1016000058030217B70217F2D204021520D20602BD
:101610001520D207021520D209021520D20A021580
:1016200020D20B02152074FFB5152030090BE51BE5
:1016300014F8881B8614021520E51B24FEF8881B6D
:101640008606088607188E1402152030090BE51B44
:1016500014F8881B8615021520E51B24FEF8881B4C
:101660008606088607188E1502152030090AE51B24
:1016700014F8881B8602800FE51B24FEF8881B8661
:1016800003088604188B028A821210E70217F7E516
:101690001B24FDF8881B8603088604088605181895
:1016A0008B0C8C0D8D0E8B828C838DF0121C09ABF4
:1016B00082AC838B1674FFB5150385161520041DA7
:1016C000C3E51695145016E514C39516F514AB141E
:1016D0001514EB60087582201210E780F1850C82EA
:1016E000850D83850EF0121AB5FBFA6029AB15152E
:1016F00015C3E464808BF063F08095F050188A8203
:101700001210E7AB0CAC0DAD0E0BBB00010C8B0C3B
:101710008C0D8D0E80C72004030217F7C3E51695C4
:101720001440030217F7E514C39516F514AB14150E
:1017300014EB70030217F77582201210E780EEE5B4
:101740001B24FDF8881B86030886040886051818E4
:101750008B0C8C0D8D0EE50EFB30E7047A43801365
:10176000EB546060047A50800AEB30E6047A4980DA
:10177000027A588A82C0021210E775823A1210E784
:101780007582301210E77582781210E7D002BA49DC
:1017900002800BBA50028006850D8212111A850C48
:1017A0008212111A8051D20875130A804A751308E3
:1017B000804575130A8040751310803BD201803735
:1017C000D2028033D203802FE51B24FDF8881B86CC
:1017D0000308860408860518188B0C8C0D8D0E8B5B
:1017E000828C838DF0E511121BF0A3E512121BF021
:1017F00080058A821210E720010620020330037060
:10180000E51B24FCF8881B86030886040886050867
:1018100086061818188B0C8C0D8D0E8E0FE50CE5B6
:101820000DE50EE50F8B828C838DF0EE121AD174CC
:10183000FFB51503751506300327747F550FFB8B15
:1018400010E510EB2BFB8B10E50E30E7067401451D
:1018500010F510E51024684006749925104002D256
:10186000023002061213E30214D11211700214D1D5
:10187000E51370030214D17B7030092BE51B14F8BB
:10188000881BE6FC3395E0FDFEFF8C0C8D0D8E0E63
:101890008F0F20085EAC0C7D007E007F008C0C8DCD
:1018A0000D8E0E8F0F804C300A1FE51B24FCF8882C
:1018B0001B86040886050886060886071818188CF3
:1018C0000C8D0D8E0E8F0F802AE51B24FEF8881BD1
:1018D000860408860518ED3395E0FEFF8C0C8D0D0F
:1018E0008E0E8F0F20080CAC0CAD0D7E007F008E8D
:1018F0000E8F0F300B43E50C450D450E450F60393B
:101900007408B5130C758230C0031210E7D0038041
:10191000287410B51323758230C0031210E7D0036A
:1019200030000C758278C0031210E7D003800A756E
:101930008258C0031210E7D003300825AC0CAD0D5F
:10194000AE0EE50FFF30E717C3E49CFCE49DFDE419
:101950009EFEE49FFF8C0C8D0D8E0E8F0F8002C2B9
:1019600008751600D20C8B00751000C000121131E2
:10197000D000200C0DE510C4FCE6FD4CF6188803E1
:101980008002A6100516B20CE50C450D450E450F5C
:1019900070D68803E514700375140120051A20041D
:1019A00017E51604FCC39514500E758220C003126F
:1019B00010E7D003151480E930080E75822DC0039E
:1019C0001210E7D00315148024E516602030060EAF
:1019D00075822BC0031210E7D0031514800F300757
:1019E0000C758220C0031210E7D003151420041ECA
:1019F000AC141514C3E5169C50273005047C3080C8
:101A0000027C208C82C0031210E7D00380E2C3E581
:101A10001695145009E514C39516F5148003751432
:101A2000008B00AB161516EB6022B20C200C0A08D6
:101A3000E6C4540FFB8B1080078603740F5BF51010
:101A4000851082C000121101D00080D7200403024B
:101A500014D1AB141514EB70030214D1758220124B
:101A600010E780EE8A821210E70214D18511828578
:101A7000128322AA82BA0A0810990280FB75990D76
:101A800010990280FB8A9922FCABF0AA83A9827488
:101A90009EF582C2D1EC30E716D2D1E9F42401F9E7
:101AA000EAF43400FAEBF43400FBECF43400FC12FA
:101AB0001029020FDA20F71430F6148883A8822048
:101AC000F507E6A88375830022E280F7E49322E01D
:101AD00022C0E0F84582458345F07009F5F0FBFC33
:101AE000FDFE021B9FE823A2F792E0F8A982AA83D9
:101AF000D2F7ABF07C007E07C3749798404074FF28
:101B00002EFE740A89F0A4F985F082740A8AF0A482
:101B1000FA85F083740A8BF0A4FB740529F9EA3581
:101B200082FAEB3583FB740035F0FCC3EC13FCEB5D
:101B300013FBEA13FAE913F908EC70EF80BAE8C373
:101B4000947FF88B838EF0E4FBFCFDFEFF08C3E975
:101B500033F9EA33FAE58333F583EB3BD4FBEC3C12
:101B6000D4FCED3DD4FDEE3ED4FEEF3FD4FF602D1E
:101B700005F074052BD4FBE43CD4FCE43DD4FDE437
:101B80003ED4FEE43FD4FF758204C3EF13FFEE138F
:101B9000FEED13FDEC13FCEB13FBD582EDD8AF7813
:101BA0006BD0E020E704762B8002762D087906E7DB
:101BB000C4540F4430F608B90603762E08E7540FD4
:101BC0004430F60819B902E7764508E5F020E70445
:101BD000762B8004762DF4040875F00A844430F6E0
:101BE00008E5F04430F608E4F690006B75F040220A
:101BF00020F71030F6118883A88220F507F6A88315
:101C000075830022F280F7F022AA82AB83ACF07DCC
:101C1000007E008A828B838CF0121AB5FFA3AA8201
:101C2000AB83EF60070DBD00EA0E80E78D828E83E7
:101C30002200000000000000000000000000000082
:00000001FF
