:1000000002000375817012010DE582600302006F2A
:10001000780079007A007B007C007D00EC4D601C4C
:1000200088828983E493A3A882A9838A828B83F040
:10003000A3AA82AB831CBCFFE31D80E07582007520
:1000400083007C007D00EC4D600AE4F0A31CBCFF43
:10005000F51D80F27582007583007C007D00EC4DFB
:10006000600AE4F0A31CBCFFF51D80F21200D2125E
:10007000026C80FE1B5B324A000D0A5573696E6785
:100080002041444320776974682061726269747208
:100090006172792070696E732E0D0A000D54313D26
:1000A00025352E3366732C207631726D733A2535E3
:1000B0002E336620562C207632726D733A25352EFB
:1000C000336620562C2070686173653D25352E33CC
:1000D00066002243A41075E10175E25075E3002229
:1000E00043A90343B20375EF0422759810758D3050
:1000F000538EF4438E08858D8B53890F438920D20C
:100100008ED299225389F0438901C28C2253D9BFE0
:1001100075FF8075EF0643A90343B2037598107508
:100120008D30538EF4438E08858D8B53890F438910
:1001300020D28ED29943A40175E10175E240758207
:100140000022AA82438E407592D07593FF859294C7
:100150008593957591047B00C3EB9A500BE5913024
:10016000E7FB53917F0B80F075910022AA82AB834D
:10017000BA0004BB0001227582F9C002C00312015B
:10018000427582F91201427582F91201427582FAB2
:10019000120142D003D0021ABAFF011B80D275BCF3
:1001A000F875E88075D10822AA82851CF005F074E4
:1001B00001800225E0D5F0FBFBEA24FC4033EA2A6B
:1001C0002A9001C5730201D10201D90201E10201A5
:1001D000E9EBF452F1EB42D422EBF452F2EB42D5CC
:1001E00022EBF452F3EB42D622EBF4FA52F4EB4258
:1001F000DF228582BB75BA1FD2EC20ECFDD2EC2049
:10020000ECFDAABD7B00ADBE7C00EC2AF582ED3B87
:10021000F583221201F2120800AA82AB83ACF0FD32
:10022000C002C003C004C00590333375F05374405E
:1002300012087DAA82AB83ACF0FDE58124FCF58138
:10024000E4C0E0C0E07480C0E07444C0E08A828B07
:10025000838CF0ED1209C7AA82AB83ACF0FDE58177
:1002600024FCF5818A828B838CF0ED22E4F523F562
:1002700024F539F53AF53BF53C753D00753E0075C2
:100280003F0075400075410075420075430075449C
:100290000053D9BF1200D31200E01200EA12010489
:1002A0007474C0E07400C0E07480C0E01209991555
:1002B00081158115817479C0E07400C0E07480C03C
:1002C000E0120999158115811581751C017582024D
:1002D0001201A8751C027582021201A812019E75F6
:1002E0008209120213AA82AB83ACF0FD8A298B2A01
:1002F0008C2B8D2C75820A120213AA82AB83ACF070
:10030000FD8A2D8B2E8C2F8D30C02DC02EC02FC07E
:1003100030853D82853E83853FF0E54012084DAA39
:1003200082E58124FCF581EA6078852D3D852E3EAD
:10033000852F3F853040C02DC02EC02FC030853D59
:1003400082853E83853FF0E54012083CAA82E58124
:1003500024FCF581EA604BC03DC03EC03FC04090E8
:10036000999A75F089743F12087DAA82AB83ACF02C
:10037000FDE58124FCF58174D5C0E07404C0E0740F
:10038000B5C0E0743FC0E08A828B838CF0ED120927
:10039000C785825585835685F057F558E58124FC3D
:1003A000F581C029C02AC02BC02C8541828542839B
:1003B0008543F0E54412084DAA82E58124FCF581CD
:1003C000EA6078852941852A42852B43852C44C0E3
:1003D00029C02AC02BC02C8541828542838543F0E9
:1003E000E54412083CAA82E58124FCF581EA604BD1
:1003F000C041C042C043C04490062575F091743F8F
:1004000012087DAA82AB83ACF0FDE58124FCF58166
:1004100074D5C0E07404C0E074B5C0E0743FC0E0BF
:100420008A828B838CF0ED1209C785825985835AA5
:1004300085F05BF55CE58124FCF581AA23AB24C340
:10044000EA940AEB6480948040030205B5758A0043
:10045000758C00C28D75220020A3FD30A3FDD28CC7
:1004600030A309108D0280F8052280F420A3091022
:100470008D0280F8052280F4C002C003C28C852260
:1004800082C002C003120920AC82AD83AEF0FFC06F
:1004900004C005C006C00790000075F080744712C4
:1004A000087D85825D85835E85F05FF560E581244A
:1004B000FCF581D003D002858C82120920AA82AB80
:1004C00083ACF0FDC002C003C004C00590000075FD
:1004D000F080744312087DAA82AB83ACF0FDE58105
:1004E00024FCF581C002C003C002C003C004C005E3
:1004F000855D82855E83855FF0E56012092B8582CC
:100500005D85835E85F05FF560E58124FCF581D033
:1005100003D002AE8A7F008E828F831209BAAE8228
:10052000AF83AAF0FBC006C007C002C003855D828E
:10053000855E83855FF0E56012092BAA82AB83ACF0
:10054000F0FDE58124FCF581C002C003C002C003B8
:10055000C004C00590126F75F083743912087D8550
:10056000823585833685F037F538E58124FCF581C1
:10057000D003D002C003C039C03AC03BC03C85356F
:10058000828536838537F0E53812080CAA82E5812A
:1005900024FCF581D003EAD003D002600C85353904
:1005A00085363A85373B85383C0ABA00010B8A23E9
:1005B0008B2402043F8A238B24C039C03AC03BC03D
:1005C0003C90000075F0B474431209C785824D85D4
:1005D000834E85F04FF550E58124FCF581758C0044
:1005E000C28D75220075820A120213AE82AF83AAF1
:1005F000F0FBC03DC03EC03FC0408E828F838AF07A
:10060000EB12083CAA82E58124FCF581EA60D6D28F
:100610008C758209120213AA82AB83ACF0FDC04133
:10062000C042C043C0448A828B838CF0ED12083CE8
:10063000AA82E58124FCF581EA7009108D0280D13F
:10064000052280CDC28C852282120920AA82AB832A
:10065000ACF0FDC002C003C004C00590000075F0FE
:1006600080744712087D85825D85835E85F05FF525
:1006700060E58124FCF581858C82120920AE82AF71
:1006800083AAF0FBC006C007C002C003900000753B
:10069000F080744312087DAA82AB83ACF0FDE58143
:1006A00024FCF581C002C003C004C005855D8285BD
:1006B0005E83855FF0E56012092B85825D85835E30
:1006C00085F05FF560E58124FCF581AE8A7F008EC0
:1006D000828F831209BAAE82AF83AAF0FBC006C034
:1006E00007C002C003855D82855E83855FF0E5609B
:1006F00012092BAA82AB83ACF0FDE58124FCF581C5
:10070000C002C003C004C00590126F75F083743935
:1007100012087D85825185835285F053F554E58119
:1007200024FCF581E4C0E0C0E0C0E07440C0E08596
:100730003982853A83853BF0E53C1209C7AE82AF2A
:1007400083AAF0FBE58124FCF581C006C007C00246
:10075000C0038551828552838553F0E55412080CFD
:10076000AA82E58124FCF581EA6025C051C052C00F
:1007700053C054854D82854E83854FF0E550120855
:100780007DAA82AB83ACF0FDE58124FCF58180324B
:10079000C051C052C053C054854D82854E83854F91
:1007A000F0E55012087D85825D85835E85F05FF5FA
:1007B00060E58124FCF581AA5DAB5EAC5FE560B2CB
:1007C000E7FDC002C003C004C005C059C05AC05BE9
:1007D000C05CC055C056C057C058C039C03AC03BB5
:1007E000C03C749CC0E07400C0E07480C0E012099A
:1007F00099E58124EDF58190000A12016C0202DF77
:10080000E4AC83AB82FAF9748E020AEFFFA8811878
:1008100018120B17D2D133E6400730E70B7582016F
:100820002220E70675820022C2D1120AF9E970037C
:10083000F5822230D101B3E433F58222FFA881187A
:1008400018120B17120AF9E96401F58222FFA88138
:100850001818120B17D2D133E6400730E70B758218
:10086000002220E70675820122C2D1120AF9E9703E
:1008700003F5822220D101B3E433F58222120BC4A6
:10088000BC0003020B63EF60FA30D502B2D1E583FE
:10089000B4FF03020B79E582B4FF03020B792583D1
:1008A00040072482400B020B632483145003020B85
:1008B00079F582EA8DF0A4A8F0EA8EF0A428F8E495
:1008C00035F0F9EB8DF0A428E935F0F9E433CA8F5F
:1008D000F0A429F9EA35F0FAEBF88EF0A429F9EA48
:1008E00035F0FAE433FBEC8DF0A429F9EA35F0FA9F
:1008F000E43BFBE88FF0A42AFAEB35F0FBE433CCC1
:10090000FD8EF0A42AFAEB35F0FBE43CFCED8FF011
:10091000A42BFBEC35F0FC20E703120B91020B42F9
:10092000E4AC82FBFAF97486020AEF120BC4790078
:10093000E583B58202800D5003120BF2E583C39567
:1009400082120C0CE5D0C465D020E117EA2DFAEB39
:100950003EFBEC3FFC50097401120C0CEC4480FC93
:10096000020B42C3EA9DFAEB9EFBEC9FFC500FC3C7
:10097000E499F9E49AFAE49BFBE49CFCB2D1120BF3
:1009800091020B420215DB85821885831985F01AC6
:1009900085091B90098402102EC008858108E5088E
:1009A00024FBF51BE50824FBF88618088619088641
:1009B0001A90098412102ED00822AC83AB827A00E0
:1009C0007900748E0215F9120BC430D502B2D1BF72
:1009D0000009BC0003020B86020B79BC0003020B6A
:1009E00063E583B4FF0BE582B4FF03020B86020BC1
:1009F00063E582B4FF03020B79C395835007247F1C
:100A0000400B020B632480145003020B79C0E0E416
:100A1000CCCBCAF98D1C8E1D8F1EEF54F0C4F51F70
:100A2000758306851FF0EB84F582E9C4F9EAC4FA00
:100A3000EBC4FBEC540FC47803D6FC18EBD6FB18C0
:100A4000EAD6FA8582F0EDA4A8F0FD8582F0EEA446
:100A500028FEE435F0F88582F0EFA428FFE435F0B5
:100A6000F8E99DF9EA9EFAEB9FFBEC98FCAD1CAE11
:100A70001DAF1E30E7101582E92DF9EA3EFAEB3F73
:100A8000FBE43CFC80EDC082D58398C3E933F9EAEE
:100A900033FAEB33FBEC33FCC3E99DEA9EEB9FECAE
:100AA0009400B3E413F9D002D0E0C44AFAD003D0E2
:100AB000E0C44BFBD004D0E0F5F0540FC44CFCD0A4
:100AC00082158230F40FD3EC13FCEB13FBEA13FA1C
:100AD000E913F90582E930E70A74012AFAE43BFBDD
:100AE000E43CFC020B5AFCABF0AA83A982749EC2C0
:100AF000D1F582120B91020B427901AA82E68F8214
:100B0000B5821318E6B5F00E18E6B5830918E68A23
:100B100082B58202790022B4800FE5F0700AE58385
:100B20007006E58270027F00EFB6801518B60010DF
:100B300018B6000B18B60006080808760022080848
:100B40000822B98003EA13B34010EA2401FAE43B17
:100B5000FBE43CFC50047C800582BC000EBB000B17
:100B6000BA0008E4F5F0F583F58222A2D1E58213FC
:100B70008CF092F78B838A8222E4F583F58275F0FC
:100B800080F4A2D11322E4F583F58275F0C0747F5E
:100B9000227804EC7011E58224F8500AF582E4C949
:100BA000CACBFCD8EF22EC7820058220E713D5824F
:100BB0000122C3E933F9EA33FAEB33FBEC33FCD817
:100BC000EA158222AA82AB83A2F73392D16002D2C5
:100BD000F7F582ACF0E58124F9F8E6FD08E6FE08B9
:100BE00086F008E6A2F73392D56002D2F7F583AF1C
:100BF000F022E582C583F582A2D133A2D592D1132A
:100C000092D5ECCFFCEBCEFBEACDFA226040F82582
:100C100082500274FFF582E824F8501ECCCBCAF94A
:100C2000E4CC24F85014CBCAF9E4CB24F8500BCA16
:100C3000F9E4CA24F8500379002224086010F8C3AC
:100C4000EC13FCEB13FBEA13FAE913F9D8F122AA2F
:100C5000827460C0E0740CC0E0C00AC00B8A8222BB
:100C60000511E4B51102051222AA8274302AFA2471
:100C7000C6500A74072AFA3000034302208A82020F
:100C80000C4FE582FAC4540FF582C002120C69D0F1
:100C900002740F5AF582020C69AA0CAB0DAC0EADB2
:100CA0000FAE10751720EE2EFEED235401FF420605
:100CB000EA2AFAEB33FBEC33FCED33FDC3EE95137C
:100CC0004008EEC39513FE430201D517D98A0C8B59
:100CD0000D8C0E8D0F8E1022786DE624D075F00AE3
:100CE000A4FA786EE624D02AFA786C8603BB2D0429
:100CF000C3E49AFA751301C3E464808AF063F08058
:100D000095F050297517038A0374F62517401C05C2
:100D100013E517142461F8E5172461F98704A60484
:100D2000772E1BEBFA6004051780DE8B02EA30E7B2
:100D30000D786286037863A6037862762E0AE5153D
:100D4000600AE51504FB2513F5138005300B020539
:100D50001378618603E4BB2D0104FB7006200603B3
:100D60003007020513300403020E1F300557EB60F5
:100D70000C75822DC002120C4FD002801C30060C64
:100D800075822BC002120C4FD002800D30070A75FD
:100D90008220C002120C4FD00278628604BC2E0C56
:100DA000758230C002120C4FD0021514AC14151409
:100DB000C3E5139C4003020E63758230C002120C1F
:100DC0004FD00280E7AC141514C3E5139C500C758A
:100DD0008220C002120C4FD00280EA78618604BCE7
:100DE0002D0C75822DC002120C4FD002801C3006D3
:100DF0000C75822BC002120C4FD002800D30070AF6
:100E0000758220C002120C4FD00278628604BC2E7C
:100E100052758230C002120C4FD00215148044EB80
:100E2000600E75822DC002120C4FD0021514802066
:100E300030060E75822BC002120C4FD002151480A2
:100E40000F30070C758220C002120C4FD00215140F
:100E500078628603BB2E0C758230C002120C4FD014
:100E6000021514751701C20DE5172461F88603BB3E
:100E70004503020F20BB2E348A03C3E464808BF049
:100E800063F08095F0500F758230C003120C4FD084
:100E9000031B8B0280E48B02D20DE5157038200B0A
:100EA00003020F2075822E120C4F8074300D278A9A
:100EB00003EB30E71FC3E464808515F063F0809591
:100EC000F0500C758230C003120C4FD00315150B77
:100ED0008B0280DD8B02300D0EC3E464808515F03B
:100EE00063F08095F05021E5172461F886038B822A
:100EF000C002120C4FD002300D0EE5172461F886A7
:100F000003BB2E02800215151514C3E464808515F9
:100F1000F063F08095F04003200D050517020E6880
:100F2000C3E464808515F063F08095F0500A758203
:100F300030120C4F151580E830040FAA141514EA6E
:100F40006008758220120C4F80F122E51570033085
:100F50000B0D74072515FAE514C39AF5148006E500
:100F60001424FAF51475170078618602BA2B0F2045
:100F7000060C7861762020070575170105142004FA
:100F800019AA14C3E464808AF063F08095F0500AD3
:100F9000758220120C4F151480E7C20DE5172461ED
:100FA000F88602BA00028069BA451F3000027665F1
:100FB000C3E464808515F063F08095F0500A758273
:100FC00030120C4F151580E8D20DC3E5179402E4DA
:100FD00033FA7014EA700EC3E464808515F063F090
:100FE0008095F04003300D16E5172461F886028ADB
:100FF00082120C4FE51724FD50121515800E740255
:10100000B51709300B0675822E120C4F0517020F0B
:101010009C300419AA14C3E464808AF063F08095BC
:10102000F0500A758220120C4F151480E722858239
:101030000A85830BE4F511F512AA18AB19AC1A8ACC
:10104000828B838CF012161DFD74012AF518E43B87
:10105000F5198C1AEDFA70030215D4BA2502800333
:101060000215CCC204C205C206C207C208C209C228
:101070000AC20BC201C202C20375130075140075C7
:1010800015FFAB18AC19AD1A8B828C838DF012163C
:101090001DFAA3AB82AC838B188C198D1ABA250765
:1010A0008A82120C4F80928A06BE3000402E8A0639
:1010B000EE24C6402774FFB51513E51475F00AA495
:1010C000FEEA24D02EF51470BFD20580BBE515755D
:1010D000F00AA4FEEA24D02EF51580ACBA2E0A74CC
:1010E000FFB515A4751500809F8A06BE6100400EED
:1010F0008A06EE248540075302DFD2008002C20038
:10110000BA20028075BA2303021189BA2A03021198
:101110008EBA2B02805FBA2D028055BA4202805FE0
:10112000BA43030211D3BA440302130EBA450302B1
:101130001328BA4603021324BA470302132CBA49F0
:101140000302130EBA4C02803BBA4E03021330BAAC
:101150004F03021315BA50030212A7BA5303021128
:10116000F7BA550302131ABA580302131F02135A8F
:10117000D204021088D206021088D207021088D248
:1011800009021088D20A021088D20B02108874FF5C
:10119000B5152030090BE51B14F8881B86140210C6
:1011A00088E51B24FEF8881B8606088607188E141F
:1011B00002108830090BE51B14F8881B86150210F5
:1011C00088E51B24FEF8881B8606088607188E15FE
:1011D00002108830090AE51B14F8881B8602800F6C
:1011E000E51B24FEF8881B8603088604188B028AF8
:1011F00082120C4F02135FE51B24FDF8881B860347
:1012000008860408860518188B0C8C0D8D0E8B82B1
:101210008C838DF0121771AB82AC838B1674FFB583
:10122000150385161520041DC3E51695145016E503
:1012300014C39516F514AB141514EB6008758220D1
:10124000120C4F80F1850C82850D83850EF01216ED
:101250001DFBFA6029AB151515C3E464808BF063A0
:10126000F08095F050188A82120C4FAB0CAC0DAD8B
:101270000E0BBB00010C8B0C8C0D8D0E80C7200457
:101280000302135FC3E5169514400302135FE514D0
:10129000C39516F514AB141514EB700302135F75A8
:1012A0008220120C4F80EEE51B24FDF8881B86037C
:1012B00008860408860518188B0C8C0D8D0EE50E1B
:1012C000FB30E7047A438013EB546060047A50806B
:1012D0000AEB30E6047A4980027A588A82C0021208
:1012E0000C4F75823A120C4F758230120C4F75827A
:1012F00078120C4FD002BA4902800BBA5002800615
:10130000850D82120C82850C82120C828051D208CB
:1013100075130A804A751308804575130A80407555
:101320001310803BD2018037D2028033D203802F4A
:10133000E51B24FDF8881B8603088604088605182B
:10134000188B0C8C0D8D0E8B828C838DF0E5111219
:101350001758A3E51212175880058A82120C4F20E5
:101360000106200203300370E51B24FCF8881B866D
:10137000030886040886050886061818188B0C8C46
:101380000D8D0E8E0FE50CE50DE50EE50F8B828CB5
:10139000838DF0EE12163974FFB5150375150630FE
:1013A0000327747F550FFB8B10E510EB2BFB8B1085
:1013B000E50E30E70674014510F510E5102468408D
:1013C00006749925104002D202300206120F4B0219
:1013D0001039120CD8021039E51370030210397B52
:1013E0006630092BE51B14F8881BE6FC3395E0FDFD
:1013F000FEFF8C0C8D0D8E0E8F0F20085EAC0C7DC9
:10140000007E007F008C0C8D0D8E0E8F0F804C3077
:101410000A1FE51B24FCF8881B860408860508863D
:10142000060886071818188C0C8D0D8E0E8F0F80ED
:101430002AE51B24FEF8881B860408860518ED3370
:1014400095E0FEFF8C0C8D0D8E0E8F0F20080CACDE
:101450000CAD0D7E007F008E0E8F0F300B43E50C20
:10146000450D450E450F60397408B5130C75823073
:10147000C003120C4FD00380287410B5132375825B
:1014800030C003120C4FD00330000C758278C003BB
:10149000120C4FD003800A758258C003120C4FD033
:1014A00003300825AC0CAD0DAE0EE50FFF30E7178D
:1014B000C3E49CFCE49DFDE49EFEE49FFF8C0C8D48
:1014C0000D8E0E8F0F8002C208751600D20C8B0095
:1014D000751000C000120C99D000200C0DE510C44E
:1014E000FCE6FD4CF61888038002A6100516B20C27
:1014F000E50C450D450E450F70D68803E5147003C5
:1015000075140120051A200417E51604FCC3951470
:10151000500E758220C003120C4FD003151480E9C1
:1015200030080E75822DC003120C4FD003151480A5
:1015300024E516602030060E75822BC003120C4F76
:10154000D0031514800F30070C758220C003120CD5
:101550004FD003151420041EAC141514C3E5169CBB
:1015600050273005047C3080027C208C82C003121E
:101570000C4FD00380E2C3E51695145009E514C35F
:101580009516F51480037514008B00AB161516EB39
:101590006022B20C200C0A08E6C4540FFB8B1080AA
:1015A000078603740F5BF510851082C000120C696A
:1015B000D00080D7200403021039AB141514EB704F
:1015C00003021039758220120C4F80EE8A82120CB1
:1015D0004F02103985118285128322AA82BA0A0825
:1015E00010990280FB75990D10990280FB8A99224F
:1015F000FCABF0AA83A982749EF582C2D1EC30E7DD
:1016000016D2D1E9F42401F9EAF43400FAEBF43407
:1016100000FBECF43400FC120B91020B4220F71497
:1016200030F6148883A88220F507E6A88375830026
:1016300022E280F7E49322E022C0E0F8458245836D
:1016400045F07009F5F0FBFCFDFE021707E823A248
:10165000F792E0F8A982AA83D2F7ABF07C007E076C
:10166000C3749798404074FF2EFE740A89F0A4F961
:1016700085F082740A8AF0A4FA85F083740A8BF0EC
:10168000A4FB740529F9EA3582FAEB3583FB740073
:1016900035F0FCC3EC13FCEB13FBEA13FAE913F986
:1016A00008EC70EF80BAE8C3947FF88B838EF0E487
:1016B000FBFCFDFEFF08C3E933F9EA33FAE58333A7
:1016C000F583EB3BD4FBEC3CD4FCED3DD4FDEE3E8E
:1016D000D4FEEF3FD4FF602D05F074052BD4FBE45E
:1016E0003CD4FCE43DD4FDE43ED4FEE43FD4FF759D
:1016F0008204C3EF13FFEE13FEED13FDEC13FCEBBE
:1017000013FBD582EDD8AF7861D0E020E704762BCB
:101710008002762D087906E7C4540F4430F608B9E4
:101720000603762E08E7540F4430F60819B902E78D
:10173000764508E5F020E704762B8004762DF40446
:101740000875F00A844430F608E5F04430F608E401
:10175000F690006175F0402220F71030F611888372
:10176000A88220F507F6A88375830022F280F7F09F
:1017700022AA82AB83ACF07D007E008A828B838CB0
:10178000F012161DFFA3AA82AB83EF60070DBD0008
:10179000EA0E80E78D828E832200000000000000A8
:00000001FF
