:1000000002000375814312017AE582600302006FEA
:10001000780079007A007B007C007D00EC4D601C4C
:1000200088828983E493A3A882A9838A828B83F040
:10003000A3AA82AB831CBCFFE31D80E07582007520
:1000400083007C007D00EC4D600AE4F0A31CBCFF43
:10005000F51D80F27582007583007C007D00EC4DFB
:10006000600AE4F0A31CBCFFF51D80F212017912B6
:10007000025E80FE1B5B324A00506861736F722023
:10008000546573742050726F6772616D0A417070AD
:100090006C7920616E616C6F6720766F6C7461673C
:1000A000657320746F2050322E302C2050322E3148
:1000B0002C2050322E322C20616E642050322E3390
:1000C0000A46696C653A2025730A436F6D70696C46
:1000D00065643A2025732C2025730A0A00433A5C94
:1000E00055736572735C6A6566667265796C696F73
:1000F000755C4465736B746F705C656C65633239F5
:10010000315C6C6162355C43383531463338785F39
:100110004144435F6D756C7469706C655F696E70A6
:100120007574732E63004D61722020362032303199
:10013000360031373A32333A3230001B5B363B31CE
:1001400048000D663D256620487A2C200056303D3B
:10015000252E3366562C200056313D252E3366560B
:100160002C20000D70686173653D2566206465670D
:1001700072656573001B5B4B002253D9BF43A90214
:1001800043B20353F3F043D60F75BB0875BA1F751E
:10019000BCF875E88075D10875FF8075EF0643A43B
:1001A0001075E10175E240758D98538EF4438E0809
:1001B000858D8B53890F438920D28E759852758215
:1001C000002243A90243B20375EF042243A4107531
:1001D000E10175E24022AA82438E407592E8759350
:1001E000FF8592948593957591047B00C3EB9A509B
:1001F0000BE59130E7FB53917F0B80F07591002266
:10020000AA82AB837C007D00C3EC9AED9B502B7ED1
:1002100000BE0400501D7582FAC002C003C004C0B5
:1002200005C0061201D6D006D005D004D003D002F6
:100230000E80DE0CBC00D10D80CE225389F04389A4
:1002400005C28C22759810758D98538EF4438E08D4
:10025000858D8B53890F438920D28ED29922120229
:100260003B7474C0E07400C0E07480C0E01205BD4F
:100270001581158115817432C0E07401C0E074806D
:10028000C0E07426C0E07401C0E07480C0E074DD9A
:10029000C0E07400C0E07480C0E07479C0E0740015
:1002A000C0E07480C0E01205BDE58124F4F581D280
:1002B000EC20ECFD743BC0E07401C0E07480C0E051
:1002C0001205BD158115811581C28C758901758C4A
:1002D00000758A0020A5FD30A5FDD28C20A5FDC2A9
:1002E0008CAB8C7A00AC8A7D00EC2AFAED3B8A82DA
:1002F000C58225E0C58233F5831204F9AA82AB8357
:10030000ACF0FDC002C003C004C005C002C003C001
:1003100004C00590000075F080743F1205EB8582E3
:100320000885830985F00AF50BE58124FCF581D069
:1003300005D004D003D002C28C758901758C00757C
:100340008A002094FD3094FDD28C2094FDC28CAFA5
:100350008C7E00A88A7900E82EF582E93FF583C0FB
:1003600002C003C004C0051204F9AE82AF83A8F036
:10037000F9D005D004D003D002C006C007C000C029
:1003800001C002C003C004C00590000075F0B47441
:10039000431205EBAA82AB83ACF0FDE58124FCF5AA
:1003A00081D001D000D007D006C002C003C004C075
:1003B000058E828F8388F0E912050585820C85837E
:1003C0000D85F00EF50FE58124FCF581C008C0090C
:1003D000C00AC00B7442C0E07401C0E07480C0E089
:1003E0001205BDE58124F9F5817E00BE02004003BF
:1003F0000204BED2ECBE00028005BE010A80057573
:10040000BB0E800375BB0520ECFDAFBD7800AABE16
:10041000E42FF582EA38F583C0061205DEAA82AB26
:1004200083ACF0FDC002C003C004C00590CCCD7504
:10043000F0547440120505AA82AB83ACF0FDE5814F
:1004400024FCF581E4C0E074C0C0E0747FC0E074B7
:1004500044C0E08A828B838CF0ED1205EBAA82AB5C
:1004600083ACF0FDE58124FCF581D006BE0002805E
:1004700005BE01468023C006C002C003C004C005FB
:10048000744DC0E07401C0E07480C0E01205BDE5A9
:100490008124F9F581D0068021C006C002C003C0C6
:1004A00004C0057458C0E07401C0E07480C0E0125C
:1004B00005BDE58124F9F581D0060E0203EBC00CE1
:1004C000C00DC00EC00F7463C0E07401C0E0748042
:1004D000C0E01205BDE58124F9F5817475C0E074B2
:1004E00001C0E07480C0E01205BD15811581158141
:1004F0009000641202000202B4E4AC83AB82FAF909
:10050000748E02071312079FBC000302073EEF60C0
:10051000FA30D502B2D1E583B4FF03020754E58275
:10052000B4FF03020754258340072482400B0207CF
:100530003E2483145003020754F582EA8DF0A4A8E8
:10054000F0EA8EF0A428F8E435F0F9EB8DF0A42859
:10055000E935F0F9E433CA8FF0A429F9EA35F0FA65
:10056000EBF88EF0A429F9EA35F0FAE433FBEC8DD0
:10057000F0A429F9EA35F0FAE43BFBE88FF0A42A6D
:10058000FAEB35F0FBE433CCFD8EF0A42AFAEB3520
:10059000F0FBE43CFCED8FF0A42BFBEC35F0FC20F1
:1005A000E70312076C02071D02115985823085830B
:1005B0003185F0328511339005A8020BACC010854F
:1005C0008110E51024FBF533E51024FBF886300894
:1005D00086310886329005A8120BACD01022AC836D
:1005E000AB827A007900748E02117712079F30D5A2
:1005F00002B2D1BF0009BC0003020761020754BC6C
:10060000000302073EE583B4FF0BE582B4FF03025B
:10061000076102073EE582B4FF03020754C39583D6
:100620005007247F400B02073E248014500302072A
:1006300054C0E0E4CCCBCAF98D128E138F14EF5462
:10064000F0C4F5157583068515F0EB84F582E9C4D1
:10065000F9EAC4FAEBC4FBEC540FC47803D6FC18D7
:10066000EBD6FB18EAD6FA8582F0EDA4A8F0FD855A
:1006700082F0EEA428FEE435F0F88582F0EFA4289D
:10068000FFE435F0F8E99DF9EA9EFAEB9FFBEC9860
:10069000FCAD12AE13AF1430E7101582E92DF9EA64
:1006A0003EFAEB3FFBE43CFC80EDC082D58398C36F
:1006B000E933F9EA33FAEB33FBEC33FCC3E99DEAA7
:1006C0009EEB9FEC9400B3E413F9D002D0E0C44A4F
:1006D000FAD003D0E0C44BFBD004D0E0F5F0540FC7
:1006E000C44CFCD082158230F40FD3EC13FCEB1316
:1006F000FBEA13FAE913F90582E930E70A74012AE3
:10070000FAE43BFBE43CFC020735FCABF0AA83A90E
:1007100082749EC2D1F58212076C02071DB9800354
:10072000EA13B34010EA2401FAE43BFBE43CFC503A
:10073000047C800582BC000EBB000BBA0008E4F507
:10074000F0F583F58222A2D1E582138CF092F78B2B
:10075000838A8222E4F583F58275F080F4A2D113B6
:1007600022E4F583F58275F0C0747F227804EC7082
:1007700011E58224F8500AF582E4C9CACBFCD8EF0F
:1007800022EC7820058220E713D5820122C3E933C9
:10079000F9EA33FAEB33FBEC33FCD8EA158222AAF0
:1007A00082AB83A2F73392D16002D2F7F582ACF02C
:1007B000E58124F9F8E6FD08E6FE0886F008E6A2E1
:1007C000F73392D56002D2F7F583AFF022AA827494
:1007D000DEC0E07407C0E0C022C0238A822205295F
:1007E000E4B52902052A22AA8274302AFA24C650C6
:1007F0000A74072AFA3000034302208A820207CDD6
:10080000E582FAC4540FF582C0021207E7D00274E1
:100810000F5AF5820207E7AA24AB25AC26AD27AE16
:1008200028752F20EE2EFEED235401FF4206EA2A02
:10083000FAEB33FBEC33FCED33FDC3EE952B4008B4
:10084000EEC3952BFE430201D52FD98A248B258C2C
:10085000268D278E28227840E624D075F00AA4FA47
:100860007841E624D02AFA783F8603BB2D04C3E4FE
:100870009AFA752B01C3E464808AF063F08095F0E6
:100880005029752F038A0374F6252F401C052BE58C
:100890002F142434F8E52F2434F98704A604772E86
:1008A0001BEBFA6004052F80DE8B02EA30E70D783F
:1008B0003586037836A6037835762E0AE52D600A4C
:1008C000E52D04FB252BF52B8005300B02052B783D
:1008D000348603E4BB2D0104FB70062006033007B9
:1008E00002052B30040302099D300557EB600C759F
:1008F000822DC0021207CDD002801C30060C7582FA
:100900002BC0021207CDD002800D30070A7582205D
:10091000C0021207CDD00278358604BC2E0C758239
:1009200030C0021207CDD002152CAC2C152CC3E51B
:100930002B9C40030209E1758230C0021207CDD022
:100940000280E7AC2C152CC3E52B9C500C75822043
:10095000C0021207CDD00280EA78348604BC2D0C88
:1009600075822DC0021207CDD002801C30060C7596
:10097000822BC0021207CDD002800D30070A75828B
:1009800020C0021207CDD00278358604BC2E5275E5
:100990008230C0021207CDD002152C8044EB600ECD
:1009A00075822DC0021207CDD002152C8020300692
:1009B0000E75822BC0021207CDD002152C800F308D
:1009C000070C758220C0021207CDD002152C783595
:1009D0008603BB2E0C758230C0021207CDD00215E3
:1009E0002C752F01C20DE52F2434F88603BB450377
:1009F000020A9EBB2E348A03C3E464808BF063F04A
:100A00008095F0500F758230C0031207CDD0031BC4
:100A10008B0280E48B02D20DE52D7038200B03028F
:100A20000A9E75822E1207CD8074300D278A03EB43
:100A300030E71FC3E46480852DF063F08095F050AB
:100A40000C758230C0031207CDD003152D0B8B021D
:100A500080DD8B02300D0EC3E46480852DF063F0E1
:100A60008095F05021E52F2434F886038B82C00254
:100A70001207CDD002300D0EE52F2434F88603BBCB
:100A80002E028002152D152CC3E46480852DF063A1
:100A9000F08095F04003200D05052F0209E6C3E420
:100AA0006480852DF063F08095F0500A75823012D5
:100AB00007CD152D80E830040FAA2C152CEA60080C
:100AC0007582201207CD80F122E52D7003300B0DC9
:100AD0007407252DFAE52CC39AF52C8006E52C2405
:100AE000FAF52C752F0078348602BA2B0F20060CED
:100AF00078347620200705752F01052C200419AACB
:100B00002CC3E464808AF063F08095F0500A75820B
:100B1000201207CD152C80E7C20DE52F2434F8866E
:100B200002BA00028069BA451F3000027665C3E44C
:100B30006480852DF063F08095F0500A7582301244
:100B400007CD152D80E8D20DC3E52F9402E433FACA
:100B50007014EA700EC3E46480852DF063F0809514
:100B6000F04003300D16E52F2434F886028A8212F5
:100B700007CDE52F24FD5012152D800E7402B52FE0
:100B800009300B0675822E1207CD052F020B1A3085
:100B90000419AA2CC3E464808AF063F08095F050B5
:100BA0000A7582201207CD152C80E72285822285C6
:100BB0008323E4F529F52AAA30AB31AC328A828B43
:100BC000838CF012119BFD74012AF530E43BF53162
:100BD0008C32EDFA7003021152BA25028003021121
:100BE0004AC204C205C206C207C208C209C20AC27A
:100BF0000BC201C202C203752B00752C00752DFFBC
:100C0000AB30AC31AD328B828C838DF012119BFAFC
:100C1000A3AB82AC838B308C318D32BA25078A82AC
:100C20001207CD80928A06BE3000402E8A06EE243E
:100C3000C6402774FFB52D13E52C75F00AA4FEEA13
:100C400024D02EF52C70BFD20580BBE52D75F00A9F
:100C5000A4FEEA24D02EF52D80ACBA2E0A74FFB57E
:100C60002DA4752D00809F8A06BE6100400E8A0665
:100C7000EE248540075302DFD2008002C200BA2072
:100C8000028075BA2303020D07BA2A03020D0CBABB
:100C90002B02805FBA2D028055BA4202805FBA43B0
:100CA00003020D51BA4403020E8CBA4503020EA68C
:100CB000BA4603020EA2BA4703020EAABA490302B9
:100CC0000E8CBA4C02803BBA4E03020EAEBA4F03F2
:100CD000020E93BA5003020E25BA5303020D75BAE1
:100CE0005503020E98BA5803020E9D020ED8D20484
:100CF000020C06D206020C06D207020C06D209022A
:100D00000C06D20A020C06D20B020C0674FFB52D9B
:100D10002030090BE53314F88833862C020C06E5E5
:100D20003324FEF888338606088607188E2C020CBA
:100D30000630090BE53314F88833862D020C06E5DE
:100D40003324FEF888338606088607188E2D020C99
:100D50000630090AE53314F888338602800FE5333C
:100D600024FEF888338603088604188B028A8212D0
:100D700007CD020EDDE53324FDF8883386030886AF
:100D80000408860518188B248C258D268B828C836D
:100D90008DF01212EFAB82AC838B2E74FFB52D0356
:100DA000852E2D20041DC3E52E952C5016E52CC351
:100DB000952EF52CAB2C152CEB60087582201207B4
:100DC000CD80F18524828525838526F012119BFB39
:100DD000FA6029AB2D152DC3E464808BF063F0809D
:100DE00095F050188A821207CDAB24AC25AD260BA6
:100DF000BB00010C8B248C258D2680C720040302A8
:100E00000EDDC3E52E952C4003020EDDE52CC395C7
:100E10002EF52CAB2C152CEB7003020EDD75822009
:100E20001207CD80EEE53324FDF88833860308866B
:100E30000408860518188B248C258D26E526FB30A2
:100E4000E7047A438013EB546060047A50800AEB25
:100E500030E6047A4980027A588A82C0021207CDAD
:100E600075823A1207CD7582301207CD75827812DD
:100E700007CDD002BA4902800BBA50028006852500
:100E8000821208008524821208008051D208752B36
:100E90000A804A752B088045752B0A8040752B10F7
:100EA000803BD2018037D2028033D203802FE533DA
:100EB00024FDF88833860308860408860518188BF5
:100EC000248C258D268B828C838DF0E5291212D6F9
:100ED000A3E52A1212D680058A821207CD200106C8
:100EE000200203300370E53324FCF88833860308BE
:100EF00086040886050886061818188B248C258D0C
:100F0000268E27E524E525E526E5278B828C838D33
:100F1000F0EE1211B774FFB52D03752D06300327BF
:100F2000747F5527FB8B28E528EB2BFB8B28E526C8
:100F300030E70674014528F528E528246840067442
:100F40009925284002D202300206120AC9020BB7C4
:100F5000120856020BB7E52B7003020BB77B393032
:100F6000092BE53314F88833E6FC3395E0FDFEFFEA
:100F70008C248D258E268F2720085EAC247D007E54
:100F8000007F008C248D258E268F27804C300A1FF1
:100F9000E53324FCF88833860408860508860608AD
:100FA00086071818188C248D258E268F27802AE511
:100FB0003324FEF88833860408860518ED3395E05F
:100FC000FEFF8C248D258E268F2720080CAC24ADA7
:100FD000257E007F008E268F27300B43E524452594
:100FE0004526452760397408B52B0C758230C0033F
:100FF0001207CDD00380287410B52B23758230C022
:10100000031207CDD00330000C758278C00312079D
:10101000CDD003800A758258C0031207CDD00330AB
:101020000825AC24AD25AE26E527FF30E717C3E43D
:101030009CFCE49DFDE49EFEE49FFF8C248D258EA8
:10104000268F278002C208752E00D20C8B007528CF
:1010500000C000120817D000200C0DE528C4FCE6E3
:10106000FD4CF61888038002A628052EB20CE52454
:1010700045254526452770D68803E52C7003752C39
:101080000120051A200417E52E04FCC3952C500EF0
:10109000758220C0031207CDD003152C80E93008DB
:1010A0000E75822DC0031207CDD003152C8024E5C8
:1010B0002E602030060E75822BC0031207CDD003A0
:1010C000152C800F30070C758220C0031207CDD07D
:1010D00003152C20041EAC2C152CC3E52E9C502788
:1010E0003005047C3080027C208C82C0031207CD46
:1010F000D00380E2C3E52E952C5009E52CC3952E34
:10110000F52C8003752C008B00AB2E152EEB602286
:10111000B20C200C0A08E6C4540FFB8B288007860B
:1011200003740F5BF528852882C0001207E7D00002
:1011300080D7200403020BB7AB2C152CEB700302F5
:101140000BB77582201207CD80EE8A821207CD027E
:101150000BB7852982852A8322AA82BA0A081099A8
:101160000280FB75990D10990280FB8A9922FCABD5
:10117000F0AA83A982749EF582C2D1EC30E716D220
:10118000D1E9F42401F9EAF43400FAEBF43400FB79
:10119000ECF43400FC12076C02071D20F71430F643
:1011A000148883A88220F507E6A88375830022E2CD
:1011B00080F7E49322E022C0E0F84582458345F0C1
:1011C0007009F5F0FBFCFDFE021285E823A2F79200
:1011D000E0F8A982AA83D2F7ABF07C007E07C37443
:1011E0009798404074FF2EFE740A89F0A4F985F0A8
:1011F00082740A8AF0A4FA85F083740A8BF0A4FB47
:10120000740529F9EA3582FAEB3583FB740035F071
:10121000FCC3EC13FCEB13FBEA13FAE913F908EC3B
:1012200070EF80BAE8C3947FF88B838EF0E4FBFC08
:10123000FDFEFF08C3E933F9EA33FAE58333F583AA
:10124000EB3BD4FBEC3CD4FCED3DD4FDEE3ED4FEB8
:10125000EF3FD4FF602D05F074052BD4FBE43CD4A4
:10126000FCE43DD4FDE43ED4FEE43FD4FF758204AB
:10127000C3EF13FFEE13FEED13FDEC13FCEB13FBBA
:10128000D582EDD8AF7834D0E020E704762B800209
:10129000762D087906E7C4540F4430F608B90603E2
:1012A000762E08E7540F4430F60819B902E7764560
:1012B00008E5F020E704762B8004762DF404087509
:1012C000F00A844430F608E5F04430F608E4F6907D
:1012D000003475F0402220F71030F6118883A88280
:1012E00020F507F6A88375830022F280F7F022AA82
:1012F00082AB83ACF07D007E008A828B838CF012FF
:10130000119BFFA3AA82AB83EF60070DBD00EA0E1D
:1013100080E78D828E832200000000000000000024
:00000001FF
