:10000000020003758147120166E582600302006FFA
:10001000780079007A007B007C007D00EC4D601C4C
:1000200088828983E493A3A882A9838A828B83F040
:10003000A3AA82AB831CBCFFE31D80E07582007520
:1000400083007C007D00EC4D600AE4F0A31CBCFF43
:10005000F51D80F27582007583007C007D00EC4DFB
:10006000600AE4F0A31CBCFFF51D80F212016512CA
:10007000030680FE1B5B324A00506861736F72207A
:10008000546573742050726F6772616D0A417070AD
:100090006C7920616E616C6F6720766F6C7461673C
:1000A000657320746F2050322E302C2050322E3148
:1000B0002C2050322E322C20616E642050322E3390
:1000C0000A46696C653A2025730A436F6D70696C46
:1000D00065643A2025732C2025730A0A00433A5C94
:1000E00055736572735C6A6566667265796C696F73
:1000F000755C4465736B746F705C656C65633239F5
:10010000315C6C6162355C433835314633385F4170
:1001100044435F616E795F70696E732E63004D6159
:100120007220203720323031360032313A32323AC2
:1001300030340056303D25352E33662C2056313D67
:1001400025352E33662C2056323D25352E33662C30
:100150002056333D25352E336620663D252E3366E9
:1001600020487A0D002253D9BF75FF8075EF0643F2
:10017000A90343B203759810758D30538EF4438EE6
:1001800008858D8B53890F438920D28ED29943A441
:100190000175E10175E24075820022AA82438E401A
:1001A0007592D07593FF8592948593957591047B94
:1001B00000C3EB9A5012E59130E7FB53917F108D0D
:1001C00002800205090B80E975910022AA82AB83A7
:1001D000BA0004BB0001227582F9C002C0031201FB
:1001E0009B7582F912019B7582F912019B7582FA47
:1001F00012019BD003D0021ABAFF011B80D275BC3A
:10020000F875E88075D10822AA828534F005F0746B
:1002100001800225E0D5F0FBFBEA24FC4033EA2A0A
:100220002A900225730202310202390202410202BF
:1002300049EBF452F1EB42D422EBF452F2EB42D50B
:1002400022EBF452F3EB42D622EBF4FA52F4EB42F7
:10025000DF228582BB75BA1FD2EC20ECFDD2EC20E8
:10026000ECFDAABD7B00ADBE7C00EC2AF582ED3B27
:10027000F58322120252120491AA82AB83ACF0FDE4
:10028000C002C003C004C00590333375F0537440FE
:1002900012049DAA82AB83ACF0FDE58124FCF581BC
:1002A000E4C0E0C0E07480C0E07444C0E08A828BA7
:1002B000838CF0ED1205A3AA82AB83ACF0FDE5813F
:1002C00024FCF5818A828B838CF0ED2243A4107587
:1002D000E10175E25075E3002243A90343B20375BF
:1002E000EF0422759810758D30538EF4438E088577
:1002F0008D8B53890F438920D28ED299225389F056
:10030000438905C28C2253D9BF1202CC1202D912E2
:1003100002E31202FD7474C0E07400C0E07480C097
:10032000E0120555158115811581742AC0E074010C
:10033000C0E07480C0E0741EC0E07401C0E074804E
:10034000C0E074DDC0E07400C0E07480C0E0747987
:10035000C0E07400C0E07480C0E0120555E581245F
:10036000F4F5817534007582021202087534017546
:100370008202120208753402758202120208753474
:10038000037582021202081201FE758208120273BE
:10039000AA82AB83ACF0FD8A0A8B0B8C0C8D0D7599
:1003A0008209120273AA82AB83ACF0FD8A0E8B0F16
:1003B0008C108D1175820A120273AA82AB83ACF085
:1003C000FD8A128B138C148D1575820B120273AA81
:1003D00082AB83ACF0FD8A168B178C188D19758A49
:1003E00000758C00750900C28DD28C9003E8120153
:1003F000CCC28CAA097B008B1D8A1C751B00751A48
:1004000000AE8C7F007A008A038F028E077E00EE9A
:10041000251AF51AEF351BF51BEA351CF51CEB35D3
:100420001DF51DAC8AE4FD3395E0FAFBEC251AFCC2
:10043000ED351BFDEA351CFAEB351D8C828D838A68
:10044000F0120576AA82AB83ACF0FDC002C003C0F7
:1004500004C005C016C017C018C019C012C013C010
:1004600014C015C00EC00FC010C011C00AC00BC010
:100470000CC00D7433C0E07401C0E07480C0E012A1
:100480000555E58124E9F5819000641201CC020351
:100490008AE4AC83AB82FAF9748E0206CB1207575A
:1004A000BC00030206F6EF60FA30D502B2D1E58354
:1004B000B4FF0302070CE582B4FF0302070C258397
:1004C00040072482400B0206F624831450030207DF
:1004D0000CF582EA8DF0A4A8F0EA8EF0A428F8E4E6
:1004E00035F0F9EB8DF0A428E935F0F9E433CA8F43
:1004F000F0A429F9EA35F0FAEBF88EF0A429F9EA2C
:1005000035F0FAE433FBEC8DF0A429F9EA35F0FA82
:10051000E43BFBE88FF0A42AFAEB35F0FBE433CCA4
:10052000FD8EF0A42AFAEB35F0FBE43CFCED8FF0F5
:10053000A42BFBEC35F0FC20E7031207240206D5C0
:1005400002111185823085833185F032851E33900A
:100550000540020B64C008858108E50824FBF533DB
:10056000E50824FBF886300886310886329005407D
:10057000120B64D00822FCABF0AA83A982749EF50A
:1005800082C2D1EC30E716D2D1E9F42401F9EAF4C1
:100590003400FAEBF43400FBECF43400FC120724D2
:1005A0000206D512075730D502B2D1BF0009BC00F0
:1005B0000302071902070CBC00030206F6E583B428
:1005C000FF0BE582B4FF030207190206F6E582B4C9
:1005D000FF0302070CC395835007247F400B0206DC
:1005E000F6248014500302070CC0E0E4CCCBCAF917
:1005F0008D348E358F36EF54F0C4F537758306850C
:1006000037F0EB84F582E9C4F9EAC4FAEBC4FBECF9
:10061000540FC47803D6FC18EBD6FB18EAD6FA853B
:1006200082F0EDA4A8F0FD8582F0EEA428FEE4356A
:10063000F0F88582F0EFA428FFE435F0F8E99DF9A1
:10064000EA9EFAEB9FFBEC98FCAD34AE35AF36304A
:10065000E7101582E92DF9EA3EFAEB3FFBE43CFC9A
:1006600080EDC082D58398C3E933F9EA33FAEB33DE
:10067000FBEC33FCC3E99DEA9EEB9FEC9400B3E4F2
:1006800013F9D002D0E0C44AFAD003D0E0C44BFB47
:10069000D004D0E0F5F0540FC44CFCD08215823069
:1006A000F40FD3EC13FCEB13FBEA13FAE913F9058F
:1006B00082E930E70A74012AFAE43BFBE43CFC02DD
:1006C00006EDFCABF0AA83A982749EC2D1F582121A
:1006D00007240206D5B98003EA13B34010EA2401C7
:1006E000FAE43BFBE43CFC50047C800582BC000E39
:1006F000BB000BBA0008E4F5F0F583F58222A2D125
:10070000E582138CF092F78B838A8222E4F583F5DD
:100710008275F080F4A2D11322E4F583F58275F09E
:10072000C0747F227804EC7011E58224F8500AF539
:1007300082E4C9CACBFCD8EF22EC7820058220E7FE
:1007400013D5820122C3E933F9EA33FAEB33FBEC28
:1007500033FCD8EA158222AA82AB83A2F73392D166
:100760006002D2F7F582ACF0E58124F9F8E6FD08E5
:10077000E6FE0886F008E6A2F73392D56002D2F7CB
:10078000F583AFF022AA827496C0E07407C0E0C07F
:1007900022C0238A82220529E4B52902052A22AA39
:1007A0008274302AFA24C6500A74072AFA300003E9
:1007B0004302208A82020785E582FAC4540FF5823B
:1007C000C00212079FD002740F5AF58202079FAA37
:1007D00024AB25AC26AD27AE28752F20EE2EFEEDDE
:1007E000235401FF4206EA2AFAEB33FBEC33FCED1B
:1007F00033FDC3EE952B4008EEC3952BFE4302015B
:10080000D52FD98A248B258C268D278E28227844B3
:10081000E624D075F00AA4FA7845E624D02AFA78BE
:10082000438603BB2D04C3E49AFA752B01C3E46429
:10083000808AF063F08095F05029752F038A037445
:10084000F6252F401C052BE52F142438F8E52F241E
:1008500038F98704A604772E1BEBFA6004052F8075
:10086000DE8B02EA30E70D78398603783AA6037802
:1008700039762E0AE52D600AE52D04FB252BF52B94
:100880008005300B02052B78388603E4BB2D01046C
:10089000FB7006200603300702052B300403020913
:1008A00055300557EB600C75822DC002120785D0BC
:1008B00002801C30060C75822BC002120785D00204
:1008C000800D30070A758220C002120785D0027899
:1008D000398604BC2E0C758230C002120785D00206
:1008E000152CAC2C152CC3E52B9C400302099975E3
:1008F0008230C002120785D00280E7AC2C152CC3D1
:10090000E52B9C500C758220C002120785D0028016
:10091000EA78388604BC2D0C75822DC0021207853A
:10092000D002801C30060C75822BC002120785D0C5
:1009300002800D30070A758220C002120785D0029E
:1009400078398604BC2E52758230C002120785D0D9
:1009500002152C8044EB600E75822DC002120785B3
:10096000D002152C802030060E75822BC002120793
:1009700085D002152C800F30070C758220C0021222
:100980000785D002152C78398603BB2E0C75823072
:10099000C002120785D002152C752F01C20DE52F5C
:1009A0002438F88603BB4503020A56BB2E348A035B
:1009B000C3E464808BF063F08095F0500F75823053
:1009C000C003120785D0031B8B0280E48B02D20D7B
:1009D000E52D7038200B03020A5675822E1207850A
:1009E0008074300D278A03EB30E71FC3E4648085F1
:1009F0002DF063F08095F0500C758230C003120723
:100A000085D003152D0B8B0280DD8B02300D0EC3BC
:100A1000E46480852DF063F08095F05021E52F246B
:100A200038F886038B82C002120785D002300D0E83
:100A3000E52F2438F88603BB2E028002152D152CD5
:100A4000C3E46480852DF063F08095F04003200DB1
:100A500005052F02099EC3E46480852DF063F080B4
:100A600095F0500A758230120785152D80E8300404
:100A70000FAA2C152CEA600875822012078580F1D8
:100A800022E52D7003300B0D7407252DFAE52CC3DC
:100A90009AF52C8006E52C24FAF52C752F00783871
:100AA0008602BA2B0F20060C7838762020070575B1
:100AB0002F01052C200419AA2CC3E464808AF0635A
:100AC000F08095F0500A758220120785152C80E77A
:100AD000C20DE52F2438F88602BA00028069BA45B3
:100AE0001F3000027665C3E46480852DF063F080DA
:100AF00095F0500A758230120785152D80E8D20DC9
:100B0000C3E52F9402E433FA7014EA700EC3E46470
:100B100080852DF063F08095F04003300D16E52FB1
:100B20002438F886028A82120785E52F24FD5012A8
:100B3000152D800E7402B52F09300B0675822E120A
:100B40000785052F020AD2300419AA2CC3E4648059
:100B50008AF063F08095F0500A758220120785159F
:100B60002C80E722858222858323E4F529F52AAAB1
:100B700030AB31AC328A828B838CF0121126FD743B
:100B8000012AF530E43BF5318C32EDFA70030211A5
:100B90000ABA25028003021102C204C205C206C2BB
:100BA00007C208C209C20AC20BC201C202C203754F
:100BB0002B00752C00752DFFAB30AC31AD328B8224
:100BC0008C838DF0121126FAA3AB82AC838B308C10
:100BD000318D32BA25078A8212078580928A06BE35
:100BE0003000402E8A06EE24C6402774FFB52D1330
:100BF000E52C75F00AA4FEEA24D02EF52C70BFD2A5
:100C00000580BBE52D75F00AA4FEEA24D02EF52D53
:100C100080ACBA2E0A74FFB52DA4752D00809F8A72
:100C200006BE6100400E8A06EE248540075302DFAF
:100C3000D2008002C200BA20028075BA2303020CDF
:100C4000BFBA2A03020CC4BA2B02805FBA2D0280FD
:100C500055BA4202805FBA4303020D09BA44030247
:100C60000E44BA4503020E5EBA4603020E5ABA4754
:100C700003020E62BA4903020E44BA4C02803BBA28
:100C80004E03020E66BA4F03020E4BBA5003020D1A
:100C9000DDBA5303020D2DBA5503020E50BA5803A4
:100CA000020E55020E90D204020BBED206020BBEFB
:100CB000D207020BBED209020BBED20A020BBED271
:100CC0000B020BBE74FFB52D2030090BE53314F871
:100CD0008833862C020BBEE53324FEF88833860663
:100CE000088607188E2C020BBE30090BE53314F86A
:100CF0008833862D020BBEE53324FEF88833860642
:100D0000088607188E2D020BBE30090AE53314F849
:100D100088338602800FE53324FEF8883386030883
:100D20008604188B028A82120785020E95E5332409
:100D3000FDF88833860308860408860518188B2476
:100D40008C258D268B828C838DF012127AAB82AC2F
:100D5000838B2E74FFB52D03852E2D20041DC3E536
:100D60002E952C5016E52CC3952EF52CAB2C152C5E
:100D7000EB600875822012078580F1852482852525
:100D8000838526F0121126FBFA6029AB2D152DC3A1
:100D9000E464808BF063F08095F050188A8212072B
:100DA00085AB24AC25AD260BBB00010C8B248C2518
:100DB0008D2680C7200403020E95C3E52E952C4096
:100DC00003020E95E52CC3952EF52CAB2C152CEBC0
:100DD0007003020E9575822012078580EEE533249C
:100DE000FDF88833860308860408860518188B24C6
:100DF0008C258D26E526FB30E7047A438013EB54DF
:100E00006060047A50800AEB30E6047A4980027A06
:100E1000588A82C00212078575823A120785758248
:100E200030120785758278120785D002BA49028090
:100E30000BBA500280068525821207B885248212DB
:100E400007B88051D208752B0A804A752B08804557
:100E5000752B0A8040752B10803BD2018037D2025F
:100E60008033D203802FE53324FDF88833860308CE
:100E7000860408860518188B248C258D268B828C79
:100E8000838DF0E529121261A3E52A121261800513
:100E90008A82120785200106200203300370E533A1
:100EA00024FCF8883386030886040886050886062D
:100EB0001818188B248C258D268E27E524E525E52A
:100EC00026E5278B828C838DF0EE12114274FFB5DC
:100ED0002D03752D06300327747F5527FB8B28E5DE
:100EE00028EB2BFB8B28E52630E70674014528F517
:100EF00028E52824684006749925284002D202304B
:100F00000206120A81020B6F12080E020B6FE52B0C
:100F10007003020B6F7B3D30092BE53314F88833E7
:100F2000E6FC3395E0FDFEFF8C248D258E268F2771
:100F300020085EAC247D007E007F008C248D258EF1
:100F4000268F27804C300A1FE53324FCF88833862F
:100F5000040886050886060886071818188C248D4C
:100F6000258E268F27802AE53324FEF888338604D1
:100F700008860518ED3395E0FEFF8C248D258E261E
:100F80008F2720080CAC24AD257E007F008E268F95
:100F900027300B43E524452545264527603974084D
:100FA000B52B0C758230C003120785D003802874DE
:100FB00010B52B23758230C003120785D003300093
:100FC0000C758278C003120785D003800A75825899
:100FD000C003120785D003300825AC24AD25AE260A
:100FE000E527FF30E717C3E49CFCE49DFDE49EFE8B
:100FF000E49FFF8C248D258E268F278002C20875E2
:101000002E00D20C8B00752800C0001207CFD00034
:10101000200C0DE528C4FCE6FD4CF6188803800280
:10102000A628052EB20CE52445254526452770D671
:101030008803E52C7003752C0120051A200417E5A0
:101040002E04FCC3952C500E758220C00312078518
:10105000D003152C80E930080E75822DC0031207CD
:1010600085D003152C8024E52E602030060E758275
:101070002BC003120785D003152C800F30070C7589
:101080008220C003120785D003152C20041EAC2C2F
:10109000152CC3E52E9C50273005047C3080027C43
:1010A000208C82C003120785D00380E2C3E52E9511
:1010B0002C5009E52CC3952EF52C8003752C008B44
:1010C00000AB2E152EEB6022B20C200C0A08E6C4F1
:1010D000540FFB8B2880078603740F5BF528852847
:1010E00082C00012079FD00080D7200403020B6F3C
:1010F000AB2C152CEB7003020B6F75822012078549
:1011000080EE8A82120785020B6F852982852A83E9
:1011100022AA82BA0A0810990280FB75990D1099CB
:101120000280FB8A992220F71430F6148883A88263
:1011300020F507E6A88375830022E280F7E4932276
:10114000E022C0E0F84582458345F07009F5F0FBE8
:10115000FCFDFE021210E823A2F792E0F8A982AA91
:1011600083D2F7ABF07C007E07C37497984040743D
:10117000FF2EFE740A89F0A4F985F082740A8AF0C1
:10118000A4FA85F083740A8BF0A4FB740529F9EAAC
:101190003582FAEB3583FB740035F0FCC3EC13FCAD
:1011A000EB13FBEA13FAE913F908EC70EF80BAE8E5
:1011B000C3947FF88B838EF0E4FBFCFDFEFF08C335
:1011C000E933F9EA33FAE58333F583EB3BD4FBECFF
:1011D0003CD4FCED3DD4FDEE3ED4FEEF3FD4FF60A9
:1011E0002D05F074052BD4FBE43CD4FCE43DD4FD88
:1011F000E43ED4FEE43FD4FF758204C3EF13FFEE58
:1012000013FEED13FDEC13FCEB13FBD582EDD8AF11
:101210007838D0E020E704762B8002762D08790616
:10122000E7C4540F4430F608B90603762E08E75495
:101230000F4430F60819B902E7764508E5F020E7D3
:1012400004762B8004762DF4040875F00A8444306B
:10125000F608E5F04430F608E4F690003875F04002
:101260002220F71030F6118883A88220F507F6A80F
:101270008375830022F280F7F022AA82AB83ACF060
:101280007D007E008A828B838CF0121126FFA3AA38
:1012900082AB83EF60070DBD00EA0E80E78D828E82
:1012A0008322000000000000000000000000000099
:00000001FF
