:10000000020003758131120E18E582600302006F51
:10001000780079007A007B007C007D00EC4D601C4C
:1000200088828983E493A3A882A9838A828B83F040
:10003000A3AA82AB831CBCFFE31D80E07582007520
:1000400083007C007D00EC4D600AE4F0A31CBCFF43
:10005000F51D80F27582007583007C007D00EC4DFB
:10006000600AE4F0A31CBCFFF51D80F212016612C9
:10007000019580FE1B5B324A001B5B303B332564DD
:100080003B3425646D00C9CDCDCDCDCDCDCDCDCD0D
:10009000CDCDCDCBCDCDCDCDCDCDCDCDCDCDCDCD92
:1000A000BB0A00BA2056726D73205265662020206C
:1000B000BA202020202020202020202020BA0A0042
:1000C000CCCDCDCDCDCDCDCDCDCDCDCDCDCECDCD60
:1000D000CDCDCDCDCDCDCDCDCDCDB90A00BA20562B
:1000E000726D7320546573742020BA202020202064
:1000F00020202020202020BA0A00BA2050686173F6
:1001000065202020202020BA202020202020202010
:1001100020202020BA0A00BA204672657175656EEB
:1001200063792020BA202020202020202020202099
:1001300020BA0A00C8CDCDCDCDCDCDCDCDCDCDCD44
:10014000CDCACDCDCDCDCDCDCDCDCDCDCDCDBC0AB6
:10015000001B5B25643B2564480025362E33660072
:1001600025372E3366002243A41075E10175E24065
:100170002243A90343B20375EF0422759810758DCD
:1001800030538EF4438E08858D8B53890F4389201D
:10019000D28ED2992253D9BF120167120171120176
:1001A0007B7474C0E07400C0E07480C0E012045638
:1001B0001581158115817407C0E0E4C0E0E4C0E05A
:1001C000C0E07479C0E07400C0E07480C0E0120444
:1001D00056E58124F9F5817486C0E07400C0E074AE
:1001E00080C0E012045615811581158174A3C0E00A
:1001F0007400C0E07480C0E01204561581158115AA
:100200008174C0C0E07400C0E07480C0E012045685
:1002100015811581158174DDC0E07400C0E0748023
:10022000C0E012045615811581158174C0C0E074B8
:1002300000C0E07480C0E01204561581158115815C
:1002400074FAC0E07400C0E07480C0E01204561577
:10025000811581158174C0C0E07400C0E07480C055
:10026000E01204561581158115817417C0E07401E0
:10027000C0E07480C0E012045615811581158174A8
:1002800034C0E07401C0E07480C0E01204561581EF
:10029000158115817412C0E0E4C0E07402C0E0E48E
:1002A000C0E07451C0E07401C0E07480C0E012048A
:1002B00056E58124F9F5817407C0E0E4C0E07401DB
:1002C000C0E0E4C0E07479C0E07400C0E07480C0B5
:1002D000E0120456E58124F9F5817483C0E074C00E
:1002E000C0E07422C0E07440C0E0745AC0E0740101
:1002F000C0E07480C0E0120456E58124F9F58174F1
:1003000012C0E0E4C0E07404C0E0E4C0E07451C096
:10031000E07401C0E07480C0E0120456E58124F965
:10032000F5817407C0E0E4C0E07402C0E0E4C0E01E
:100330007479C0E07400C0E07480C0E0120456E537
:100340008124F9F58174B0C0E07472C0E07498C083
:10035000E0743FC0E0745AC0E07401C0E07480C033
:10036000E0120456E58124F9F5817412C0E0E4C07E
:10037000E07406C0E0E4C0E07451C0E07401C0E085
:100380007480C0E0120456E58124F9F5817407C039
:10039000E0E4C0E07404C0E0E4C0E07479C0E0745C
:1003A00000C0E07480C0E0120456E58124F9F581B4
:1003B000745CC0E0748FC0E0743DC0E074C2C0E003
:1003C0007460C0E07401C0E07480C0E0120456E5BF
:1003D0008124F9F5817412C0E0E4C0E07408C0E043
:1003E000E4C0E07451C0E07401C0E07480C0E01269
:1003F0000456E58124F9F5817407C0E0E4C0E07497
:1004000005C0E0E4C0E07479C0E07400C0E074802E
:10041000C0E0120456E58124F9F581748FC0E074C0
:10042000C2C0E0746DC0E07442C0E07460C0E074AB
:1004300001C0E07480C0E0120456E58124F9F58122
:1004400022020E0385821885831985F01A85091BFF
:10045000900441020856C008858108E50824FBF590
:100460001BE50824FBF8861808861908861A9004EC
:1004700041120856D00822AA827488C0E07404C0D1
:10048000E0C00AC00B8A82220511E4B511020512F0
:1004900022AA8274302AFA24C6500A74072AFA3033
:1004A00000034302208A82020477E582FAC4540FD3
:1004B000F582C002120491D002740F5AF582020430
:1004C00091AA0CAB0DAC0EAD0FAE10751720EE2E31
:1004D000FEED235401FF4206EA2AFAEB33FBEC332C
:1004E000FCED33FDC3EE95134008EEC39513FE43B8
:1004F0000201D517D98A0C8B0D8C0E8D0F8E102210
:10050000782EE624D075F00AA4FA782FE624D02AB3
:10051000FA782D8603BB2D04C3E49AFA751301C340
:10052000E464808AF063F08095F050297517038A9F
:100530000374F62517401C0513E517142422F8E56B
:10054000172422F98704A604772E1BEBFA60040512
:100550001780DE8B02EA30E70D782386037824A625
:10056000037823762E0AE515600AE51504FB2513AA
:10057000F5138005300B02051378228603E4BB2DAA
:100580000104FB7006200603300702051330040344
:10059000020647300557EB600C75822DC00212042D
:1005A00077D002801C30060C75822BC002120477B3
:1005B000D002800D30070A758220C002120477D065
:1005C0000278238604BC2E0C758230C00212047798
:1005D000D0021514AC141514C3E5139C4003020695
:1005E0008B758230C002120477D00280E7AC1415FC
:1005F00014C3E5139C500C758220C002120477D0FE
:100600000280EA78228604BC2D0C75822DC002126D
:100610000477D002801C30060C75822BC0021204B5
:1006200077D002800D30070A758220C0021204774D
:10063000D00278238604BC2E52758230C002120488
:1006400077D00215148044EB600E75822DC0021223
:100650000477D0021514802030060E75822BC0025C
:10066000120477D0021514800F30070C758220C059
:1006700002120477D002151478238603BB2E0C7562
:100680008230C002120477D0021514751701C20D12
:10069000E5172422F88603BB4503020748BB2E3426
:1006A0008A03C3E464808BF063F08095F0500F758B
:1006B0008230C003120477D0031B8B0280E48B02CC
:1006C000D20DE5157038200B0302074875822E12F3
:1006D00004778074300D278A03EB30E71FC3E4648E
:1006E000808515F063F08095F0500C758230C00362
:1006F000120477D00315150B8B0280DD8B02300DB1
:100700000EC3E464808515F063F08095F05021E518
:10071000172422F886038B82C002120477D002309D
:100720000D0EE5172422F88603BB2E028002151554
:100730001514C3E464808515F063F08095F04003E0
:10074000200D050517020690C3E464808515F0634B
:10075000F08095F0500A758230120477151580E804
:1007600030040FAA141514EA600875822012047769
:1007700080F122E5157003300B0D74072515FAE59D
:1007800014C39AF5148006E51424FAF514751700BD
:1007900078228602BA2B0F20060C782276202007BA
:1007A000057517010514200419AA14C3E464808A8E
:1007B000F063F08095F0500A7582201204771514CA
:1007C00080E7C20DE5172422F88602BA000280698C
:1007D000BA451F3000027665C3E464808515F06376
:1007E000F08095F0500A758230120477151580E874
:1007F000D20DC3E5179402E433FA7014EA700EC305
:10080000E464808515F063F08095F04003300D16A8
:10081000E5172422F886028A82120477E51724FD60
:1008200050121515800E7402B51709300B0675822B
:100830002E12047705170207C4300419AA14C3E462
:1008400064808AF063F08095F0500A75822012046B
:1008500077151480E72285820A85830BE4F511F56C
:1008600012AA18AB19AC1A8A828B838CF0120E1C58
:10087000FD74012AF518E43BF5198C1AEDFA7003A2
:10088000020DFCBA25028003020DF4C204C205C2A7
:1008900006C207C208C209C20AC20BC201C202C212
:1008A000037513007514007515FFAB18AC19AD1A5C
:1008B0008B828C838DF0120E1CFAA3AB82AC838BDF
:1008C000188C198D1ABA25078A8212047780928AA9
:1008D00006BE3000402E8A06EE24C6402774FFB5BF
:1008E0001513E51475F00AA4FEEA24D02EF5147051
:1008F000BFD20580BBE51575F00AA4FEEA24D02E10
:10090000F51580ACBA2E0A74FFB515A475150080D4
:100910009F8A06BE6100400E8A06EE24854007537A
:1009200002DFD2008002C200BA20028075BA23031F
:100930000209B1BA2A030209B6BA2B02805FBA2DA6
:10094000028055BA4202805FBA43030209FBBA44EF
:1009500003020B36BA4503020B50BA4603020B4C96
:10096000BA4703020B54BA4903020B36BA4C028051
:100970003BBA4E03020B58BA4F03020B3DBA500369
:10098000020ACFBA5303020A1FBA5503020B42BA36
:100990005803020B47020B82D2040208B0D20602AF
:1009A00008B0D2070208B0D2090208B0D20A020881
:1009B000B0D20B0208B074FFB5152030090BE51B4F
:1009C00014F8881B86140208B0E51B24FEF8881B67
:1009D0008606088607188E140208B030090BE51B3E
:1009E00014F8881B86150208B0E51B24FEF8881B46
:1009F0008606088607188E150208B030090AE51B1E
:100A000014F8881B8602800FE51B24FEF8881B86DD
:100A100003088604188B028A82120477020B87E58A
:100A20001B24FDF8881B8603088604088605181811
:100A30008B0C8C0D8D0E8B828C838DF0120F70AB16
:100A400082AC838B1674FFB5150385161520041D23
:100A5000C3E51695145016E514C39516F514AB149A
:100A60001514EB600875822012047780F1850C82E2
:100A7000850D83850EF0120E1CFBFA6029AB15154F
:100A800015C3E464808BF063F08095F050188A827F
:100A9000120477AB0CAC0DAD0E0BBB00010C8B0C34
:100AA0008C0D8D0E80C7200403020B87C3E51695BD
:100AB000144003020B87E514C39516F514AB141507
:100AC00014EB7003020B8775822012047780EEE529
:100AD0001B24FDF8881B8603088604088605181861
:100AE0008B0C8C0D8D0EE50EFB30E7047A438013E2
:100AF000EB546060047A50800AEB30E6047A498057
:100B0000027A588A82C00212047775823A120477F8
:100B1000758230120477758278120477D002BA4950
:100B200002800BBA50028006850D821204AA850C41
:100B3000821204AA8051D20875130A804A751308DC
:100B4000804575130A8040751310803BD2018037B1
:100B5000D2028033D203802FE51B24FDF8881B8648
:100B60000308860408860518188B0C8C0D8D0E8BD7
:100B7000828C838DF0E511120F57A3E512120F57E7
:100B800080058A8212047720010620020330037058
:100B9000E51B24FCF8881B860308860408860508E4
:100BA00086061818188B0C8C0D8D0E8E0FE50CE533
:100BB0000DE50EE50F8B828C838DF0EE120E3874EE
:100BC000FFB51503751506300327747F550FFB8B92
:100BD00010E510EB2BFB8B10E50E30E7067401459A
:100BE00010F510E51024684006749925104002D2D3
:100BF0000230020612077302086112050002086142
:100C0000E51370030208617B2730092BE51B14F8FC
:100C1000881BE6FC3395E0FDFEFF8C0C8D0D8E0EDF
:100C20008F0F20085EAC0C7D007E007F008C0C8D49
:100C30000D8E0E8F0F804C300A1FE51B24FCF888A8
:100C40001B86040886050886060886071818188C6F
:100C50000C8D0D8E0E8F0F802AE51B24FEF8881B4D
:100C6000860408860518ED3395E0FEFF8C0C8D0D8B
:100C70008E0E8F0F20080CAC0CAD0D7E007F008E09
:100C80000E8F0F300B43E50C450D450E450F6039B7
:100C90007408B5130C758230C003120477D003803A
:100CA000287410B51323758230C003120477D00363
:100CB00030000C758278C003120477D003800A7567
:100CC0008258C003120477D003300825AC0CAD0D58
:100CD000AE0EE50FFF30E717C3E49CFCE49DFDE496
:100CE0009EFEE49FFF8C0C8D0D8E0E8F0F8002C236
:100CF00008751600D20C8B00751000C0001204C1DC
:100D0000D000200C0DE510C4FCE6FD4CF61888035D
:100D10008002A6100516B20CE50C450D450E450FD8
:100D200070D68803E514700375140120051A200499
:100D300017E51604FCC39514500E758220C00312EB
:100D40000477D003151480E930080E75822DC00396
:100D5000120477D00315148024E516602030060EA7
:100D600075822BC003120477D0031514800F30074F
:100D70000C758220C003120477D003151420041EC2
:100D8000AC141514C3E5169C50273005047C308044
:100D9000027C208C82C003120477D00380E2C3E57A
:100DA0001695145009E514C39516F51480037514AF
:100DB000008B00AB161516EB6022B20C200C0A0853
:100DC000E6C4540FFB8B1080078603740F5BF5108D
:100DD000851082C000120491D00080D72004030245
:100DE0000861AB141514EB700302086175822012C0
:100DF000047780EE8A821204770208618511828569
:100E0000128322AA82BA0A0810990280FB75990DF2
:100E100010990280FB8A99227582002220F71430F3
:100E2000F6148883A88220F507E6A883758300223C
:100E3000E280F7E49322E022C0E0F8458245834552
:100E4000F07009F5F0FBFCFDFE020F06E823A2F7A7
:100E500092E0F8A982AA83D2F7ABF07C007E07C3A8
:100E6000749798404074FF2EFE740A89F0A4F985A7
:100E7000F082740A8AF0A4FA85F083740A8BF0A4D5
:100E8000FB740529F9EA3582FAEB3583FB740035EA
:100E9000F0FCC3EC13FCEB13FBEA13FAE913F908BB
:100EA000EC70EF80BAE8C3947FF88B838EF0E4FB9C
:100EB000FCFDFEFF08C3E933F9EA33FAE58333F5B5
:100EC00083EB3BD4FBEC3CD4FCED3DD4FDEE3ED4B7
:100ED000FEEF3FD4FF602D05F074052BD4FBE43CFE
:100EE000D4FCE43DD4FDE43ED4FEE43FD4FF75825F
:100EF00004C3EF13FFEE13FEED13FDEC13FCEB1335
:100F0000FBD582EDD8AF7822D0E020E704762B80A5
:100F100002762D087906E7C4540F4430F608B90666
:100F200003762E08E7540F4430F60819B902E77625
:100F30004508E5F020E704762B8004762DF40408BC
:100F400075F00A844430F608E5F04430F608E4F61B
:100F500090002275F0402220F71030F6118883A807
:100F60008220F507F6A88375830022F280F7F0222D
:100F7000AA82AB83ACF07D007E008A828B838CF0EA
:100F8000120E1CFFA3AA82AB83EF60070DBD00EA1F
:100F90000E80E78D828E832200000000000000009A
:00000001FF
