:1000000002000375814312016BE582600302006FF9
:10001000780079007A007B007C007D00EC4D601C4C
:1000200088828983E493A3A882A9838A828B83F040
:10003000A3AA82AB831CBCFFE31D80E07582007520
:1000400083007C007D00EC4D600AE4F0A31CBCFF43
:10005000F51D80F27582007583007C007D00EC4DFB
:10006000600AE4F0A31CBCFFF51D80F212016A12C5
:10007000024F80FE1B5B324A001B5B363B3148005F
:100080001B5B303B3325643B3425646D00C9CDCD0B
:10009000CDCDCDCDCDCDCDCDCDCDCBCDCDCDCDCD92
:1000A000CDCDCDCDCDCDCDBB0A00BA2056726D736E
:1000B00020526566202020BA2020202020202020E9
:1000C00020202020BA0A00CCCDCDCDCDCDCDCDCDB8
:1000D000CDCDCDCDCECDCDCDCDCDCDCDCDCDCDCD4F
:1000E000CDB90A00BA2056726D732054657374201E
:1000F00020BA202020202020202020202020BA0AE2
:1001000000BA205068617365202020202020BA208A
:100110002020202020202020202020BA0A00BA20E1
:100120004672657175656E63792020BA20202020A3
:100130002020202020202020BA0A00C8CDCDCDCDFF
:10014000CDCDCDCDCDCDCDCDCACDCDCDCDCDCDCDE2
:10015000CDCDCDCDCDBC0A001B5B25643B256448CD
:1001600000252E3366001B5B4B002253D9BF43A9E9
:100170000243B20353F3F043D60F75BB0875BA1FA1
:1001800075BCF875E88075D10875FF8075EF06437A
:10019000A41075E10175E240758D98538EF4438E7D
:1001A00008858D8B53890F438920D28E759852759F
:1001B00082002243A90243B20375EF042243A41034
:1001C00075E10175E24022AA82438E407592E8757E
:1001D00093FF8592948593957591047B00C3EB9A68
:1001E000500BE59130E7FB53917F0B80F075910048
:1001F00022AA82AB837C007D00C3EC9AED9B502B3E
:100200007E00BE0400501D7582FAC002C003C00407
:10021000C005C0061201C7D006D005D004D003D057
:10022000020E80DE0CBC00D10D80CE225389F0433B
:100230008905C28C22759810758D98538EF4438E63
:1002400008858D8B53890F438920D28ED299221233
:1002500001BD1201B312023512022C7474C0E07495
:1002600000C0E07480C0E01207CD158115811581B2
:10027000D2EC20ECFD7479C0E07400C0E07480C062
:10028000E01207CD158115811581C28C7589017524
:100290008C00758A0020A5FD30A5FDD28C20A5FD1F
:1002A000C28CAB8C7A00AC8A7D00EC2AFAED3B8ADA
:1002B00082C58225E0C58233F583120709AA82AB85
:1002C00083ACF0FDC002C003C004C005C002C0037F
:1002D000C004C00590000075F080743F1207FB85D4
:1002E000820D85830E85F00FF510E58124FCF581E4
:1002F000D005D004D003D002C28C758901758C0062
:10030000758A002094FD3094FDD28C2094FDC28C1F
:10031000AF8C7E00A88A7900E82EF582E93FF5834C
:10032000C002C003C004C005120709AE82AF83A893
:10033000F0F9D005D004D003D002C006C007C00039
:10034000C001C002C003C004C00590000075F0B435
:1003500074431207FBAA82AB83ACF0FDE58124FC59
:10036000F581D001D000D007D006C002C003C00480
:10037000C0058E828F8388F0E9120715AA82AB83AD
:10038000ACF0FDE58124FCF581D2EC75BB0E20ECD0
:10039000FDAEBD7F00A9BEE42EF582E93FF583C026
:1003A00002C003C004C0051207EEAE82AF83A8F0FE
:1003B000F9C006C007C000C00190CCCD75F05474E0
:1003C00040120715AE82AF83A8F0F9E58124FCF551
:1003D00081E4C0E074C0C0E0747FC0E07444C0E059
:1003E0008E828F8388F0E91207FB85820985830A54
:1003F00085F00BF50CE58124FCF581D005D004D007
:1004000003D002D2EC75BB0520ECFDAEBD7F00A988
:10041000BEE42EF582E93FF583C002C003C004C0EC
:10042000051207EEAE82AF83A8F0F9C006C007C080
:1004300000C00190CCCD75F0547440120715AE8207
:10044000AF83A8F0F9E58124FCF581E4C0E074C035
:10045000C0E0747FC0E07444C0E08E828F8388F077
:10046000E91207FBAE82AF83A8F0F9E58124FCF521
:100470008153D9BFC006C007C000C0017474C0E07A
:100480007400C0E07480C0E01207CD15811581159D
:10049000817407C0E0E4C0E0E4C0E0C0E07480C064
:1004A000E07400C0E07480C0E01207CDE58124F95B
:1004B000F581748DC0E07400C0E07480C0E0120764
:1004C000CD15811581158174AAC0E07400C0E07457
:1004D00080C0E01207CD15811581158174C7C0E079
:1004E0007400C0E07480C0E01207CD15811581153D
:1004F0008174E4C0E07400C0E07480C0E01207CDF5
:1005000015811581158174C7C0E07400C0E0748046
:10051000C0E01207CD1581158115817401C0E0740A
:1005200001C0E07480C0E01207CD158115811581EE
:1005300074C7C0E07400C0E07480C0E01207CD153D
:100540008115811581741EC0E07401C0E07480C003
:10055000E01207CD158115811581743BC0E074014F
:10056000C0E07480C0E01207CD158115811581743B
:1005700012C0E0E4C0E07402C0E0E4C0E07458C01F
:10058000E07401C0E07480C0E01207CDE58124F979
:10059000F5817407C0E0E4C0E07401C0E0E4C0E0AD
:1005A0007480C0E07400C0E07480C0E01207CDE544
:1005B0008124F9F581C009C00AC00BC00C7461C068
:1005C000E07401C0E07480C0E01207CDE58124F939
:1005D000F5817412C0E0E4C0E07404C0E0E4C0E05F
:1005E0007458C0E07401C0E07480C0E01207CDE52B
:1005F0008124F9F5817407C0E0E4C0E07402C0E032
:10060000E4C0E07480C0E07400C0E07480C0E01218
:1006100007CDE58124F9F5817461C0E07401C0E083
:100620007480C0E01207CDE58124F9F5817412C011
:10063000E0E4C0E07406C0E0E4C0E07458C0E074D8
:1006400001C0E07480C0E01207CDE58124F9F58196
:100650007407C0E0E4C0E07404C0E0E4C0E074806B
:10066000C0E07400C0E07480C0E01207CDE58124D2
:10067000F9F5817461C0E07401C0E07480C0E012DB
:1006800007CDE58124F9F5817412C0E0E4C0E0747F
:1006900008C0E0E4C0E07458C0E07401C0E07480B9
:1006A000C0E01207CDE58124F9F5817407C0E0E4CC
:1006B000C0E07405C0E0E4C0E07480C0E07400C035
:1006C000E07480C0E01207CDE58124F9F581C00D0A
:1006D000C00EC00FC0107461C0E07401C0E074802F
:1006E000C0E01207CDE58124F9F5817466C0E0749D
:1006F00001C0E07480C0E01207CD1581158115811D
:100700009000641201F1020275E4AC83AB82FAF945
:10071000748E0209231209AFBC000302094EEF6078
:10072000FA30D502B2D1E583B4FF03020964E58251
:10073000B4FF03020964258340072482400B0209A9
:100740004E2483145003020964F582EA8DF0A4A8B4
:10075000F0EA8EF0A428F8E435F0F9EB8DF0A42847
:10076000E935F0F9E433CA8FF0A429F9EA35F0FA53
:10077000EBF88EF0A429F9EA35F0FAE433FBEC8DBE
:10078000F0A429F9EA35F0FAE43BFBE88FF0A42A5B
:10079000FAEB35F0FBE433CCFD8EF0A42AFAEB350E
:1007A000F0FBE43CFCED8FF0A42BFBEC35F0FC20DF
:1007B000E70312097C02092D0213698582308583C3
:1007C0003185F0328511339007B8020DBCC0088521
:1007D0008108E50824FBF533E50824FBF88630089A
:1007E00086310886329007B8120DBCD00822AC833F
:1007F000AB827A007900748E0213871209AF30D56C
:1008000002B2D1BF0009BC0003020971020964BC35
:10081000000302094EE583B4FF0BE582B4FF030237
:10082000097102094EE582B4FF03020964C395838E
:100830005007247F400B02094E2480145003020904
:1008400064C0E0E4CCCBCAF98D128E138F14EF5440
:10085000F0C4F5157583068515F0EB84F582E9C4BF
:10086000F9EAC4FAEBC4FBEC540FC47803D6FC18C5
:10087000EBD6FB18EAD6FA8582F0EDA4A8F0FD8548
:1008800082F0EEA428FEE435F0F88582F0EFA4288B
:10089000FFE435F0F8E99DF9EA9EFAEB9FFBEC984E
:1008A000FCAD12AE13AF1430E7101582E92DF9EA52
:1008B0003EFAEB3FFBE43CFC80EDC082D58398C35D
:1008C000E933F9EA33FAEB33FBEC33FCC3E99DEA95
:1008D0009EEB9FEC9400B3E413F9D002D0E0C44A3D
:1008E000FAD003D0E0C44BFBD004D0E0F5F0540FB5
:1008F000C44CFCD082158230F40FD3EC13FCEB1304
:10090000FBEA13FAE913F90582E930E70A74012AD0
:10091000FAE43BFBE43CFC020945FCABF0AA83A9EA
:1009200082749EC2D1F58212097C02092DB980031E
:10093000EA13B34010EA2401FAE43BFBE43CFC5028
:10094000047C800582BC000EBB000BBA0008E4F5F5
:10095000F0F583F58222A2D1E582138CF092F78B19
:10096000838A8222E4F583F58275F080F4A2D113A4
:1009700022E4F583F58275F0C0747F227804EC7070
:1009800011E58224F8500AF582E4C9CACBFCD8EFFD
:1009900022EC7820058220E713D5820122C3E933B7
:1009A000F9EA33FAEB33FBEC33FCD8EA158222AADE
:1009B00082AB83A2F73392D16002D2F7F582ACF01A
:1009C000E58124F9F8E6FD08E6FE0886F008E6A2CF
:1009D000F73392D56002D2F7F583AFF022AA827482
:1009E000EEC0E07409C0E0C022C0238A822205293B
:1009F000E4B52902052A22AA8274302AFA24C650B4
:100A00000A74072AFA3000034302208A820209DDB1
:100A1000E582FAC4540FF582C0021209F7D00274BD
:100A20000F5AF5820209F7AA24AB25AC26AD27AEF2
:100A300028752F20EE2EFEED235401FF4206EA2AF0
:100A4000FAEB33FBEC33FCED33FDC3EE952B4008A2
:100A5000EEC3952BFE430201D52FD98A248B258C1A
:100A6000268D278E28227840E624D075F00AA4FA35
:100A70007841E624D02AFA783F8603BB2D04C3E4EC
:100A80009AFA752B01C3E464808AF063F08095F0D4
:100A90005029752F038A0374F6252F401C052BE57A
:100AA0002F142434F8E52F2434F98704A604772E74
:100AB0001BEBFA6004052F80DE8B02EA30E70D782D
:100AC0003586037836A6037835762E0AE52D600A3A
:100AD000E52D04FB252BF52B8005300B02052B782B
:100AE000348603E4BB2D0104FB70062006033007A7
:100AF00002052B300403020BAD300557EB600C757B
:100B0000822DC0021209DDD002801C30060C7582D5
:100B10002BC0021209DDD002800D30070A75822039
:100B2000C0021209DDD00278358604BC2E0C758215
:100B300030C0021209DDD002152CAC2C152CC3E5F7
:100B40002B9C4003020BF1758230C0021209DDD0EC
:100B50000280E7AC2C152CC3E52B9C500C75822031
:100B6000C0021209DDD00280EA78348604BC2D0C64
:100B700075822DC0021209DDD002801C30060C7572
:100B8000822BC0021209DDD002800D30070A758267
:100B900020C0021209DDD00278358604BC2E5275C1
:100BA0008230C0021209DDD002152C8044EB600EA9
:100BB00075822DC0021209DDD002152C802030066E
:100BC0000E75822BC0021209DDD002152C800F3069
:100BD000070C758220C0021209DDD002152C783571
:100BE0008603BB2E0C758230C0021209DDD00215BF
:100BF0002C752F01C20DE52F2434F88603BB450365
:100C0000020CAEBB2E348A03C3E464808BF063F025
:100C10008095F0500F758230C0031209DDD0031BA0
:100C20008B0280E48B02D20DE52D7038200B03027D
:100C30000CAE75822E1209DD8074300D278A03EB0D
:100C400030E71FC3E46480852DF063F08095F05099
:100C50000C758230C0031209DDD003152D0B8B02F9
:100C600080DD8B02300D0EC3E46480852DF063F0CF
:100C70008095F05021E52F2434F886038B82C00242
:100C80001209DDD002300D0EE52F2434F88603BBA7
:100C90002E028002152D152CC3E46480852DF0638F
:100CA000F08095F04003200D05052F020BF6C3E4FC
:100CB0006480852DF063F08095F0500A75823012C3
:100CC00009DD152D80E830040FAA2C152CEA6008E8
:100CD0007582201209DD80F122E52D7003300B0DA5
:100CE0007407252DFAE52CC39AF52C8006E52C24F3
:100CF000FAF52C752F0078348602BA2B0F20060CDB
:100D000078347620200705752F01052C200419AAB8
:100D10002CC3E464808AF063F08095F0500A7582F9
:100D2000201209DD152C80E7C20DE52F2434F8864A
:100D300002BA00028069BA451F3000027665C3E43A
:100D40006480852DF063F08095F0500A7582301232
:100D500009DD152D80E8D20DC3E52F9402E433FAA6
:100D60007014EA700EC3E46480852DF063F0809502
:100D7000F04003300D16E52F2434F886028A8212E3
:100D800009DDE52F24FD5012152D800E7402B52FBC
:100D900009300B0675822E1209DD052F020D2A304F
:100DA0000419AA2CC3E464808AF063F08095F050A3
:100DB0000A7582201209DD152C80E72285822285A2
:100DC0008323E4F529F52AAA30AB31AC328A828B31
:100DD000838CF01213ABFD74012AF530E43BF5313E
:100DE0008C32EDFA7003021362BA250280030213FB
:100DF0005AC204C205C206C207C208C209C20AC258
:100E00000BC201C202C203752B00752C00752DFFA9
:100E1000AB30AC31AD328B828C838DF01213ABFAD8
:100E2000A3AB82AC838B308C318D32BA25078A829A
:100E30001209DD80928A06BE3000402E8A06EE241A
:100E4000C6402774FFB52D13E52C75F00AA4FEEA01
:100E500024D02EF52C70BFD20580BBE52D75F00A8D
:100E6000A4FEEA24D02EF52D80ACBA2E0A74FFB56C
:100E70002DA4752D00809F8A06BE6100400E8A0653
:100E8000EE248540075302DFD2008002C200BA2060
:100E9000028075BA2303020F17BA2A03020F1CBA85
:100EA0002B02805FBA2D028055BA4202805FBA439E
:100EB00003020F61BA440302109CBA45030210B644
:100EC000BA46030210B2BA47030210BABA49030283
:100ED000109CBA4C02803BBA4E030210BEBA4F03BC
:100EE0000210A3BA5003021035BA5303020F85BA99
:100EF00055030210A8BA58030210AD0210E8D2043C
:100F0000020E16D206020E16D207020E16D20902E1
:100F10000E16D20A020E16D20B020E1674FFB52D53
:100F20002030090BE53314F88833862C020E16E5C1
:100F30003324FEF888338606088607188E2C020EA6
:100F40001630090BE53314F88833862D020E16E5AA
:100F50003324FEF888338606088607188E2D020E85
:100F60001630090AE53314F888338602800FE5331A
:100F700024FEF888338603088604188B028A8212BE
:100F800009DD0210EDE53324FDF888338603088679
:100F90000408860518188B248C258D268B828C835B
:100FA0008DF01214FFAB82AC838B2E74FFB52D0332
:100FB000852E2D20041DC3E52E952C5016E52CC33F
:100FC000952EF52CAB2C152CEB60087582201209A0
:100FD000DD80F18524828525838526F01213ABFB05
:100FE000FA6029AB2D152DC3E464808BF063F0808B
:100FF00095F050188A821209DDAB24AC25AD260B82
:10100000BB00010C8B248C258D2680C72004030295
:1010100010EDC3E52E952C40030210EDE52CC39591
:101020002EF52CAB2C152CEB70030210ED758220E5
:101030001209DD80EEE53324FDF888338603088647
:101040000408860518188B248C258D26E526FB3090
:10105000E7047A438013EB546060047A50800AEB13
:1010600030E6047A4980027A588A82C0021209DD89
:1010700075823A1209DD7582301209DD75827812A7
:1010800009DDD002BA4902800BBA500280068525DC
:1010900082120A10852482120A108051D208752B00
:1010A0000A804A752B088045752B0A8040752B10E5
:1010B000803BD2018037D2028033D203802FE533C8
:1010C00024FDF88833860308860408860518188BE3
:1010D000248C258D268B828C838DF0E5291214E6D5
:1010E000A3E52A1214E680058A821209DD20010692
:1010F000200203300370E53324FCF88833860308AC
:1011000086040886050886061818188B248C258DF9
:10111000268E27E524E525E526E5278B828C838D21
:10112000F0EE1213C774FFB52D03752D063003279B
:10113000747F5527FB8B28E528EB2BFB8B28E526B6
:1011400030E70674014528F528E528246840067430
:101150009925284002D202300206120CD9020DC78E
:10116000120A66020DC7E52B7003020DC77B3930EA
:10117000092BE53314F88833E6FC3395E0FDFEFFD8
:101180008C248D258E268F2720085EAC247D007E42
:10119000007F008C248D258E268F27804C300A1FDF
:1011A000E53324FCF888338604088605088606089B
:1011B00086071818188C248D258E268F27802AE5FF
:1011C0003324FEF88833860408860518ED3395E04D
:1011D000FEFF8C248D258E268F2720080CAC24AD95
:1011E000257E007F008E268F27300B43E524452582
:1011F0004526452760397408B52B0C758230C0032D
:101200001209DDD00380287410B52B23758230C0FD
:10121000031209DDD00330000C758278C003120977
:10122000DDD003800A758258C0031209DDD0033077
:101230000825AC24AD25AE26E527FF30E717C3E42B
:101240009CFCE49DFDE49EFEE49FFF8C248D258E96
:10125000268F278002C208752E00D20C8B007528BD
:1012600000C000120A27D000200C0DE528C4FCE6BF
:10127000FD4CF61888038002A628052EB20CE52442
:1012800045254526452770D68803E52C7003752C27
:101290000120051A200417E52E04FCC3952C500EDE
:1012A000758220C0031209DDD003152C80E93008B7
:1012B0000E75822DC0031209DDD003152C8024E5A4
:1012C0002E602030060E75822BC0031209DDD0037C
:1012D000152C800F30070C758220C0031209DDD059
:1012E00003152C20041EAC2C152CC3E52E9C502776
:1012F0003005047C3080027C208C82C0031209DD22
:10130000D00380E2C3E52E952C5009E52CC3952E21
:10131000F52C8003752C008B00AB2E152EEB602274
:10132000B20C200C0A08E6C4540FFB8B28800786F9
:1013300003740F5BF528852882C0001209F7D000DE
:1013400080D7200403020DC7AB2C152CEB700302D1
:101350000DC77582201209DD80EE8A821209DD0236
:101360000DC7852982852A8322AA82BA0A08109984
:101370000280FB75990D10990280FB8A9922FCABC3
:10138000F0AA83A982749EF582C2D1EC30E716D20E
:10139000D1E9F42401F9EAF43400FAEBF43400FB67
:1013A000ECF43400FC12097C02092D20F71430F60D
:1013B000148883A88220F507E6A88375830022E2BB
:1013C00080F7E49322E022C0E0F84582458345F0AF
:1013D0007009F5F0FBFCFDFE021495E823A2F792DC
:1013E000E0F8A982AA83D2F7ABF07C007E07C37431
:1013F0009798404074FF2EFE740A89F0A4F985F096
:1014000082740A8AF0A4FA85F083740A8BF0A4FB34
:10141000740529F9EA3582FAEB3583FB740035F05F
:10142000FCC3EC13FCEB13FBEA13FAE913F908EC29
:1014300070EF80BAE8C3947FF88B838EF0E4FBFCF6
:10144000FDFEFF08C3E933F9EA33FAE58333F58398
:10145000EB3BD4FBEC3CD4FCED3DD4FDEE3ED4FEA6
:10146000EF3FD4FF602D05F074052BD4FBE43CD492
:10147000FCE43DD4FDE43ED4FEE43FD4FF75820499
:10148000C3EF13FFEE13FEED13FDEC13FCEB13FBA8
:10149000D582EDD8AF7834D0E020E704762B8002F7
:1014A000762D087906E7C4540F4430F608B90603D0
:1014B000762E08E7540F4430F60819B902E776454E
:1014C00008E5F020E704762B8004762DF4040875F7
:1014D000F00A844430F608E5F04430F608E4F6906B
:1014E000003475F0402220F71030F6118883A8826E
:1014F00020F507F6A88375830022F280F7F022AA70
:1015000082AB83ACF07D007E008A828B838CF012EC
:1015100013ABFFA3AA82AB83EF60070DBD00EA0EF9
:1015200080E78D828E832200000000000000000012
:00000001FF
