:03000000020159A1
:0100030032CA
:03000B00020101EE
:0100130032BA
:01001B0032B2
:0100230032AA
:03002B00020123AC
:10002E00C00078B10000D8FCD00022C000C0017919
:10003E002D78A6D8FED9FADAF6D001D00022D296C3
:10004E0012002EC29622A2E792B5A2E692B4A2E5C3
:10005E0092B3A2E492B212004C12002EA2E392B519
:10006E00A2E292B4A2E192B3A2E092B212004C22AA
:10007E00D294020054C294020054C296C2957433B4
:10008E0012008374331200837432120083742812A8
:10009E000083740C1200837401120083C0027A0272
:1000AE00120039D00222E493600612007EA380F67D
:1000BE002244404480020083C0E0E8C4540F443020
:1000CE0012007EE8540F443012007ED0E0224243EC
:1000DE00445F636F756E7465723A20787800E589B7
:1000EE0054F04401F589758CEA758AE8D2A9D28C50
:1000FE00D2AF22C28C758CEA758AFCD28CB2B73222
:10010E0075C80075CBA975CA9AE4F530F531D2AD34
:10011E00D2CAD2AF22C2CFB2B6C0E0C0D00530E54F
:10012E003070020531E530B4F41CE531B40117D25C
:10013E0000B28EE4F530F531E532308004240180D2
:10014E00022499D4F532D0D0D0E03275817F75C1BA
:10015E00001200EC12010E120088C0E0740114129D
:10016E0000C1D0E0C083C082C0E09000DC1200B4B9
:10017E00D0E0D082D083D20075320020C51DC002DF
:10018E007A32120039D00220C51130C5FDC28CE47E
:10019E00F530F531753200D28C80033000DDC200AF
:1001AE00C0E0740E141200C1D0E0C000A8321200DC
:0601BE00C6D00002018919
:00000001FF
