:03000000020315E3
:0100030032CA
:03000B00020146A9
:0100130032BA
:01001B0032B2
:0100230032AA
:03002B0002016867
:10002E00C00078B10000D8FCD00022C000C0017919
:10003E002D78A6D8FED9FADAF6D001D00022D296C3
:10004E0012002EC29622A2E792B5A2E692B4A2E5C3
:10005E0092B3A2E492B212004C12002EA2E392B519
:10006E00A2E292B4A2E192B3A2E092B212004C22AA
:10007E00D294020054C294020054C296C2957433B4
:10008E0012008374331200837432120083742812A8
:10009E000083740C1200837401120083C0027A0272
:1000AE00120039D00222E493600612007EA380F67D
:1000BE002244404480020083C0E0E8C4540F443020
:1000CE0012007EE8540F443012007ED0E0222078D9
:1000DE00783A78783A787820414D202020200041D7
:1000EE006C61726D2078783A78783A7878414D0064
:1000FE00414D00504D00E58954F04401F589758C51
:10010E00EA758AE8D2A9D2AFE5335536F50830083C
:10011E0026E5345537F50830081DE5355538F50810
:10012E00300814A2048203920820080BA204720362
:10013E009208300802800022C28C758CEA758AFC07
:10014E00D28CB2B73275C80075CBA975CA9AE4F5D0
:10015E0030F531D2ADD2CAD2AF22C2CFB2B6C0E0E4
:10016E00C0D00530E53070020531E530B46435E5B8
:10017E0031B40030D200B28EE4F530F531E533B44F
:10018E005924D201E4F533E534B45924D202E4F50E
:10019E0034E535B41102B203B4120274002401D452
:1001AE00F5358013801B3080102401D4F533800781
:1001BE00E5342401D4F5348007E5339401D4F533C6
:1001CE00E4D0D0D0E032E535B41102B203B412025D
:1001DE0074002401D4F53522E534B459047400803A
:1001EE00022401D4F53422E533B45904740080029C
:1001FE002401D4F53322E538B41102B204B412024C
:10020E0074002401D4F53822E537B4590474008003
:10021E00022401D4F53722E536B459047400800265
:10022E002401D4F53622C200C201C202853332C087
:10023E00E07408141200C1D0E0C000A8321200C64B
:10024E00D000853432C0E07405141200C1D0E0C075
:10025E0000A8321200C6D000853532C0E0740214F8
:10026E001200C1D0E0C000A8321200C6D000300388
:10027E0015C0E0740B141200C1D0E0C0E07450122F
:10028E00007ED0E08013C0E0740B141200C1D0E0E9
:10029E00C0E0744112007ED0E0853632C0E0740DAD
:1002AE00141200BFD0E0C000A8321200C6D00085E4
:1002BE003732C0E0740A141200BFD0E0C000A8327A
:1002CE001200C6D000853832C0E07407141200BF89
:1002DE00D0E0C000A8321200C6D000300415C0E035
:1002EE00740F141200BFD0E0C0E0745012007ED024
:1002FE00E08013C0E0740F141200BFD0E0C0E074B1
:10030E004112007ED0E02275817F75C1001201047A
:10031E00120153120088C0E07401141200C1D0E023
:10032E00C083C082C0E09000DC1200B4D0E0D08266
:10033E00D083C0E07401141200BFD0E0C083C0822D
:10034E00C0E09000ED1200B4D0E0D082D083C2079E
:10035E00D203D200D201D20275320020A311C00204
:10036E007A32120039D00220A30530A3FDB2CA2082
:10037E00A470C0027A32120039D00220A46430A4D4
:10038E00FDB20720A411C0027A32120039D0022029
:10039E00A40530A4FDB20720A015C0027A321200C7
:1003AE0039D00220A00930A0FD120204120234201E
:1003BE00A115C0027A32120039D00220A10930A153
:1003CE00FD12021612023420A215C0027A32120059
:1003DE0039D00220A20930A2FD12022512023420C9
:1003EE0007A120A015C0027A32120039D00220A037
:1003FE000930A0FD1201D412023420A115C0027AD8
:10040E0032120039D00220A10930A1FD1201E612EC
:10041E00023420A215C0027A32120039D00220A274
:10042E000930A2FD1201F512023420C56EC0027A07
:10043E0032120039D00220C56230C5FDC28CE4F5FF
:10044E0030F5317532007533007534007535117520
:10045E003600753700753800C0E07401141200C103
:10046E00D0E0C083C082C0E09000DC1200B4D0E0C7
:10047E00D082D083C0E07401141200BFD0E0C083DC
:10048E00C082C0E09000ED1200B4D0E0D082D083E4
:10049E00C203C204C207D28C120234120234020307
:0104AE0069E4
:00000001FF
