:03000000020413E4
:10000300C00078B10000D8FCD00022C000C0017944
:100013002D78A6D8FED9FADAF6D001D00022D296EE
:10002300120003C29622A2E792B5A2E692B4A2E519
:1000330092B3A2E492B2120021120003A2E392B59A
:10004300A2E292B4A2E192B3A2E092B21200212200
:10005300D294020029C294020029C296C295743335
:100063001200587433120058743212005874281254
:100073000058740C1200587401120058C0027A021E
:1000830012000ED00222E4936006120053A380F6FE
:100093002244404480020058C0E0E8C4540F443076
:0E00A300120053E8540F4430120053D0E022F4
:1000B100C0E0C0D0C000C001C002E4F538F539F598
:1000C1003AF53BF53C7A20E533A2E779047830E64E
:1000D10033F608D9FA79057838E636D4F608D9F92D
:1000E100DAE5D002D001D000D0D0D0E022C0E0C00B
:1000F100D0C000C001C002E4F538F539F53AF53B4E
:10010100F53C7A20E533A2E779047830E633F60846
:10011100D9FA79057838C0D0E6243320E70224D013
:1001210020E30224FDD0D033F608D9EADAD6D00292
:10013100D001D000D0D0D0E022C0E0C0D0C000C0FB
:1001410001C0027A207905C3783CE613C0D030E7BC
:100151000224D030E30224FDF618D0D0D9EC790482
:100161007833E613F618D9FADADBD002D001D000E1
:10017100D0D0D0E022C0E0C0D0E5302534F530E564
:10018100313535F531E5323536F532E5333537F58B
:1001910033D0D0D0E022C0E0C0D0C3E5309534F5F3
:1001A10030E5319535F531E5329536F532E5339562
:1001B10037F533D0D0D0E022C0E0C0D0C3E53095D0
:1001C10034E5319535E5329536E53395379200D0F2
:1001D100D0D0E022C0E0C0D0C3E5349530E53595FC
:1001E10031E5369532E53795339200D0D0D0E02213
:1001F100C0E0C0D0C200C3E53495307014E5359538
:1002010031700EE53695327008E53795337002D2BC
:1002110000D0D0D0E0221201F12000030201D5224A
:100221001201F12000030201B922C0E0C0F0C0D0E8
:10023100C000C001C002C003E5308534F0A4F8A9B4
:10024100F0E5318534F0A429F9E435F0FAE530859B
:1002510035F0A429F9E5F03AFAE433FBE5328534C7
:10026100F0A42AFAE5F03BFBE5318535F0A42AFA42
:10027100E5F03BFBE5308536F0A42AFAE5F03BFBDF
:10028100E5338534F0A42BFBE5328535F0A42BFB57
:10029100E5318536F0A42BFBE5308537F0A42BFB47
:1002A1008B338A3289318830D003D002D001D0001B
:1002B100D0D0D0F0D0E022C0E0C0D0C000C001C09A
:1002C10002C003C0047C20E4F8F9FAFBC3E5303333
:1002D100F530E53133F531E53233F532E53333F5D8
:1002E10033E833F8E933F9EA33FAEB33FBC3E89542
:1002F10034E99535EA9536EB95374013E89534F8AE
:10030100E99535F9EA9536FAEB9537FB433001DC8F
:10031100BBD004D003D002D001D000D0D0D0E02295
:1003210020202074656D703A2078782043202020A9
:0103310000CB
:10033200D2A2C2A322C0E079007A08E833F892A1DF
:10034200D2A3A2A2E933F9C2A3DAF0D0E022853D1A
:1003520030853E317532007533007534F4753501E0
:1003620075360075370012022B7534FF753503752B
:1003720036007537001202B87534117535017536BD
:1003820000753700120197E530D4F5411203C5120A
:1003920000B1E539C4540F4430120400E539540F5A
:1003A2004430120400E538C4540F4430120400E50E
:1003B20038540F4430120400740D120400740A12EF
:1003C200040022854145C0E0740A14120096D0E070
:1003D200C000A84512009BD000227AC879647864D4
:1003E200D8FED9FADAF622C28E53890F43892075D4
:1003F2008DF4758BF4438780D28E75985222309992
:10040200FDC299F59922E4936006120400A380F6D6
:100412002275817F75C10012005DC0E07401141263
:100422000096D0E0C083C082C0E090032112008910
:10043200D0E0D082D0831203E9120332C2A0780145
:100442001203377880120337E95403F53E785512C8
:0E0452000337893DD2A01203DC12035080DE76
:00000001FF
