:1000000002002E750800E4F50AF50BE4F50CF50D79
:10001000E4F50EF50F2200000000000000000000D3
:1000200000000000000000000000000201F97581DE
:100030004E12019CE582600302009A780079007AF2
:10004000007B007C007D00EC4D601C88828983E48D
:1000500093A3A882A9838A828B83F0A3AA82AB830D
:100060001CBCFFE31D80E07582007583007C007D71
:1000700000EC4D600AE4F0A31CBCFFF51D80F27596
:1000800082007583007C007D00EC4D600AE4F0A3E3
:100090001CBCFFF51D80F212000312036480FE1BDE
:1000A0005B324A001B5B25643B2564480043686F54
:1000B0006F7365206265747765656E2074776F2055
:1000C0006F7074696F6E733A2074656D70657261DC
:1000D0007475726520636F6E74726F6C6C656420EA
:1000E0006D6F746F72202831292C206F7220757308
:1000F00065722D636F6E74726F6C6C6564206D6FCA
:10010000746F7220286F74686572293A2000256424
:100110000A000D766F6C746167653A20252E336690
:100120002C204452563A20256420202020202020D4
:1001300020000D506C6561736520496E70757420E8
:1001400050574D2052616E67652031303020746FFA
:10015000202D3130303A200025640056616C7565E1
:10016000204E6F742057697468696E2052616E6703
:1001700065000A5479706520276F2720616E64201E
:10018000707265737320656E74657220746F20657C
:100190006E642050574D3A200025730053D9BF7527
:1001A000FF8075EF0643A90343B203759810758D60
:1001B00030538EF4438E08858D8B53890F438920ED
:1001C000D28ED29943A60343A41075E10175E24093
:1001D00075C800438E1075CA7875CBEC75CCFF7569
:1001E000CDFFD2ADD2CAD2AF7582002243A4107522
:1001F000E10175E25075E30022C0E0C002C003C017
:10020000D075D000C2CF0508E508249B50037508BF
:1002100000AA087B00C3E50A9AE50B9B9200B39203
:10022000A0AA087B00C3E50C9AE50D9B9200B3924F
:10023000A1D0D0D003D002D0E032AA82438E407544
:1002400092D07593FF8592948593957591047B0068
:10025000C3EB9A500BE59130E7FB53917F0B80F095
:1002600075910022AA82AB83BA0004BB00012275FB
:1002700082F9C002C00312023A7582F912023A757D
:1002800082F912023A7582FA12023AD003D0021AA7
:10029000BAFF011B80D275BCF875E88075D10822C1
:1002A000AA82853BF005F07401800225E0D5F0FBC1
:1002B000FBEA24FC4033EA2A2A9002BD730202C9F9
:1002C0000202D10202D90202E1EBF452F1EB42D474
:1002D00022EBF452F2EB42D522EBF452F3EB42D68E
:1002E00022EBF4FA52F4EB42DF228582BB75BA1F8F
:1002F000D2EC20ECFDD2EC20ECFDAABD7B00ADBE23
:100300007C00EC2AF582ED3BF583221202EA12060C
:1003100027AA82AB83ACF0FDC002C003C004C005B5
:1003200090333375F0537440120667AA82AB83ACE6
:10033000F0FDE58124FCF581E4C0E0C0E07480C0FC
:10034000E07444C0E08A828B838CF0ED12074BAAE4
:1003500082AB83ACF0FDE58124FCF5818A828B833E
:100360008CF0ED22E4F510F511F512F513F514F506
:10037000151201EC749FC0E07400C0E07480C0E00E
:1003800012071F158115811581753B0775820112B2
:1003900002A0120296E4F50AF50BF50CF50D7401B6
:1003A000C0E0E4C0E07401C0E0E4C0E074A4C0E0D8
:1003B0007400C0E07480C0E012071FE58124F9F5E5
:1003C0008174ADC0E07400C0E07480C0E012071F0B
:1003D0001581158115817410C0E07400C0E074406F
:1003E000C0E0740EC0E07401C0E07480C0E012068A
:1003F00006E58124FAF581749FC0E07400C0E074C2
:1004000080C0E012071F1581158115817401B51098
:1004100006E4B5110280030204E275820712030BA1
:1004200085821285831385F014F515741FC0E0745E
:1004300085C0E0743BC0E07440C0E0851282851343
:10044000838514F0E515120740AA82AB83ACF0FD5A
:10045000E58124FCF58174CDC0E074CCC0E0744C1F
:10046000C0E0743DC0E08A828B838CF0ED12074BB4
:10047000AA82AB83ACF0FDE58124FCF581C002C00B
:1004800003C004C00590000075F0C87442120667EE
:10049000AA82AB83ACF0FDE58124FCF5818A828BD6
:1004A000838CF0ED12063385820E85830FC00EC05B
:1004B0000FC012C013C014C0157412C0E07401C084
:1004C000E07480C0E012071FE58124F7F581850EF6
:1004D0000A850F0BE4F50CF50D90000F1202640273
:1004E000040C7432C0E07401C0E07480C0E01207F4
:1004F0001F158115811581740EC0E07400C0E07471
:1005000040C0E07458C0E07401C0E07480C0E012E4
:100510000606E58124FAF581C3E50E949CE50F6497
:1005200080947F40117464950EE46480850FF063BD
:10053000F08095F05017745BC0E07401C0E07480E7
:10054000C0E012071F158115811581803EC3E49517
:100550000EE46480850FF063F08095F0500D850EF9
:100560000A850F0BE4F50CF50D8020E50F30E7123E
:10057000E4F50AF50BC3E4950EF50CE4950FF50DC3
:100580008009E4F50AF50BF50CF50D7472C0E07402
:1005900001C0E07480C0E012071F1581158115812C
:1005A0007409C0E07400C0E07440C0E07499C0E019
:1005B0007401C0E07480C0E0120606E58124FAF5FB
:1005C00081749FC0E07400C0E07480C0E012071F17
:1005D000158115811581020395120E8CAA82BA0825
:1005E00010758220C002120E9F758208120E9FD0D5
:1005F000028A822285823485833585F036851737D5
:100600009005D9020A7AC016858116E51624FBF5F5
:1006100037E51624FBF886340886350886369005BB
:10062000D9120A7AD01622E4AC83AB82FAF9748E1E
:10063000020EBD120EC7700AE582458345F07001B7
:1006400022E430D112F4700BE5F0F47006E583304B
:10065000E7012290800022700AE5F07006E5832011
:10066000E70122907FFF22120FA4BC0003020F4378
:10067000EF60FA30D502B2D1E583B4FF03020F591F
:10068000E582B4FF03020F59258340072482400B03
:10069000020F432483145003020F59F582EA8DF0B0
:1006A000A4A8F0EA8EF0A428F8E435F0F9EB8DF078
:1006B000A428E935F0F9E433CA8FF0A429F9EA3522
:1006C000F0FAEBF88EF0A429F9EA35F0FAE433FBFE
:1006D000EC8DF0A429F9EA35F0FAE43BFBE88FF061
:1006E000A42AFAEB35F0FBE433CCFD8EF0A42AFA11
:1006F000EB35F0FBE43CFCED8FF0A42BFBEC35F08C
:10070000FC20E703120F71020F22020E9F85823236
:1007100085833385F03485183590070A0213B1C0FC
:1007200016858116E51624FBF535E51624FBF886BB
:100730003208863308863490070A1213B1D0162285
:10074000A8811818C6B2E7C602195E120FA430D5E8
:1007500002B2D1BF0009BC0003020F66020F59BCF0
:100760000003020F43E583B4FF0BE582B4FF0302ED
:100770000F66020F43E582B4FF03020F59C395834E
:100780005007247F400B020F432480145003020FB4
:1007900059C0E0E4CCCBCAF98D3B8E3C8F3DEF5481
:1007A000F0C4F53E758306853EF0EB84F582E9C41E
:1007B000F9EAC4FAEBC4FBEC540FC47803D6FC1876
:1007C000EBD6FB18EAD6FA8582F0EDA4A8F0FD85F9
:1007D00082F0EEA428FEE435F0F88582F0EFA4283C
:1007E000FFE435F0F8E99DF9EA9EFAEB9FFBEC98FF
:1007F000FCAD3BAE3CAF3D30E7101582E92DF9EA88
:100800003EFAEB3FFBE43CFC80EDC082D58398C30D
:10081000E933F9EA33FAEB33FBEC33FCC3E99DEA45
:100820009EEB9FEC9400B3E413F9D002D0E0C44AED
:10083000FAD003D0E0C44BFBD004D0E0F5F0540F65
:10084000C44CFCD082158230F40FD3EC13FCEB13B4
:10085000FBEA13FAE913F90582E930E70A74012A81
:10086000FAE43BFBE43CFC020F3A852482852583B5
:10087000121C65858233E533600A052DE4B52D062B
:10088000052E8002D204853382227A007B00300458
:1008900005783F760022C002C00312086AAC82D0FD
:1008A00003D002BC0002802DBC08028014BC0902E7
:1008B0008023BC0A02801EBC0D028019BC2021804E
:1008C00014EA4B60D11ABAFF011B152D74FFB52D28
:1008D00002152E80C1EA4B60BDEA243FF876002263
:1008E000EC7009EA243FF87600D20422ECB5320716
:1008F000EA243FF8760022C3EA940FEB9400509666
:100900008A058B060ABA00010BED243FF8A6040203
:100910000896AA827B7FC3EA648094B0401174B9C0
:100920008AF063F08095F04006EA24D0FB8030C363
:10093000EA648094C1401174C68AF063F08095F037
:10094000400674C92AFB8017C3EA648094E1400F13
:1009500074E68AF063F08095F0400474A92AFBC322
:10096000EB952F50038B822275827F22AA827529F4
:1009700000752A00752B00752C008A00E6FA6014B9
:100980008A82C000120912AB82D000C3EB952F40BF
:10099000030880E886038B82C000120912AA82D065
:1009A00000C3E52F9A4050852F3B753C00753D00F4
:1009B000753E00852982852A83852BF0E52CC002AF
:1009C000C0001219D3AB82AC83ADF0FED000D002D0
:1009D0008B298C2A8D2B8E2CE4FBFCFDEA2529FA31
:1009E000EB352AFBEC352BFCED352CFD8A298B2AC7
:1009F0008C2B8D2C08809D852982852A83852BF060
:100A0000E52C22AA82752900752A00752B00752C09
:100A1000008A00E6FB60228B82C003C0001209122C
:100A2000AC82D000D003C3EC952F400DBB2D0280CB
:100A300008BB2B0280030880DA88028603BB2D03E3
:100A4000D38001C39207BB2D028003BB2B010A8A0E
:100A50008212096C300713C3E49529FAE4952AFB46
:100A6000E4952BFCE4952CFD8008AA29AB2AAC2B3D
:100A7000AD2C8A828B838CF0ED22858224858325A0
:100A8000E4F52DF52EF531C204AA34AB35AC368A27
:100A9000828B838CF01219B7FD74012AF534E43B84
:100AA000F5358C36EDFA7003020E83BA2502800309
:100AB000020E1CD203C201752F00753000C205C2A0
:100AC00006AB34AC35AD368B828C838DF01219B702
:100AD000FAA3AB82AC838B348C358D368B828C83BE
:100AE0008DF01219B7F5328A06BE300040168A061C
:100AF000EE24C6400FE53075F00AA4FEEA24D02E9D
:100B0000F53080C38A06BE6100400A8A06EE24855D
:100B100040035302DFBA250280ADBA2A028057BAD9
:100B200042028048BA43028052BA4403020C3FBAE0
:100B30004503020C55BA4603020C55BA4703020C92
:100B400055BA4903020C3FBA4C028025BA4E030243
:100B50000CAABA4F03020C45BA53028020BA5503BF
:100B6000020C3DBA5803020C4D020CD2D201020A0B
:100B7000C7D202020AC7D205020AC7D20620051749
:100B8000E53724FDF88837860308860408860518AB
:100B9000188B268C278D28E530700B3006047B01DE
:100BA00080027BFF8B30752F00C3E52F95305005F9
:100BB00012086AAA82300407E52F7003020CD2EAF9
:100BC000601ABA2002800DBA09028008BA0D0280AC
:100BD00003BA0A03300605E530B52F1FE52F60C9BB
:100BE0002005120531AB26AC27AD288B828C838D76
:100BF000F0E4121C67752F00020CD2BA081CE52F16
:100C000060A7200511AB26AC27AD281BBBFF011C3C
:100C10008B268C278D28152F808F20051BAB26ACAB
:100C200027AD288B828C838DF0EA121C670BBB00EA
:100C3000010C8B268C278D28052F020BA9C203756A
:100C40002F0A020CD2C203752F08020CD2C2037500
:100C50002F10020CD212088A783FE66075200572C8
:100C6000E53724FDF88837863808863908863A182B
:100C700018853826853927853A2890003F75F04039
:100C8000121A41AE82AF83ABF0FC8538828539837E
:100C9000853AF0EE121C67A3EF121C67A3EB121C3F
:100CA00067A3EC121C6705318028E53724FDF8881E
:100CB00037860308860408860518188B268C278D2E
:100CC000288B828C838DF0E52D121C67A3E52E12F4
:100CD0001C67E52F7003020E1C12088A783FE6702D
:100CE00003020E1C300503020E1CE53724FDF888B4
:100CF00037860308860408860518188B268C278DEE
:100D0000280531200303020D9530023585263885EC
:100D1000273985283A75823F120A03AE82AF83AB2A
:100D2000F0FC853882853983853AF0EE121C67A382
:100D3000EF121C67A3EB121C67A3EC121C67020ED8
:100D40001C30012685263885273985283A75823F4B
:100D5000120A03AE82AF83ABF0FC853882853983FB
:100D6000853AF0EE121C67020E1C8526388527395D
:100D700085283A75823F120A03AE82AF83ABF0FC3E
:100D8000853882853983853AF0EE121C67A3EF120D
:100D90001C67020E1C3002348526388527398528C9
:100DA0003A75823F12096CAE82AF83ABF0FC853896
:100DB00082853983853AF0EE121C67A3EF121C6717
:100DC000A3EB121C67A3EC121C6780503001258531
:100DD000263885273985283A75823F12096CAE82FC
:100DE000AF83ABF0FC853882853983853AF0EE120B
:100DF0001C67802885263885273985283A75823FE3
:100E000012096CAE82AF83ABF0FC853882853983E2
:100E1000853AF0EE121C67A3EF121C672004030250
:100E20000A89AB34AC35AD368B828C838DF01219C8
:100E3000B7FEA3AB82AC838B348C358D36EEFA7063
:100E400003020A89BA25E18B828C838DF01219B7CF
:100E5000FABA6E028003BA4ECFE53724FDF8883720
:100E6000860208860608860718188A268E278F2885
:100E70008A828E838FF0E52D121C67A3E52E121C4B
:100E80006780A5AA317B008A828B8322109802801A
:100E9000FBAA998A82C002120E9FD0028A8222AADD
:100EA00082BA0A0810990280FB75990D1099028088
:100EB000FB8A9922FCABF0AA83A982749EC2D1F569
:100EC00082120F71020F22121C80C3749E95824001
:100ED000397900121C9230D126E9F42401F582EA16
:100EE000F43400F583EBF43400F5F0ECF4340070E6
:100EF0000AE582458345F0700122E430E70F22ECD9
:100F000020E71489828A838BF02230D10AE4F582AB
:100F1000F583F5F074802274FFF582F583F5F074A3
:100F20007F22B98003EA13B34010EA2401FAE43BBC
:100F3000FBE43CFC50047C800582BC000EBB000B33
:100F4000BA0008E4F5F0F583F58222A2D1E5821318
:100F50008CF092F78B838A8222E4F583F58275F018
:100F600080F4A2D11322E4F583F58275F0C0747F7A
:100F7000227804EC7011E58224F8500AF582E4C965
:100F8000CACBFCD8EF22EC7820058220E713D5826B
:100F90000122C3E933F9EA33FAEB33FBEC33FCD833
:100FA000EA158222AA82AB83A2F73392D16002D2E1
:100FB000F7F582ACF0E58124F9F8E6FD08E6FE08D5
:100FC00086F008E6A2F73392D56002D2F7F583AF38
:100FD000F022AA8274E3C0E0740FC0E0C024C025F0
:100FE0008A8222052BE4B52B02052C22AA827430BA
:100FF0002AFA24C6500A74072AFA3008034302204A
:101000008A82020FD2E582FAC4540FF582C002121E
:101010000FECD002740F5AF582020FECAA26AB2710
:10102000AC28AD29AE2A753120EE2EFEED235401F9
:10103000FF4206EA2AFAEB33FBEC33FCED33FDC347
:10104000EE952D4008EEC3952DFE430201D531D912
:101050008A268B278C288D298E2A22784BE624D04D
:1010600075F00AA4FA784CE624D02AFA784A860366
:10107000BB2D04C3E49AFA752D01C3E464808AF0A1
:1010800063F08095F050297531038A0374F6253199
:10109000401C052DE53114243FF8E531243FF98744
:1010A00004A604772E1BEBFA6004053180DE8B0268
:1010B000EA30E70D784086037841A6037840762E23
:1010C0000AE52F600AE52F04FB252DF52D8005305C
:1010D0001302052D783F8603E4BB2D0104FB700647
:1010E000200E03300F02052D300C030211A2300D2B
:1010F00057EB600C75822DC002120FD2D002801CFB
:10110000300E0C75822BC002120FD2D002800D302F
:101110000F0A758220C002120FD2D00278408604D6
:10112000BC2E0C758230C002120FD2D002152EAC2C
:101130002E152EC3E52D9C40030211E6758230C0AA
:1011400002120FD2D00280E7AC2E152EC3E52D9CE3
:10115000500C758220C002120FD2D00280EA783F74
:101160008604BC2D0C75822DC002120FD2D00280D5
:101170001C300E0C75822BC002120FD2D002800DD3
:10118000300F0A758220C002120FD2D0027840863A
:1011900004BC2E52758230C002120FD2D002152E1E
:1011A0008044EB600E75822DC002120FD2D0021562
:1011B0002E8020300E0E75822BC002120FD2D0026C
:1011C000152E800F300F0C758220C002120FD2D066
:1011D00002152E78408603BB2E0C758230C0021299
:1011E0000FD2D002152E753101C215E531243FF81A
:1011F0008603BB45030212A3BB2E348A03C3E464F7
:10120000808BF063F08095F0500F758230C0031230
:101210000FD2D0031B8B0280E48B02D215E52F7016
:10122000382013030212A375822E120FD28074305D
:1012300015278A03EB30E71FC3E46480852FF06332
:10124000F08095F0500C758230C003120FD2D0039D
:10125000152F0B8B0280DD8B0230150EC3E46480EA
:10126000852FF063F08095F05021E531243FF8861A
:10127000038B82C002120FD2D00230150EE531244A
:101280003FF88603BB2E028002152F152EC3E4649F
:1012900080852FF063F08095F0400320150505311F
:1012A0000211EBC3E46480852FF063F08095F05069
:1012B0000A758230120FD2152F80E8300C0FAA2E3B
:1012C000152EEA6008758220120FD280F122E52FD8
:1012D000700330130D7407252FFAE52EC39AF52EEF
:1012E0008006E52E24FAF52E753100783F8602BA85
:1012F0002B0F200E0C783F7620200F05753101054D
:101300002E200C19AA2EC3E464808AF063F0809525
:10131000F0500A758220120FD2152E80E7C215E513
:1013200031243FF88602BA00028069BA451F3008AE
:10133000027665C3E46480852FF063F08095F050F9
:101340000A758230120FD2152F80E8D215C3E5310D
:101350009402E433FA7014EA700EC3E46480852FBB
:10136000F063F08095F04003301516E531243FF826
:1013700086028A82120FD2E53124FD5012152F8089
:101380000E7402B5310930130675822E120FD20584
:101390003102131F300C19AA2EC3E464808AF06353
:1013A000F08095F0500A758220120FD2152E80E73A
:1013B00022858224858325E4F52BF52CAA32AB33D4
:1013C000AC348A828B838CF01219B7FD74012AF534
:1013D00032E43BF5338C34EDFA7003021957BA2529
:1013E00002800302194FC20CC20DC20EC20FC210FE
:1013F000C211C212C213C209C20AC20B752D0075F6
:101400002E00752FFFAB32AC33AD348B828C838DC5
:10141000F01219B7FAA3AB82AC838B328C338D34C4
:10142000BA25078A82120FD280928A06BE30004007
:101430002E8A06EE24C6402774FFB52F13E52E75BD
:10144000F00AA4FEEA24D02EF52E70BFD20D80BB88
:10145000E52F75F00AA4FEEA24D02EF52F80ACBA51
:101460002E0A74FFB52FA4752F00809F8A06BE61D7
:1014700000400E8A06EE248540075302DFD2088022
:1014800002C208BA20028075BA230302150CBA2AD8
:1014900003021511BA2B02805FBA2D028055BA42A1
:1014A00002805FBA4303021556BA4403021691BA8A
:1014B00045030216ABBA46030216A7BA4703021643
:1014C000AFBA4903021691BA4C02803BBA4E0302EE
:1014D00016B3BA4F03021698BA500302162ABA532B
:1014E0000302157ABA550302169DBA58030216A2D2
:1014F0000216DDD20C02140BD20E02140BD20F0214
:10150000140BD21102140BD21202140BD2130214B8
:101510000B74FFB52F2030110BE53514F888358694
:101520002E02140BE53524FEF8883586060886075A
:10153000188E2E02140B30110BE53514F888358601
:101540002F02140BE53524FEF88835860608860739
:10155000188E2F02140B30110AE53514F8883586E1
:1015600002800FE53524FEF88835860308860418C6
:101570008B028A82120FD20216E2E53524FDF8882A
:1015800035860308860408860518188B268C278D57
:10159000288B828C838DF0121DF4AB82AC838B3050
:1015A00074FFB52F0385302F200C1DC3E530952E19
:1015B0005016E52EC39530F52EAB2E152EEB600898
:1015C000758220120FD280F1852682852783852897
:1015D000F01219B7FBFA6029AB2F152FC3E4648012
:1015E0008BF063F08095F050188A82120FD2AB26F0
:1015F000AC27AD280BBB00010C8B268C278D2880D7
:10160000C7200C030216E2C3E530952E40030216F4
:10161000E2E52EC39530F52EAB2E152EEB700302AE
:1016200016E2758220120FD280EEE53524FDF8888F
:1016300035860308860408860518188B268C278DA6
:1016400028E528FB30E7047A438013EB54606004FC
:101650007A50800AEB30E6047A4980027A588A820E
:10166000C002120FD275823A120FD2758230120F59
:10167000D2758278120FD2D002BA4902800BBA50CA
:1016800002800685278212100585268212100580A9
:1016900051D210752D0A804A752D088045752D0A86
:1016A0008040752D10803BD2098037D20A8033D21A
:1016B0000B802FE53524FDF888358603088604085D
:1016C000860518188B268C278D288B828C838DF0AD
:1016D000E52B121C67A3E52C121C6780058A821279
:1016E0000FD2200906200A03300B70E53524FCF8E0
:1016F00088358603088604088605088606181818A3
:101700008B268C278D288E29E526E527E528E529D7
:101710008B828C838DF0EE121CD574FFB52F037570
:101720002F06300B27747F5529FB8B2AE52AEB2BDC
:10173000FB8B2AE52830E7067401452AF52AE52ABD
:10174000246840067499252A4002D20A300A0612FB
:1017500012CE0213BC12105B0213BCE52D70030203
:1017600013BC7B4430112BE53514F88835E6FC3387
:1017700095E0FDFEFF8C268D278E288F2920105E98
:10178000AC267D007E007F008C268D278E288F2939
:10179000804C30121FE53524FCF888358604088615
:1017A000050886060886071818188C268D278E28A7
:1017B0008F29802AE53524FEF888358604088605B9
:1017C00018ED3395E0FEFF8C268D278E288F29207B
:1017D000100CAC26AD277E007F008E288F29301399
:1017E00043E52645274528452960397408B52D0C61
:1017F000758230C003120FD2D00380287410B52D2B
:1018000023758230C003120FD2D00330080C7582CA
:1018100078C003120FD2D003800A758258C0031219
:101820000FD2D003301025AC26AD27AE28E529FF16
:1018300030E717C3E49CFCE49DFDE49EFEE49FFFBB
:101840008C268D278E288F298002C210753000D2F9
:10185000148B00752A00C00012101CD00020140D3B
:10186000E52AC4FCE6FD4CF61888038002A62A058A
:1018700030B214E52645274528452970D68803E56A
:101880002E7003752E01200D1A200C17E53004FC74
:10189000C3952E500E758220C003120FD2D00315AF
:1018A0002E80E930100E75822DC003120FD2D003A6
:1018B000152E8024E5306020300E0E75822BC0037B
:1018C000120FD2D003152E800F300F0C758220C05E
:1018D00003120FD2D003152E200C1EAC2E152EC3D2
:1018E000E5309C5027300D047C3080027C208C82B7
:1018F000C003120FD2D00380E2C3E530952E500909
:10190000E52EC39530F52E8003752E008B00AB308D
:101910001530EB6022B21420140A08E6C4540FFB01
:101920008B2A80078603740F5BF52A852A82C00004
:10193000120FECD00080D7200C030213BCAB2E1585
:101940002EEB70030213BC758220120FD280EE8A38
:1019500082120FD20213BC852B82852C8322120F98
:10196000A47900E583B58202800D5003121E1CE5A8
:1019700083C39582121C92E5D0C465D020E117EA9A
:101980002DFAEB3EFBEC3FFC50097401121C92EC6B
:101990004480FC020F22C3EA9DFAEB9EFBEC9FFC05
:1019A000500FC3E499F9E49AFAE49BFBE49CFCB27F
:1019B000D1120F71020F2220F71430F6148883A879
:1019C0008220F507E6A88375830022E280F7E4937E
:1019D00022E022AAF0FBE582853BF0A4FCADF0E515
:1019E00083853BF0A42DFDE435F0FEE582853CF0D7
:1019F000A42DFDE5F03EFEE433FFEA853BF0A42E86
:101A0000FEE5F03FFFE583853CF0A42EFEE5F03FC8
:101A1000FFE582853DF0A42EFEE5F03FFFEB853B20
:101A2000F0A42FFFEA853CF0A42FFFE583853DF06D
:101A3000A42FFFE582853EF0A42F8EF08D838C824B
:101A400022AA82AB83ACF0751D00751E00C2188AF5
:101A5000058B068C078D828E838FF01219B7F8B82C
:101A600020028003B809070DBD00EA0E80E78D0251
:101A70008E038F04B82D0DD21674012DFAE43EFBAF
:101A80008F04800EC216B82B0974012DFAE43EFBB8
:101A90008F04751900751A00751B00751C008A05E6
:101AA0008B068C078D828E838FF01219B7F8F9B9E7
:101AB00030004005E824C650128D828E838FF012CC
:101AC00019B7F8B82E028003021B768D828E838FA1
:101AD000F01219B7F9B92E05D218021B6EC005C055
:101AE00006C007C005C006C007C001C019C01AC0A3
:101AF0001BC01C90000075F020744112066785829F
:101B00001985831A85F01BF51CE58124FCF581D02D
:101B100001D007D006D005E93395E0FDE924D0F5E2
:101B200082ED34FFF583121E36AD82AE83AFF0F93D
:101B3000C005C006C007C005C006C007C0018519A2
:101B400082851A83851BF0E51C12195E8582198532
:101B5000831A85F01BF51CE58124FCF581D007D0A4
:101B600006D005D007D006D005301802151D0DBDD2
:101B700000010E021AA45300DF8D828E838FF0E8DD
:101B8000121C67B8456274012DFAE43EFB8F048A8B
:101B9000828B838CF01219B7FDBD2D09D2170ABABA
:101BA000000D0B800AC217BD2B050ABA00010B7588
:101BB0001E008A828B838CF01219B7FDFEBE3000A6
:101BC000401D8D06EE24C64016E51E75F00AA4F5EC
:101BD0001EED24D0251EF51E0ABA00D60B80D33088
:101BE0001706C3E4951EF51EE51D251EF51EE51E10
:101BF0006055E51E30E728C019C01AC01BC01C90F4
:101C0000CCCD75F0CC743D12066785821985831A98
:101C100085F01BF51CE58124FCF581051E80CFC0F5
:101C200019C01AC01BC01C90000075F0207441122E
:101C3000066785821985831A85F01BF51CE58124CA
:101C4000FCF581151E80A730160F851919851A1A03
:101C5000851B1BE51CB2E7F51C851982851A838557
:101C60001BF0E51C22E47320F71030F6118883A8DE
:101C70008220F507F6A88375830022F280F7F02210
:101C8000AA82AB83A2F73392D16002D2F7F582AC7D
:101C9000F0226040F82582500274FFF582E824F8B3
:101CA000501ECCCBCAF9E4CC24F85014CBCAF9E4CA
:101CB000CB24F8500BCAF9E4CA24F8500379002267
:101CC00024086010F8C3EC13FCEB13FBEA13FAE9E9
:101CD00013F9D8F122C0E0F84582458345F0700938
:101CE000F5F0FBFCFDFE021DA3E823A2F792E0F84D
:101CF000A982AA83D2F7ABF07C007E07C3749798C1
:101D0000404074FF2EFE740A89F0A4F985F08274B5
:101D10000A8AF0A4FA85F083740A8BF0A4FB740598
:101D200029F9EA3582FAEB3583FB740035F0FCC300
:101D3000EC13FCEB13FBEA13FAE913F908EC70EF70
:101D400080BAE8C3947FF88B838EF0E4FBFCFDFE41
:101D5000FF08C3E933F9EA33FAE58333F583EB3B54
:101D6000D4FBEC3CD4FCED3DD4FDEE3ED4FEEF3F85
:101D7000D4FF602D05F074052BD4FBE43CD4FCE4C7
:101D80003DD4FDE43ED4FEE43FD4FF758204C3EFAE
:101D900013FFEE13FEED13FDEC13FCEB13FBD582EA
:101DA000EDD8AF783FD0E020E704762B8002762D87
:101DB000087906E7C4540F4430F608B90603762EB6
:101DC00008E7540F4430F60819B902E7764508E5EC
:101DD000F020E704762B8004762DF4040875F00AD1
:101DE000844430F608E5F04430F608E4F690003F0D
:101DF00075F04022AA82AB83ACF07D007E008A821F
:101E00008B838CF01219B7FFA3AA82AB83EF600714
:101E10000DBD00EA0E80E78D828E8322E582C583A8
:101E2000F582A2D133A2D592D11392D5ECCFFCEB9F
:101E3000CEFBEACDFA22AC83AB827A007900748EB5
:101E4000021E4CFCABF0AA83A982749EF582C2D11B
:101E5000EC30E716D2D1E9F42401F9EAF43400FABF
:101E6000EBF43400FBECF43400FC120F71020F228F
:00000001FF
